:100000000C942A000C9447000C9447000C94470071
:100010000C9447000C9447000C9447000C94470044
:100020000C9447000C9447000C9447000C94470034
:100030000C9447000C9447000C9447000C94470024
:100040000C9447000C9447000C9447000C94470014
:100050000C94470011241FBECFE5D8E0DEBFCDBF12
:1000600011E0A0E6B0E0E4ECF9E102C005900D92E9
:10007000A237B107D9F711E0A2E7B1E001C01D92A4
:10008000A637B107E1F70E9449000C94E00C0C94EC
:1000900000000F931F93DF93CF93CDB7DEB7C05609
:1000A000D0400FB6F894DEBF0FBECDBF87E390E01F
:1000B0002FEFFC0120838AE390E02FEFFC012083E7
:1000C00001C000008BE390E02EEFFC01208388E369
:1000D00090E02091600030916100FC0120838091CC
:1000E000680090916900AA2797FDA095BA2FBC01DE
:1000F000CD010E940D0ADC01CB0189839A83AB8379
:10010000BC8369817A818B819C812BEA3AEA4AEA35
:1001100050E40E94D507DC01CB018D839E83AF8321
:10012000B88711E06D817E818F81988520E030E075
:1001300040E85FE30E94DD0988230CF010E0112302
:1001400019F081E08987A3C011E06D817E818F81E4
:10015000988520E030E04FE753E40E947D091816AF
:100160000CF010E0112309F489C069817A818B8138
:100170009C8120E030E04AE754E40E94CF08DC0193
:10018000CB018A879B87AC87BD876A857B858C85F9
:100190009D8520E030E04AE755E40E94D507DC0168
:1001A000CB018E879F87A88BB98B11E06E857F85E9
:1001B0008889998920E030E040E85FE30E94DD090A
:1001C00088230CF010E0112329F081E090E09B8B54
:1001D0008A8B46C011E06E857F858889998920E0E9
:1001E0003FEF4FE757E40E947D0918160CF010E02E
:1001F000112361F16A857B858C859D8520E030E047
:1002000040E251E40E94D507DC01CB01BC01CD01E5
:100210000E940106DC01CB019B8B8A8B12C080E916
:1002200091E09D8B8C8B8C899D898C01C8010197F5
:10023000F1F78C011D8B0C8B8A899B8901979B8B15
:100240008A8B8A899B89009751F728C06E857F85A4
:10025000888999890E940106DC01CB019B8B8A8BDE
:100260008A899B899F8B8E8B8E899F898C01F8014F
:100270003197F1F78F011F8B0E8B10C06D817E813E
:100280008F8198850E940106DC01CB0189878985D1
:10029000888F888D182F1A95F1F7188F8BE390E0CF
:1002A0002DEFFC01208388E390E0209162003091E3
:1002B0006300FC0120838091680090916900AA2767
:1002C00097FDA095BA2FBC01CD010E940D0ADC015B
:1002D000CB01898F9A8FAB8FBC8F698D7A8D8B8D77
:1002E0009C8D2BEA3AEA4AEA50E40E94D507DC01E9
:1002F000CB018D8F9E8FAF8FB8A311E06D8D7E8D5A
:100300008F8D98A120E030E040E85FE30E94DD0996
:1003100088230CF010E0112319F081E089A3A3C019
:1003200011E06D8D7E8D8F8D98A120E030E04FE73C
:1003300053E40E947D0918160CF010E0112309F413
:1003400089C0698D7A8D8B8D9C8D20E030E04AE7E5
:1003500054E40E94CF08DC01CB018AA39BA3ACA389
:10036000BDA36AA17BA18CA19DA120E030E04AE75A
:1003700055E40E94D507DC01CB018EA39FA3A8A75B
:10038000B9A711E06EA17FA188A599A520E030E072
:1003900040E85FE30E94DD0988230CF010E01123A0
:1003A00029F081E090E09BA78AA746C011E06EA1EA
:1003B0007FA188A599A520E03FEF4FE757E40E9471
:1003C0007D0918160CF010E0112361F16AA17BA1E0
:1003D0008CA19DA120E030E040E251E40E94D507CD
:1003E000DC01CB01BC01CD010E940106DC01CB0187
:1003F0009BA78AA712C080E991E09DA78CA78CA536
:100400009DA58C01C8010197F1F78C011DA70CA7D0
:100410008AA59BA501979BA78AA78AA59BA500975C
:1004200051F728C06EA17FA188A599A50E94010659
:10043000DC01CB019BA78AA78AA59BA59FA78EA7B6
:100440008EA59FA58C01F8013197F1F78F011FA7A9
:100450000EA710C06D8D7E8D8F8D98A10E94010614
:10046000DC01CB0189A389A188AB88A9182F1A9533
:10047000F1F718AB8BE390E02BEBFC01208388E3D2
:1004800090E02091640030916500FC012083809110
:10049000680090916900AA2797FDA095BA2FBC012A
:1004A000CD010E940D0ADC01CB0189AB9AABABAB4D
:1004B000BCAB69A97AA98BA99CA92BEA3AEA4AEABA
:1004C00050E40E94D507DC01CB018DAB9EABAFABF6
:1004D000B8AF11E06DA97EA98FA998AD20E030E0FA
:1004E00040E85FE30E94DD0988230CF010E011234F
:1004F00019F081E089AFE6C011E06DA97EA98FA94E
:1005000098AD20E030E04FE753E40E947D091816D3
:100510000CF010E0112309F4CCC069A97AA98BA9C9
:100520009CA920E030E04AE754E40E94CF08DC01B7
:10053000CB018AAF9BAFACAFBDAF8E01025C1F4F4A
:100540006AAD7BAD8CAD9DAD20E030E04AE755E46F
:100550000E94D507DC01CB01F80180839183A2833F
:10056000B383CE01CE9611E0FC016081718182815E
:10057000938120E030E040E85FE30E94DD098823BA
:100580000CF010E0112349F0CE018E5B9F4F21E06B
:1005900030E0FC01318320836EC0CE01CE9611E0A5
:1005A000FC01608171818281938120E03FEF4FE700
:1005B00057E40E947D0918160CF010E0112309F48D
:1005C00049C06AAD7BAD8CAD9DAD20E030E040E22E
:1005D00051E40E94D507DC01CB018E010E5B1F4F59
:1005E000BC01CD010E940106DC01CB01F801918321
:1005F000808327C0CE018C5B9F4F20E931E0FC0156
:1006000031832083CE018C5B9F4FFC0180819181DF
:100610008C01C8010197F1F78C01CE018C5B9F4FD3
:10062000FC0111830083CE018E5B9F4F9E012E5BE8
:100630003F4FF9012081318121503040FC0131834D
:100640002083CE018E5B9F4FFC01808191810097BA
:1006500089F64BC08E010E5B1F4FCE01CE96FC017A
:1006600060817181828193810E940106DC01CB014E
:10067000F80191838083CE018A5B9F4F9E012E5BA0
:100680003F4FF90120813181FC0131832083CE016C
:100690008A5B9F4FFC01808191818C01C801019789
:1006A000F1F78C01CE018A5B9F4FFC01118300831F
:1006B0001CC06DA97EA98FA998AD0E940106DC011E
:1006C000CB0189AFCE01885B9F4F29ADFC01208310
:1006D000CE01885B9F4FFC018081182F1A95F1F79E
:1006E000CE01885B9F4FFC0110838BE390E027E7EE
:1006F000FC01208388E390E0209166003091670040
:10070000FC0120838091680090916900AA2797FDE1
:10071000A095BA2FBC01CD010E940D0ADC01CB01CE
:100720009E01275B3F4FF90180839183A283B383AE
:100730008E01035B1F4FCE01875B9F4FFC016081E1
:100740007181828193812BEA3AEA4AEA50E40E945D
:10075000D507DC01CB01F80180839183A283B383A9
:10076000CE01835B9F4F11E0FC016081718182812A
:10077000938120E030E040E85FE30E94DD098823B8
:100780000CF010E0112339F0CE018F5A9F4F21E079
:10079000FC01208305C1CE01835B9F4F11E0FC016A
:1007A000608171818281938120E030E04FE753E4E2
:1007B0000E947D0918160CF010E0112309F4DFC027
:1007C000CE01875B9F4FFC016081718182819381A3
:1007D00020E030E04AE754E40E94CF08DC01CB017E
:1007E0009E012E5A3F4FF90180839183A283B383E8
:1007F0008E010A5A1F4FCE018E5A9F4FFC01608115
:1008000071818281938120E030E04AE755E40E94C3
:10081000D507DC01CB01F80180839183A283B383E8
:10082000CE018A5A9F4F11E0FC0160817181828163
:10083000938120E030E040E85FE30E94DD098823F7
:100840000CF010E0112349F0CE01865A9F4F21E0B1
:1008500030E0FC013183208374C0CE018A5A9F4F5F
:1008600011E0FC01608171818281938120E03FEF82
:100870004FE757E40E947D0918160CF010E0112391
:1008800009F44DC0CE018E5A9F4FFC0160817181E9
:100890008281938120E030E040E251E40E94D5075C
:1008A000DC01CB018E01065A1F4FBC01CD010E9415
:1008B0000106DC01CB01F8019183808327C0CE01C2
:1008C000845A9F4F20E931E0FC0131832083CE011F
:1008D000845A9F4FFC01808191818C01C80101974E
:1008E000F1F78C01CE01845A9F4FFC0111830083E4
:1008F000CE01865A9F4F9E01265A3F4FF901208113
:10090000318121503040FC0131832083CE01865A51
:100910009F4FFC0180819181009789F658C08E011C
:10092000065A1F4FCE018A5A9F4FFC016081718188
:10093000828193810E940106DC01CB01F801918341
:100940008083CE01825A9F4F9E01265A3F4FF90164
:1009500020813181FC0131832083CE01825A9F4F57
:10096000FC01808191818C01C8010197F1F78C0114
:10097000CE01825A9F4FFC011183008328C08E0153
:100980000F5A1F4FCE01835B9F4FFC016081718125
:10099000828193810E940106DC01CB01F8018083F2
:1009A000CE01805A9F4F9E012F5A3F4FF90120815F
:1009B000FC012083CE01805A9F4FFC018081182FBB
:1009C0001A95F1F7CE01805A9F4FFC011083809158
:1009D000720190917301019690937301809372015B
:1009E0008091720190917301F1E0843F9F0709F0BB
:1009F00068CB8091740190917501009759F583E05F
:100A000090E00E945305909361008093600082E023
:100A100090E00E945305909363008093620081E010
:100A200090E00E945305909365008093640080E0FD
:100A300090E00E94530590936700809366001092A7
:100A400073011092720181E090E0909375018093A0
:100A5000740138CB80E090E00E94530590936100D0
:100A60008093600081E090E00E94530590936300C2
:100A70008093620082E090E00E94530590936500AD
:100A80008093640083E090E00E9453059093670098
:100A9000809366001092730110927201109275019A
:100AA000109274010FCBDF93CF9300D0CDB7DEB798
:100AB0009A83898389819A818430910599F185305F
:100AC000910584F48130910521F1823091051CF467
:100AD0000097E1F039C082309105F1F08330910543
:100AE000F1F032C08730910531F1883091053CF446
:100AF00085309105D1F086309105D1F025C0883040
:100B00009105E1F089309105E1F01EC080EC90E0A4
:100B10001CC089EF90E019C084EA90E016C080EB19
:100B200090E013C089E990E010C082E990E00DC028
:100B300082E890E00AC088EF90E007C080E890E08B
:100B400004C080E990E001C000C00F900F90CF91E9
:100B5000DF910895DF93CF9300D0CDB7DEB79A83AE
:100B6000898389819A818430910599F18530910535
:100B700084F48130910521F1823091051CF40097B5
:100B8000E1F039C082309105F1F083309105F1F048
:100B900032C08730910531F1883091053CF48530C1
:100BA0009105D1F086309105D1F025C088309105AE
:100BB000E1F089309105E1F01EC080E490E01CC0B6
:100BC00089E790E019C084E290E016C080E390E0ED
:100BD00013C089E190E010C082E190E00DC082E096
:100BE00090E00AC088E790E007C080E090E004C091
:100BF00080E190E001C000C00F900F90CF91DF9195
:100C00000895EF92FF920F931F937B018C0120E0D8
:100C100030E040E05FE40E94AD0987FD11C0C801EB
:100C2000B70120E030E040E05FE40E94A4070E94AA
:100C30006D0A9B01AC01205030404040504806C036
:100C4000C801B7010E946D0A9B01AC01B901CA013C
:100C50001F910F91FF90EF900895A0E0B0E0E3E3C3
:100C6000F6E00C94AD0CFC01EA018081823008F4BE
:100C700038C1DB019C91923008F430C1843059F4C2
:100C8000943009F02EC1918111968C91119798178B
:100C900009F021C126C1943009F420C19230B1F489
:100CA000823009F01EC1CA01AF0128E0DA010D90BF
:100CB000AD01DC010D92CD012150C1F7DB01119690
:100CC0008C9111979181892389830AC1823009F41B
:100CD00005C1C280D380DB0112966D907C90139782
:100CE00024813581468157811496ED90FD900D91B8
:100CF0001C911797C601861997095C0197FF04C0DC
:100D0000AA24BB24A81AB90AB0E2AB16B1040CF0AD
:100D100061C0181619066CF5370148010A2C04C089
:100D200096948794779467940A94D2F781E090E040
:100D3000A0E0B0E00A2C04C0880F991FAA1FBB1FB7
:100D40000A94D2F70197A109B1098E219F21A0230E
:100D5000B123EE24FF248701E3940097A105B10598
:100D600019F4EE24FF248701E628F7280829192919
:100D70003CC00097D1F1CA0CDB1C39014A010A2C96
:100D800004C096948794779467940A94D2F781E08C
:100D900090E0A0E0B0E00A2C04C0880F991FAA1FC1
:100DA000BB1F0A94D2F70197A109B10982239323AB
:100DB000A423B52321E030E040E050E00097A105F6
:100DC000B10519F420E030E0A90126293729482986
:100DD00059290BC06C147D0424F4EE24FF248701F0
:100DE00004C0630120E030E0A9018181FB01918111
:100DF000891709F445C0882349F0D801C701821B2F
:100E0000930BA40BB50B9C01AD0104C02E193F0937
:100E1000400B510B57FD04C01982DB82CA820BC004
:100E200081E08983DB82CA82509540953095219577
:100E30003F4F4F4F5F4F2C833D834E835F830DC0E9
:100E4000880F991FAA1FBB1F8C839D83AE83BF830E
:100E50008A819B8101979B838A838C819D81AE814E
:100E6000BF819C01AD0121503040404050402F3F98
:100E7000EFEF3E07EFEF4E07EFE35E0708F30BC01F
:100E80008983DB82CA822E0D3F1D401F511F2C8398
:100E90003D834E835F8383E088832C813D814E8137
:100EA0005F8157FF1DC0DA01C90181709070A07089
:100EB000B0705695479537952795822B932BA42B89
:100EC000B52B8C839D83AE83BF838A819B810196E2
:100ED0009B838A8305C0EAE6F0E003C0FB0101C002
:100EE000FE01CF01CDB7DEB7EEE00C94C90CA0E255
:100EF000B0E0EDE7F7E00C94B50C69837A838B835F
:100F00009C832D833E834F83588789E0E82EF12C04
:100F1000EC0EFD1ECE010196B7010E94E70B8E017B
:100F20000F5E1F4FCE010596B8010E94E70BC70167
:100F3000B801AE01475E5F4F0E942D060E94190B5B
:100F4000A096E6E00C94D10CA0E2B0E0EAEAF7E06B
:100F50000C94B50C69837A838B839C832D833E83A9
:100F60004F8358878E01075F1F4FCE010196B8014E
:100F70000E94E70B91E1E92EF12CEC0EFD1ECE0153
:100F80000596B7010E94E70B8A8991E089278A8B31
:100F9000C801B701AE01475E5F4F0E942D060E9457
:100FA000190BA096E6E00C94D10CA0E2B0E0EBEDBA
:100FB000F7E00C94A90C69837A838B839C832D833F
:100FC0003E834F835887CE010196BE01675F7F4FF6
:100FD0000E94E70BCE010596BE016F5E7F4F0E9417
:100FE000E70B9985923078F089898230C0F094308F
:100FF00019F4823041F4CBC0843019F4923079F482
:10100000C6C0923051F481E02A859A89291709F4E3
:1010100080E08A87CE010996BCC0823051F481E01D
:101020002A859A89291709F480E08A8BCE01419696
:10103000B0C06D847E848F849888ED88FE880F8987
:10104000188DE0E2F0E080E090E0DC01AA24BB240F
:10105000650120E030E0A901B30161707070611595
:101060007105D1F02E0D3F1D401F511F15012601A6
:10107000280E391E4A1E5B1E81E090E0A0E0B0E021
:101080002E153F054007510718F080E090E0DC0185
:10109000820D931DA41DB51DAA0CBB1CCC1CDD1C10
:1010A00017FF09C061E0262E312C412C512CA228BB
:1010B000B328C428D528319749F0EE0CFF1C001F37
:1010C000111F9694879477946794C6CF6B897C8917
:1010D000EB85FC856E0F7F1F6E5F7F4F7C8F6B8F64
:1010E00061E0EA857A89E71709F460E06A8F6B8D21
:1010F0007C8D10C0FC01E170F070309729F056959E
:101100004795379527955068B695A79597958795F4
:101110006F5F7F4FB7FDEECF0CC0880F991FAA1FDE
:10112000BB1F57FD8160220F331F441F551F6150A5
:1011300070408030E0E09E07E0E0AE07E0E4BE07EC
:1011400060F36B8F7C8F6FE7E62EF12C012D112D54
:10115000E822F9220A231B2360E4E616F1040105C4
:10116000110561F487FD0AC02115310541055105BE
:1011700029F0805C9F4FAF4FBF4F80788D8F9E8F3F
:10118000AF8FB8A383E0898FCE01499602C08AE66B
:1011900090E00E94190BA096E2E10C94C50CA8E126
:1011A000B0E0E5EDF8E00C94B10C69837A838B83B1
:1011B0009C832D833E834F8358878E01075F1F4F8B
:1011C000CE010196B8010E94E70B81E1E82EF12CD7
:1011D000EC0EFD1ECE010596B7010E94E70B998526
:1011E000923008F483C08989823008F47BC02A8554
:1011F0003A8923272A87943011F0923021F49817E6
:1012000009F06CC071C0843039F41D861E861F86BB
:10121000188A1C861B866AC0823019F484E089878C
:1012200065C08B859C852B893C89821B930B9C8791
:101230008B872D853E854F855889ED88FE880F89DF
:10124000188D2E153F054007510738F4220F331F24
:10125000441F551F01979C878B876FE170E0A12C7D
:10126000B12CC12CA0E4DA2E80E090E0DC012E1538
:101270003F054007510740F08A299B29AC29BD2929
:101280002E193F09400B510BD694C794B794A794DD
:10129000220F331F441F551F6150704041F76FE705
:1012A000E62EF12C012D112DE822F9220A231B2311
:1012B00060E4E616F1040105110561F487FD0AC03A
:1012C000211531054105510529F0805C9F4FAF4F35
:1012D000BF4F80788D879E87AF87B88B8E01075F61
:1012E0001F4F04C0870102C00AE610E0C8010E9437
:1012F000190B6896EAE00C94CD0CA8E1B0E0E3E8A5
:10130000F9E00C94B50C69837A838B839C832D83DD
:101310003E834F8358878E01075F1F4FCE01019692
:10132000B8010E94E70B81E1E82EF12CEC0EFD1EC6
:10133000CE010596B7010E94E70B8985823040F007
:101340008989823028F0C801B7010E94500C01C081
:101350008FEF6896E6E00C94D10CA8E1B0E0E3EBE7
:10136000F9E00C94B50C69837A838B839C832D837D
:101370003E834F8358878E01075F1F4FCE01019632
:10138000B8010E94E70B81E1E82EF12CEC0EFD1E66
:10139000CE010596B7010E94E70B8985823040F0A7
:1013A0008989823028F0C801B7010E94500C01C021
:1013B0008FEF6896E6E00C94D10CA8E1B0E0E3EE84
:1013C000F9E00C94B50C69837A838B839C832D831D
:1013D0003E834F8358878E01075F1F4FCE010196D2
:1013E000B8010E94E70B81E1E82EF12CEC0EFD1E06
:1013F000CE010596B7010E94E70B8985823040F047
:101400008989823028F0C801B7010E94500C01C0C0
:1014100081E06896E6E00C94D10CA8E0B0E0E3E14E
:10142000FAE00C94B50C7B018C0183E08983D80130
:10143000C7018827B7FD83959927AA27BB27282F9F
:101440008A83E114F1040105110519F482E089830E
:1014500037C08EE190E09C838B83222389F080E06B
:10146000E81680E0F80680E0080780E8180769F1D0
:1014700010950095F094E094E11CF11C011D111DE4
:10148000ED82FE820F831887C801B7010E94BF0A50
:101490009C01215030401216130694F4022E04C011
:1014A000EE0CFF1C001F111F0A94D2F7ED82FE8282
:1014B0000F8318878EE190E0821B930B9C838B83B4
:1014C000CE0101960E94190B04C060E070E080E03C
:1014D0009FEC2896E6E00C94D10CACE0B0E0E3E79A
:1014E000FAE00C94B90C69837A838B839C83CE01D8
:1014F0000196BE016B5F7F4F0E94E70B8D818230AA
:1015000081F1823070F1843021F48E81882369F179
:101510000AC02F81388537FD24C06E812F313105F7
:101520003CF0662311F120E030E040E050E821C0BB
:101530008EE190E0821B930B29853A854B855C8573
:1015400004C056954795379527958A95D2F7662317
:1015500081F050954095309521953F4F4F4F5F4F0B
:1015600008C020E030E0A90104C02FEF3FEF4FEFAB
:101570005FE7B901CA012C96E2E00C94D50CAF925A
:10158000BF92CF92DF92EF92FF920F931F937B0156
:101590008C0180E0E81680E0F80681E0080780E032
:1015A000180758F4EFEFEE16F1040105110509F0E4
:1015B00090F480E090E0DC0117C0F0E0EF16F0E07E
:1015C000FF06F0E00F07F1E01F0750F480E190E024
:1015D000A0E0B0E009C088E090E0A0E0B0E004C086
:1015E00088E190E0A0E0B0E020E230E040E050E0B0
:1015F000281B390B4A0B5B0B5701680104C0D694BA
:10160000C794B794A7948A95D2F7D601C5018E588E
:101610009F4FFC018081281B310941095109C901F3
:101620001F910F91FF90EF90DF90CF90BF90AF9000
:101630000895EF92FF920F931F93CF93DF93FC01D6
:10164000248135814681578161818081823020F4F7
:101650004061EFEFF0E0A3C0843009F49BC082301A
:1016600009F492C0211531054105510509F48FC0D7
:101670000280F381E02D8FEFE238F8070CF05AC0BA
:10168000C2E8DFEFCE1BDF0BCA31D1056CF5790163
:101690008A010C2E04C016950795F794E7940A94D6
:1016A000D2F781E090E0A0E0B0E00C2E04C0880FFB
:1016B000991FAA1FBB1F0A94D2F70197A109B1096C
:1016C00082239323A423B52321E030E040E050E0BF
:1016D0000097A105B10519F420E030E0A9012E29F9
:1016E0003F29402B512B03C020E030E0A901DA0153
:1016F000C9018F779070A070B07080349105A105FA
:10170000B10539F427FF09C0205C3F4F4F4F5F4FB1
:1017100004C0215C3F4F4F4F5F4FE1E0F0E02030CD
:1017200080E0380780E0480780E4580728F5E0E0CB
:10173000F0E022C0E038F1056CF5E158FF4FDA0126
:10174000C9018F779070A070B07080349105A105A9
:10175000B10539F427FF09C0205C3F4F4F4F5F4F61
:1017600004C0215C3F4F4F4F5F4F57FF05C0569558
:10177000479537952795319687E056954795379544
:1017800027958A95D1F70BC0E0E0F0E005C0E0E0D6
:10179000F0E005C0EFEFF0E020E030E0A9018E2F8F
:1017A000879588278795942F9F77679566276795F4
:1017B000E695E22EA92FA82BFE2FF62B622F732F72
:1017C0008A2F9F2FCDB7DEB7E6E00C94D10CDC0159
:1017D000FB012C9111963C91119712968C911297C6
:1017E000482F4F7750E0982F991F9927991F1396EC
:1017F0006C911397862F880F892B90E0661F6627C0
:10180000661F6183009739F52115310541055105A2
:1018100011F482E029C082E89FEF9383828367E01E
:10182000220F331F441F551F6A95D1F783E0808331
:1018300009C0220F331F441F551F828193810197D6
:1018400093838283203080E0380780E0480780E47B
:10185000580778F320C08F3F910579F421153105A1
:101860004105510519F484E08083089544FF03C0C5
:1018700081E0808310C010820EC08F579040938308
:10188000828383E0808387E0220F331F441F551F2C
:101890008A95D1F75064248335834683578308950E
:1018A000FC01DB019081923008F449C08C918230B8
:1018B00008F445C0943051F461818430B1F511963B
:1018C0002C91119730E0261B310941C0843021F062
:1018D000923041F48230B1F111968C9111978823A6
:1018E000A1F12DC06181823001F111968C91119787
:1018F0006817D9F42281338112968D919C911397A8
:101900008217930794F028173907BCF0248135819A
:101910004681578114968D919D910D90BC91A02D7B
:1019200082179307A407B50718F4662341F00DC08A
:10193000281739074A075B0728F4662331F021E0AE
:1019400030E005C020E030E002C02FEF3FEFC901DA
:1019500008952F923F924F925F926F927F928F9253
:101960009F92AF92BF92CF92DF92EF92FF920F932E
:101970001F93CF93DF93CDB7DEB7CA1BDB0B0FB638
:10198000F894DEBF0FBECDBF09942A8839884888F5
:101990005F846E847D848C849B84AA84B984C8848B
:1019A000DF80EE80FD800C811B81AA81B981CE0F82
:1019B000D11D0FB6F894DEBF0FBECDBFED01089567
:0419C000F894FFCFC9
:1019C4000100020003000400050000000000000004
:1019D40000000001020203030303040404040404DA
:1019E40004040505050505050505050505050505A5
:1019F4000505060606060606060606060606060685
:101A04000606060606060606060606060606060672
:101A14000606070707070707070707070707070754
:101A24000707070707070707070707070707070742
:101A34000707070707070707070707070707070732
:101A44000707070707070707070707070707070722
:101A54000707080808080808080808080808080804
:101A640008080808080808080808080808080808F2
:101A740008080808080808080808080808080808E2
:101A840008080808080808080808080808080808D2
:101A940008080808080808080808080808080808C2
:101AA40008080808080808080808080808080808B2
:101AB40008080808080808080808080808080808A2
:101AC4000808080808080808080808080808080892
:021AD400080800
:00000001FF
