:1000000011C1000019C1000017C1000015C1000096
:1000100013C1000011C100000FC100000DC100009C
:100020000BC1000009C1000007C1000005C10000AC
:1000300003C1000001C10000FFC00000FDC00000BE
:10004000FBC00000F9C00000F7C00000F5C00000D0
:10005000F3C00000F1C00000EFC00000EDC00000E0
:10006000EBC00000E9C00000E7C00000E5C00000F0
:10007000E3C00000E1C00000DFC00000DDC0000000
:10008000DBC00000D9C00000D7C00000D5C0000010
:10009000D3C00000D1C00000CFC00000CDC0000020
:1000A000CBC00000C9C00000C7C00000C5C0000030
:1000B000C3C00000C1C00000BFC00000BDC0000040
:1000C000BBC00000B9C00000B7C00000B5C0000050
:1000D000B3C00000B1C00000AFC00000ADC0000060
:1000E000ABC00000A9C00000A7C00000A5C0000070
:1000F000A3C00000A1C000009FC000009DC0000080
:100100009BC0000099C0000097C0000095C000008F
:1001100093C0000091C000008FC000008DC000009F
:100120008BC0000089C0000087C0000085C00000AF
:1001300083C0000081C000007FC000007DC00000BF
:100140007BC0000079C0000077C0000075C00000CF
:1001500073C0000071C000006FC000006DC00000DF
:100160006BC0000069C0000067C0000065C00000EF
:1001700063C0000061C000005FC000005DC00000FF
:100180005BC0000059C0000057C0000055C000000F
:1001900053C0000051C000004FC000004DC000001F
:1001A0004BC0000049C0000047C0000045C000002F
:1001B00043C0000041C000003FC000003DC000003F
:1001C0003BC0000039C0000037C0000035C000004F
:1001D00033C0000031C000002FC000002DC000005F
:1001E0002BC0000029C0000027C0000025C000006F
:1001F00023C0000021C000001FC000002020204BB1
:1002000075727320584D454741004C656F6E20490B
:100210006E737472756D656E7473004C69637A6E7B
:10022000696B3A0011241FBECFEFDFE3DEBFCDBF05
:1002300000E00CBF0AD154C1E3CE90E180FF03C0BF
:100240009093450602C09093460690E281FF03C05A
:100250009093450602C09093460690E482FF03C047
:100260009093450602C09093460683FF04C080E841
:1002700080934506089580E88093460608950F937D
:100280001F93CF93DF93082FC0E4D6E018E01D83BF
:1002900082958F70D2DF1E8300001D83802FCDDFFB
:1002A0001E8381E28A95F1F70000DF91CF911F91C3
:1002B0000F91089594E0E0E4F6E09683E0CF94E0B7
:1002C000E0E4F6E09583DBCFCF93DF93EC0101C050
:1002D000F6DFFE01219684918111FACFDF91CF9153
:1002E000089590E4699F800D11248068E3CF81E038
:1002F000E1DF87EE93E00197F1F700C00000089579
:100300001F93CF93DF938CEF8093410683EC99E0AA
:100310000197F1F700C000008CE080934606C3E02F
:1003200018E0D8E01093450683E087DF1093460677
:1003300083EC99E00197F1F700C00000C15089F704
:10034000D093450682E079DFD093460683EF91E0B3
:100350000197F1F700C0000088E2ACDF88E0AADF77
:1003600081E0A8DF87EE93E00197F1F700C000007D
:1003700086E0A0DF8CE0DF91CF911F919BCF8F9221
:100380009F92AF92BF92DF92EF92FF920F931F93D3
:10039000CF93DF93CDB7DEB72A97CDBFDEBF611510
:1003A00071058105910581F480E32A96CDBFDEBFFA
:1003B000DF91CF911F910F91FF90EF90DF90BF9051
:1003C000AF909F908F907BCFEE24E394F12CEC0EB6
:1003D000FD1E87013AE0832E912CA12CB12CD02E4A
:1003E000DE18A50194015AD0F80161938F01B9017B
:1003F000CA01611571058105910589F700E010E0DA
:10040000EE24E394F12CEC0EFD1EED0CF11CD7FC58
:10041000FA9408C0F701E00FF11F8081805D4FDF83
:10042000015011098D2D800F8F3FA1F72A96CDBF66
:10043000DEBFDF91CF911F910F91FF90EF90DF9082
:10044000BF90AF909F908F90089580E28093820636
:1004500088E18093950654DF8CEF91E035DF61E011
:1004600080E03FDF8AE092E02FDFC0E080918806E5
:1004700085FDFCCFCF5F3BDF8BE192E025DF61E0C4
:1004800080E02FDF6C2F70E080E090E078DF8FE479
:1004900093EC0197F1F700C00000E8CFA1E21A2E1B
:1004A000AA1BBB1BFD010DC0AA1FBB1FEE1FFF1F18
:1004B000A217B307E407F50720F0A21BB30BE40B68
:1004C000F50B661F771F881F991F1A9469F76095AF
:1004D0007095809590959B01AC01BD01CF01089569
:0404E000F894FFCFBE
:00000001FF
