:100000000C942A000C9447000C9447000C94470071
:100010000C9447000C9447000C9447000C94470044
:100020000C9447000C9447000C9447000C94470034
:100030000C9447000C9447000C9447000C94470024
:100040000C9447000C9447000C9447000C94470014
:100050000C94470011241FBECFE5D8E0DEBFCDBF12
:1000600010E0A8E6B0E001C01D92A037B107E1F7AB
:1000700010E0A0E6B0E0E2E3F2E102C005900D92EC
:10008000A836B107D9F70E9460000C9417090C94A8
:100090000000DF93CF93CDB7DEB7109269001092C6
:1000A000680010926B0010926A0010926F0010921C
:1000B0006E0010926D0010926C00CF91DF91089548
:1000C0000F931F93DF93CF93CDB7DEB7AE970FB6E5
:1000D000F894DEBF0FBECDBF81E390E02FEFFC01AF
:1000E00020838AE390E0FC0110828BE390E02FEF05
:1000F000FC0120838FE090E09A83898380EF90E079
:100100009C838B8303C0000001C0000082E390E069
:100110002981FC01208380E090E0A6E9B3E48D838F
:100120009E83AF83B8876D817E818F81988520E023
:1001300030E04AE753E40E947405DC01CB01898773
:100140009A87AB87BC8711E069857A858B859C850A
:1001500020E030E040E85FE30E94CE0688230CF008
:1001600010E0112329F081E090E09E878D8746C042
:1001700011E069857A858B859C8520E03FEF4FE70C
:1001800057E40E946E0618160CF010E0112361F17E
:100190006D817E818F81988520E030E040E251E4DE
:1001A0000E947405DC01CB01BC01CD010E94A003BB
:1001B000DC01CB019E878D8712C089E190E0988B8E
:1001C0008F878F8598898C01C8010197F1F78C0181
:1001D000188B0F878D859E8501979E878D878D85CE
:1001E0009E85009751F717C069857A858B859C8518
:1001F0000E94A003DC01CB019E878D878D859E85A3
:100200009A8B898B89899A898C01F8013197F1F74A
:100210008F011A8B098B82E390E02B81FC012083F4
:1002200080E090E0A6E9B3E48B8B9C8BAD8BBE8B1A
:100230006B897C898D899E8920E030E04AE753E410
:100240000E947405DC01CB018F8B988FA98FBA8F28
:1002500011E06F89788D898D9A8D20E030E040E83B
:100260005FE30E94CE0688230CF010E0112329F0F2
:1002700081E090E09C8F8B8F46C011E06F89788D74
:10028000898D9A8D20E03FEF4FE757E40E946E067C
:1002900018160CF010E0112361F16B897C898D89AF
:1002A0009E8920E030E040E251E40E947405DC01C8
:1002B000CB01BC01CD010E94A003DC01CB019C8FCE
:1002C0008B8F12C089E190E09E8F8D8F8D8D9E8DDA
:1002D0008C01C8010197F1F78C011E8F0D8F8B8D5A
:1002E0009C8D01979C8F8B8F8B8D9C8D009751F7E8
:1002F00017C06F89788D898D9A8D0E94A003DC01CB
:10030000CB019C8F8B8F8B8D9C8D98A38F8F8F8D26
:1003100098A18C01F8013197F1F78F0118A30F8F85
:1003200080916800909169008130910509F09AC030
:1003300089819A818038910509F088C080E890E031
:100340009C838B8381E090E09A83898380E090E0B6
:10035000A6E9B3E489A39AA3ABA3BCA369A17AA13C
:100360008BA19CA120E030E04AE753E40E94740591
:10037000DC01CB018DA39EA3AFA3B8A711E06DA1B3
:100380007EA18FA198A520E030E040E85FE30E94C5
:10039000CE0688230CF010E0112329F081E090E0D4
:1003A0009AA789A746C011E06DA17EA18FA198A54B
:1003B00020E03FEF4FE757E40E946E0618160CF05E
:1003C00010E0112361F169A17AA18BA19CA120E029
:1003D00030E040E251E40E947405DC01CB01BC0135
:1003E000CD010E94A003DC01CB019AA789A712C00E
:1003F00089E190E09CA78BA78BA59CA58C01C801E7
:100400000197F1F78C011CA70BA789A59AA5019765
:100410009AA789A789A59AA5009751F717C06DA13A
:100420007EA18FA198A50E94A003DC01CB019AA711
:1004300089A789A59AA59EA78DA78DA59EA58C01A4
:10044000F8013197F1F78F011EA70DA789819A81D5
:10045000880F991F9A8389838B819C8195958795B5
:100460009C838B8380916A0090916B008130910511
:10047000C9F580916E0090916F00009761F48981B9
:100480009A81880F991F9A8389838B819C81880F19
:10049000991F9C838B8380916E0090916F008130B7
:1004A000910561F489819A81959587959A838983CD
:1004B0008B819C81959587959C838B8389819A817B
:1004C000803C910531F481E090E090936F0080933F
:1004D0006E0089819A818330910521F410926F001A
:1004E00010926E0080916C0090916D0081309105AA
:1004F00001F589819A819C01220F331F89819A819C
:10050000880F892F881F990B9070822B932B9A83C9
:1005100089838B819C819C01220F331F8B819C815D
:10052000880F892F881F990B9070822B932B9C83A7
:100530008B8389E390E0FC018081882F90E08170BB
:1005400090700097F1F489E390E0FC018081882F9E
:1005500090E0827090700097A1F089E390E0FC0138
:100560008081882F90E084709070009751F08AEA23
:1005700090E09A83898385E590E09C838B830E9439
:10058000490089E390E0FC018081882F90E082702F
:100590009070009751F48CEC90E09A83898383E308
:1005A00090E09C838B830E94490089E390E0FC01EA
:1005B0008081882F90E084709070009741F41A82B7
:1005C00019828FEF90E09C838B830E94490089E31E
:1005D00090E0FC018081882F90E0887090700097F7
:1005E00051F48FE090E09A83898380EF90E09C83C0
:1005F0008B830E94490089E390E0FC018081882F71
:1006000090E081709070009791F489E390E0FC0194
:100610008081882F90E082709070009741F41A8258
:10062000198281E090E09C838B830E94490089E3DA
:1006300090E0FC018081882F90E08170907000979D
:10064000D1F489E390E0FC018081882F90E08470F0
:100650009070009781F481E090E09A83898380E82C
:1006600090E09C838B830E94490081E090E090930E
:1006700069008093680089E390E0FC018081882F05
:1006800090E081709070009781F489E390E0FC0124
:100690008081882F90E088709070009731F41A82E2
:1006A00019821C821B820E94490089E390E0FC01B0
:1006B0008081882F90E0847090700097D1F489E356
:1006C00090E0FC018081882F90E088709070009706
:1006D00081F483E090E09A83898383E090E09C83B7
:1006E0008B830E94490081E090E090936B0080939F
:1006F0006A0089E390E0FC018081882F90E082709D
:100700009070009709F0FFCC89E390E0FC018081B4
:10071000882F90E088709070009709F0F6CC81E007
:1007200090E09A83898381E090E09C838B830E9490
:10073000490081E090E090936D0080936C00E6CCDE
:10074000EF92FF920F931F937B018C0120E030E02A
:1007500040E05FE40E949E0687FD11C0C801B7011A
:1007600020E030E040E05FE40E9443050E94FE0686
:100770009B01AC01205030404040504806C0C801A9
:10078000B7010E94FE069B01AC01B901CA011F918D
:100790000F91FF90EF900895A0E0B0E0E2EDF3E05C
:1007A0000C94E408FC01EA018081823008F438C12D
:1007B000DB019C91923008F430C1843059F49430BC
:1007C00009F02EC1918111968C911197981709F01B
:1007D00021C126C1943009F420C19230B1F4823095
:1007E00009F01EC1CA01AF0128E0DA010D90AD0188
:1007F000DC010D92CD012150C1F7DB0111968C91E6
:1008000011979181892389830AC1823009F405C136
:10081000C280D380DB0112966D907C901397248167
:100820003581468157811496ED90FD900D911C9174
:100830001797C601861997095C0197FF04C0AA247F
:10084000BB24A81AB90AB0E2AB16B1040CF061C01F
:10085000181619066CF5370148010A2C04C0969445
:100860008794779467940A94D2F781E090E0A0E0AF
:10087000B0E00A2C04C0880F991FAA1FBB1F0A945E
:10088000D2F70197A109B1098E219F21A023B1239D
:10089000EE24FF248701E3940097A105B10519F424
:1008A000EE24FF248701E628F728082919293CC0EF
:1008B0000097D1F1CA0CDB1C39014A010A2C04C093
:1008C00096948794779467940A94D2F781E090E0A5
:1008D000A0E0B0E00A2C04C0880F991FAA1FBB1F1C
:1008E0000A94D2F70197A109B10982239323A42383
:1008F000B52321E030E040E050E00097A105B105CC
:1009000019F420E030E0A90126293729482959297E
:100910000BC06C147D0424F4EE24FF24870104C072
:10092000630120E030E0A9018181FB0191818917F9
:1009300009F445C0882349F0D801C701821B930BF5
:10094000A40BB50B9C01AD0104C02E193F09400B4F
:10095000510B57FD04C01982DB82CA820BC081E0B3
:100960008983DB82CA8250954095309521953F4F0F
:100970004F4F5F4F2C833D834E835F830DC0880FA5
:10098000991FAA1FBB1F8C839D83AE83BF838A815F
:100990009B8101979B838A838C819D81AE81BF81DE
:1009A0009C01AD0121503040404050402F3FEFEFBF
:1009B0003E07EFEF4E07EFE35E0708F30BC08983B6
:1009C000DB82CA822E0D3F1D401F511F2C833D83A9
:1009D0004E835F8383E088832C813D814E815F81DC
:1009E00057FF1DC0DA01C90181709070A070B0700E
:1009F0005695479537952795822B932BA42BB52B8E
:100A00008C839D83AE83BF838A819B8101969B8368
:100A10008A8305C0E0E6F0E003C0FB0101C0FE01EF
:100A2000CF01CDB7DEB7EEE00C940009A0E2B0E054
:100A3000ECE1F5E00C94EC0869837A838B839C836A
:100A40002D833E834F83588789E0E82EF12CEC0EEE
:100A5000FD1ECE010196B7010E941E088E010F5E99
:100A60001F4FCE010596B8010E941E08C701B801AC
:100A7000AE01475E5F4F0E94CC030E945007A096D4
:100A8000E6E00C940809A0E2B0E0E9E4F5E00C949B
:100A9000EC0869837A838B839C832D833E834F8309
:100AA00058878E01075F1F4FCE010196B8010E9443
:100AB0001E0891E1E92EF12CEC0EFD1ECE010596EB
:100AC000B7010E941E088A8991E089278A8BC80194
:100AD000B701AE01475E5F4F0E94CC030E945007F2
:100AE000A096E6E00C940809A0E2B0E0EAE7F5E0A1
:100AF0000C94E00869837A838B839C832D833E83E7
:100B00004F835887CE010196BE01675F7F4F0E94D9
:100B10001E08CE010596BE016F5E7F4F0E941E0823
:100B20009985923078F089898230C0F0943019F438
:100B3000823041F4CBC0843019F4923079F4C6C0CD
:100B4000923051F481E02A859A89291709F480E0CE
:100B50008A87CE010996BCC0823051F481E02A8593
:100B60009A89291709F480E08A8BCE014196B0C09A
:100B70006D847E848F849888ED88FE880F89188D17
:100B8000E0E2F0E080E090E0DC01AA24BB24650113
:100B900020E030E0A901B30161707070611571054A
:100BA000D1F02E0D3F1D401F511F15012601280EAB
:100BB000391E4A1E5B1E81E090E0A0E0B0E02E15D9
:100BC0003F054007510718F080E090E0DC01820DFE
:100BD000931DA41DB51DAA0CBB1CCC1CDD1C17FF4E
:100BE00009C061E0262E312C412C512CA228B328BB
:100BF000C428D528319749F0EE0CFF1C001F111FA7
:100C00009694879477946794C6CF6B897C89EB859B
:100C1000FC856E0F7F1F6E5F7F4F7C8F6B8F61E057
:100C2000EA857A89E71709F460E06A8F6B8D7C8D1D
:100C300010C0FC01E170F070309729F0569547958F
:100C4000379527955068B695A795979587956F5FC7
:100C50007F4FB7FDEECF0CC0880F991FAA1FBB1F97
:100C600057FD8160220F331F441F551F6150704094
:100C70008030E0E09E07E0E0AE07E0E4BE0760F30E
:100C80006B8F7C8F6FE7E62EF12C012D112DE82262
:100C9000F9220A231B2360E4E616F104010511057D
:100CA00061F487FD0AC0211531054105510529F080
:100CB000805C9F4FAF4FBF4F80788D8F9E8FAF8FDF
:100CC000B8A383E0898FCE01499602C080E690E008
:100CD0000E945007A096E2E10C94FC08A8E1B0E065
:100CE000E4E7F6E00C94EC0869837A838B839C83B9
:100CF0002D833E834F8358878E01075F1F4FCE01A0
:100D00000196B8010E941E0881E1E82EF12CEC0E3C
:100D1000FD1ECE010596B7010E941E08898582300E
:100D200040F08989823028F0C801B7010E94870805
:100D300001C08FEF6896E6E00C940809A8E1B0E0E6
:100D4000E4EAF6E00C94EC0869837A838B839C8355
:100D50002D833E834F8358878E01075F1F4FCE013F
:100D60000196B8010E941E0881E1E82EF12CEC0EDC
:100D7000FD1ECE010596B7010E941E0889858230AE
:100D800040F08989823028F0C801B7010E948708A5
:100D900001C08FEF6896E6E00C940809A8E1B0E086
:100DA000E4EDF6E00C94EC0869837A838B839C83F2
:100DB0002D833E834F8358878E01075F1F4FCE01DF
:100DC0000196B8010E941E0881E1E82EF12CEC0E7C
:100DD000FD1ECE010596B7010E941E08898582304E
:100DE00040F08989823028F0C801B7010E94870845
:100DF00001C081E06896E6E00C940809ACE0B0E040
:100E0000E4E0F7E00C94F00869837A838B839C8399
:100E1000CE010196BE016B5F7F4F0E941E088D813F
:100E2000823081F1823070F1843021F48E81882308
:100E300069F10AC02F81388537FD24C06E812F31BA
:100E400031053CF0662311F120E030E040E050E84D
:100E500021C08EE190E0821B930B29853A854B855A
:100E60005C8504C056954795379527958A95D2F7A6
:100E7000662381F050954095309521953F4F4F4F17
:100E80005F4F08C020E030E0A90104C02FEF3FEF22
:100E90004FEF5FE7B901CA012C96E2E00C940C0910
:100EA000EF92FF920F931F93CF93DF93FC01248166
:100EB00035814681578161818081823020F4406193
:100EC000EFEFF0E0A3C0843009F49BC0823009F456
:100ED00092C0211531054105510509F48FC00280EA
:100EE000F381E02D8FEFE238F8070CF05AC0C2E82A
:100EF000DFEFCE1BDF0BCA31D1056CF579018A011A
:100F00000C2E04C016950795F794E7940A94D2F72F
:100F100081E090E0A0E0B0E00C2E04C0880F991FA3
:100F2000AA1FBB1F0A94D2F70197A109B109822316
:100F30009323A423B52321E030E040E050E0009764
:100F4000A105B10519F420E030E0A9012E293F29BF
:100F5000402B512B03C020E030E0A901DA01C90188
:100F60008F779070A070B07080349105A105B105A5
:100F700039F427FF09C0205C3F4F4F4F5F4F04C03B
:100F8000215C3F4F4F4F5F4FE1E0F0E0203080E0C9
:100F9000380780E0480780E4580728F5E0E0F0E0F3
:100FA00022C0E038F1056CF5E158FF4FDA01C901C4
:100FB0008F779070A070B07080349105A105B10555
:100FC00039F427FF09C0205C3F4F4F4F5F4F04C0EB
:100FD000215C3F4F4F4F5F4F57FF05C056954795D8
:100FE00037952795319687E05695479537952795FC
:100FF0008A95D1F70BC0E0E0F0E005C0E0E0F0E05A
:1010000005C0EFEFF0E020E030E0A9018E2F8795DA
:1010100088278795942F9F77679566276795E6952C
:10102000E22EA92FA82BFE2FF62B622F732F8A2FCB
:101030009F2FCDB7DEB7E6E00C940809DC01FB0179
:101040002C9111963C91119712968C911297482FE2
:101050004F7750E0982F991F9927991F13966C91FD
:101060001397862F880F892B90E0661F6627661FCF
:101070006183009739F5211531054105510511F4BA
:1010800082E029C082E89FEF9383828367E0220F8A
:10109000331F441F551F6A95D1F783E0808309C031
:1010A000220F331F441F551F828193810197938321
:1010B0008283203080E0380780E0480780E45807CA
:1010C00078F320C08F3F910579F421153105410552
:1010D000510519F484E08083089544FF03C081E042
:1010E000808310C010820EC08F57904093838283FC
:1010F00083E0808387E0220F331F441F551F8A95AA
:10110000D1F7506424833583468357830895FC01C7
:10111000DB019081923008F449C08C91823008F450
:1011200045C0943051F461818430B1F511962C9111
:10113000119730E0261B310941C0843021F09230F4
:1011400041F48230B1F111968C9111978823A1F16D
:101150002DC06181823001F111968C911197681731
:10116000D9F42281338112968D919C911397821725
:10117000930794F028173907BCF024813581468104
:10118000578114968D919D910D90BC91A02D821741
:101190009307A407B50718F4662341F00DC028177C
:1011A00039074A075B0728F4662331F021E030E075
:1011B00005C020E030E002C02FEF3FEFC9010895E5
:1011C0002F923F924F925F926F927F928F929F9257
:1011D000AF92BF92CF92DF92EF92FF920F931F9345
:1011E000CF93DF93CDB7DEB7CA1BDB0B0FB6F894F6
:1011F000DEBF0FBECDBF09942A88398848885F8436
:101200006E847D848C849B84AA84B984C884DF80A6
:10121000EE80FD800C811B81AA81B981CE0FD11D8A
:101220000FB6F894DEBF0FBECDBFED010895F89460
:02123000FFCFEE
:081232000000000000000000B4
:00000001FF
