:1000000005C100001AC1000018C1000016C100009F
:1000100014C1000012C1000010C100000EC1000098
:100020000CC100000AC1000008C1000006C10000A8
:1000300004C1000002C1000000C10000FEC00000B9
:10004000FCC00000FAC00000F8C00000F6C00000CC
:10005000F4C00000F2C00000F0C00000EEC00000DC
:10006000ECC00000EAC00000E8C00000E6C00000EC
:10007000E4C00000E2C00000E0C00000DEC00000FC
:10008000DCC00000DAC00000D8C00000D6C000000C
:10009000D4C00000D2C00000D0C00000CEC000001C
:1000A000CCC00000CAC00000C8C00000C6C000002C
:1000B000C4C00000C2C00000C0C00000BEC000003C
:1000C000BCC00000BAC00000B8C00000B6C000004C
:1000D000B4C00000B2C00000B0C00000AEC000005C
:1000E000ACC00000AAC00000A8C00000A6C000006C
:1000F000A4C00000A2C00000A0C000009EC000007C
:100100009CC000009AC0000098C0000096C000008B
:1001100094C0000092C0000090C000008EC000009B
:100120008CC000008AC0000088C0000086C00000AB
:1001300084C0000082C0000080C000007EC00000BB
:100140007CC000007AC0000078C0000076C00000CB
:1001500074C0000072C0000070C000006EC00000DB
:100160006CC000006AC0000068C0000066C00000EB
:1001700064C0000062C0000060C000005EC00000FB
:100180005CC000005AC0000058C0000056C000000B
:1001900054C0000052C0000050C000004EC000001B
:1001A0004CC000004AC0000048C0000046C000002B
:1001B00044C0000042C0000040C000003EC000003B
:1001C0003CC000003AC0000038C0000036C000004B
:1001D00034C0000032C0000030C000002EC000005B
:1001E0002CC000002AC0000028C0000026C000006B
:1001F00024C0000022C0000020C000007A207061EE
:100200006D6965636920666C6173680011241FBEA7
:10021000CFEFDFE3DEBFCDBF00E00CBF10E2A0E018
:10022000B0E2E8EDF3E000E00BBF02C007900D92F2
:10023000A630B107D9F7C1D0CDC0E2CE80FF05C04E
:1002400090E1E0E4F6E0958304C090E1E0E4F6E0BC
:10025000968381FF05C090E2E0E4F6E0958304C058
:1002600090E2E0E4F6E0968382FF05C090E4E0E4EB
:10027000F6E0958304C090E4E0E4F6E0968383FF23
:1002800005C080E8E0E4F6E08583089580E8E0E4D6
:10029000F6E0868308950F931F93CF93DF93082F83
:1002A000C0E4D6E018E01D8382958F70C7DF1E83FF
:1002B000000000001D83802FC1DF1E8381E28A952C
:1002C000F1F70000DF91CF911F910F91089594E015
:1002D000E0E4F6E09683DFCF94E0E0E4F6E0958397
:1002E000DACFCF93DF93EC018881882329F0219620
:1002F000F3DF89918111FCCFDF91CF910895CF93E6
:10030000DF93EC012196FC018491882331F0E4DF36
:10031000FE01219684918111FACFDF91CF9108954A
:1003200090E4699F800D11248068D1CFFF920F93D4
:100330001F93CF93DF93E0E4F6E08CEF81838BE4AF
:100340009DE10197F1F700C0000084E0868388E01A
:10035000868313E0C0E4D6E008E0F02EFD8283E05F
:100360006DDF0E8383EC99E00197F1F700C0000088
:100370001150A1F7C0E4D6E018E01D8382E05EDFF3
:100380001E8383EF91E00197F1F700C0000088E23F
:100390009EDF88E09CDF81E09ADF87EE93E00197A3
:1003A000F1F700C0000086E092DF8CE090DFDF9183
:1003B000CF911F910F91FF900895B8DF80E090E2F8
:1003C00090DF61E080E0ACDF8CEF91E098DF80E0CF
:0803D00090E00895F894FFCFBE
:0603D8007465737420003F
:00000001FF
