:100000000C942A000C943F000C943F000C943F0089
:100010000C943F000C943F000C943F000C943F0064
:100020000C943F000C943F000C943F000C943F0054
:100030000C943F000C943F000C943F000C943F0044
:100040000C943F000C943F000C943F000C943F0034
:100050000C943F0011241FBECFE5D8E0DEBFCDBF1A
:1000600011E0A0E6B0E0E8E0F5E202C005900D92F4
:10007000A836B107D9F70E9441000C9482120C9463
:1000800000000F931F93DF93CF93CDB7DEB7CE5C05
:10009000D0400FB6F894DEBF0FBECDBF87E390E02F
:1000A0002FEFFC0120838AE390E02FEFFC012083F7
:1000B0001A8219821C821B821E821D8218861F8250
:1000C00083E090E09C878B8781E090E09E878D871E
:1000D0000BE310E089819A810E944C0BF801808328
:1000E0008B859C85AA2797FDA095BA2FBC01CD01D1
:1000F0000E94AF0FDC01CB018F87988BA98BBA8B45
:100100006F85788989899A892BEA3AEA4AEA50E424
:100110000E94770DDC01CB018B8B9C8BAD8BBE8B52
:1001200011E06B897C898D899E8920E030E040E870
:100130005FE30E947F0F88230CF010E0112319F079
:1001400081E08F8BA3C011E06B897C898D899E89AA
:1001500020E030E04FE753E40E941F0F18160CF028
:1001600010E0112309F489C06F85788989899A89FB
:1001700020E030E04AE754E40E94710EDC01CB013C
:10018000888F998FAA8FBB8F688D798D8A8D9B8D73
:1001900020E030E04AE755E40E94770DDC01CB0116
:1001A0008C8F9D8FAE8FBF8F11E06C8D7D8D8E8D6E
:1001B0009F8D20E030E040E85FE30E947F0F8823BE
:1001C0000CF010E0112329F081E090E099A388A3BE
:1001D00046C011E06C8D7D8D8E8D9F8D20E03FEFB0
:1001E0004FE757E40E941F0F18160CF010E0112380
:1001F00061F1688D798D8A8D9B8D20E030E040E241
:1002000051E40E94770DDC01CB01BC01CD010E94BD
:10021000A30BDC01CB0199A388A312C080E991E074
:100220009BA38AA38AA19BA18C01C8010197F1F726
:100230008C011BA30AA388A199A1019799A388A364
:1002400088A199A1009751F728C06C8D7D8D8E8D66
:100250009F8D0E94A30BDC01CB0199A388A388A1E9
:1002600099A19DA38CA38CA19DA18C01F80131972C
:10027000F1F78F011DA30CA310C06B897C898D89B8
:100280009E890E94A30BDC01CB018F8B8F898EA3EB
:100290008EA1182F1A95F1F71EA31A86198601C090
:1002A000000089859A8501969A87898789859A852C
:1002B0008A30910539F489819A8101969A838983DC
:1002C0001A86198688E390E02EEFFC0120830BE369
:1002D00010E089819A810E944C0BF80180838B8504
:1002E0009C85AA2797FDA095BA2FBC01CD010E943D
:1002F000AF0FDC01CB018FA398A7A9A7BAA76FA165
:1003000078A589A59AA52BEA3AEA4AEA50E40E9420
:10031000770DDC01CB018BA79CA7ADA7BEA711E091
:100320006BA57CA58DA59EA520E030E040E85FE3AD
:100330000E947F0F88230CF010E0112319F081E058
:100340008FA7A3C011E06BA57CA58DA59EA520E07D
:1003500030E04FE753E40E941F0F18160CF010E036
:10036000112309F489C06FA178A589A59AA520E079
:1003700030E04AE754E40E94710EDC01CB0188AB07
:1003800099ABAAABBBAB68A979A98AA99BA920E0C4
:1003900030E04AE755E40E94770DDC01CB018CABDD
:1003A0009DABAEABBFAB11E06CA97DA98EA99FA997
:1003B00020E030E040E85FE30E947F0F88230CF0EC
:1003C00010E0112329F081E090E099AF88AF46C09A
:1003D00011E06CA97DA98EA99FA920E03FEF4FE70E
:1003E00057E40E941F0F18160CF010E0112361F162
:1003F00068A979A98AA99BA920E030E040E251E4EC
:100400000E94770DDC01CB01BC01CD010E94A30B42
:10041000DC01CB0199AF88AF12C080E991E09BAFBE
:100420008AAF8AAD9BAD8C01C8010197F1F78C01B1
:100430001BAF0AAF88AD99AD019799AF88AF88AD72
:1004400099AD009751F728C06CA97DA98EA99FA9E5
:100450000E94A30BDC01CB0199AF88AF88AD99ADA9
:100460009DAF8CAF8CAD9DAD8C01F8013197F1F74C
:100470008F011DAF0CAF10C06BA57CA58DA59EA5EF
:100480000E94A30BDC01CB018FA78FA58EAF8EAD91
:10049000182F1A95F1F71EAF8B819C81009749F4B4
:1004A0008D819E81009729F48F819885009709F4AA
:1004B00079C188E390E02DEFFC0120838BE390E08D
:1004C0002FEFFC0120838D859E85AA2797FDA0959F
:1004D000BA2FBC01CD010E94AF0FDC01CB019E0100
:1004E000215C3F4FF90180839183A283B3838E0106
:1004F0000D5B1F4FCE01CF96FC016081718182811F
:1005000093812BEA3AEA4AEA50E40E94770DDC0133
:10051000CB01F80180839183A283B383CE018D5BED
:100520009F4F11E0FC01608171818281938120E005
:1005300030E040E85FE30E947F0F88230CF010E07A
:10054000112339F0CE01895B9F4F21E0FC0120830C
:1005500004C1CE018D5B9F4F11E0FC016081718170
:100560008281938120E030E04FE753E40E941F0F27
:1005700018160CF010E0112309F4DEC0CE01CF965E
:10058000FC01608171818281938120E030E04AE743
:1005900054E40E94710EDC01CB019E01285B3F4FA9
:1005A000F90180839183A283B3838E01045B1F4F83
:1005B000CE01885B9F4FFC016081718182819381B4
:1005C00020E030E04AE755E40E94770DDC01CB01E2
:1005D000F80180839183A283B383CE01845B9F4F14
:1005E00011E0FC01608171818281938120E030E023
:1005F00040E85FE30E947F0F88230CF010E0112396
:1006000049F0CE01805B9F4F21E030E0FC01318357
:10061000208374C0CE01845B9F4F11E0FC01608198
:1006200071818281938120E03FEF4FE757E40E9480
:100630001F0F18160CF010E0112309F44DC0CE0165
:10064000885B9F4FFC01608171818281938120E0F2
:1006500030E040E251E40E94770DDC01CB018E01D5
:10066000005B1F4FBC01CD010E94A30BDC01CB013D
:10067000F8019183808327C0CE018E5A9F4F20E9D5
:1006800031E0FC0131832083CE018E5A9F4FFC0163
:10069000808191818C01C8010197F1F78C01CE0115
:1006A0008E5A9F4FFC0111830083CE01805B9F4FC8
:1006B0009E01205B3F4FF901208131812150304064
:1006C000FC0131832083CE01805B9F4FFC01808140
:1006D0009181009789F658C08E01005B1F4FCE01B3
:1006E000845B9F4FFC0160817181828193810E94B4
:1006F000A30BDC01CB01F80191838083CE018C5ADE
:100700009F4F9E01205B3F4FF90120813181FC0109
:1007100031832083CE018C5A9F4FFC0180819181CF
:100720008C01C8010197F1F78C01CE018C5A9F4FC3
:10073000FC011183008328C08E01095B1F4FCE018D
:100740008D5B9F4FFC0160817181828193810E944A
:10075000A30BDC01CB01F8018083CE018A5A9F4FA5
:100760009E01295B3F4FF9012081FC012083CE01CE
:100770008A5A9F4FFC018081182F1A95F1F7CE01FC
:100780008A5A9F4FFC01108388E390E02DEFFC0113
:1007900020830BE310E08B819C810E944C0BF801BD
:1007A00080830AC08BE390E02FEFFC01208388E375
:1007B00090E02FEFFC0120838B859C85AA2797FD75
:1007C000A095BA2FBC01CD010E94AF0FDC01CB0177
:1007D0009E01295A3F4FF90180839183A283B383FD
:1007E0008E01055A1F4FCE01895A9F4FFC0160812F
:1007F0007181828193812BEA3AEA4AEA50E40E94AD
:10080000770DDC01CB01F80180839183A283B38350
:10081000CE01855A9F4F11E0FC0160817181828178
:10082000938120E030E040E85FE30E947F0F88235F
:100830000CF010E0112339F0CE01815A9F4F21E0D6
:10084000FC01208305C1CE01855A9F4F11E0FC01B8
:10085000608171818281938120E030E04FE753E431
:100860000E941F0F18160CF010E0112309F4DFC0CE
:10087000CE01895A9F4FFC016081718182819381F1
:1008800020E030E04AE754E40E94710EDC01CB0125
:100890009E01205A3F4FF90180839183A283B38345
:1008A0008E010C591F4FCE01805A9F4FFC01608171
:1008B00071818281938120E030E04AE755E40E9413
:1008C000770DDC01CB01F80180839183A283B38390
:1008D000CE018C599F4F11E0FC01608171818281B2
:1008E000938120E030E040E85FE30E947F0F88239F
:1008F0000CF010E0112349F0CE0188599F4F21E000
:1009000030E0FC013183208374C0CE018C599F4FAD
:1009100011E0FC01608171818281938120E03FEFD1
:100920004FE757E40E941F0F18160CF010E0112338
:1009300009F44DC0CE01805A9F4FFC016081718146
:100940008281938120E030E040E251E40E94770D03
:10095000DC01CB018E0108591F4FBC01CD010E9463
:10096000A30BDC01CB01F8019183808327C0CE016A
:1009700086599F4F20E931E0FC0131832083CE016D
:1009800086599F4FFC01808191818C01C80101979C
:10099000F1F78C01CE0186599F4FFC011183008332
:1009A000CE0188599F4F9E0128593F4FF901208160
:1009B000318121503040FC0131832083CE018859A0
:1009C0009F4FFC0180819181009789F658C08E016C
:1009D00008591F4FCE018C599F4FFC0160817181D6
:1009E000828193810E94A30BDC01CB01F8019183EA
:1009F0008083CE0184599F4F9E0128593F4FF901B2
:100A000020813181FC0131832083CE0184599F4FA5
:100A1000FC01808191818C01C8010197F1F78C0163
:100A2000CE0184599F4FFC011183008328C08E01A1
:100A3000015A1F4FCE01855A9F4FFC016081718181
:100A4000828193810E94A30BDC01CB01F80180839A
:100A5000CE0182599F4F9E01215A3F4FF9012081BB
:100A6000FC012083CE0182599F4FFC018081182F09
:100A70001A95F1F7CE0182599F4FFC0110838D81A9
:100A80009E81009729F48F819885009709F47BC196
:100A900088E390E02BEFFC0120838BE390E02FEFC5
:100AA000FC0120838D859E85AA2797FDA095BA2FEE
:100AB000BC01CD010E94AF0FDC01CB019E01215989
:100AC0003F4FF90180839183A283B3838E010D5838
:100AD0001F4FCE0181599F4FFC016081718182813E
:100AE00093812BEA3AEA4AEA50E40E94770DDC014E
:100AF000CB01F80180839183A283B383CE018D580B
:100B00009F4F11E0FC01608171818281938120E01F
:100B100030E040E85FE30E947F0F88230CF010E094
:100B2000112339F0CE0189589F4F21E0FC01208329
:100B300005C1CE018D589F4F11E0FC01608171818C
:100B40008281938120E030E04FE753E40E941F0F41
:100B500018160CF010E0112309F4DFC0CE01815902
:100B60009F4FFC01608171818281938120E030E0A0
:100B70004AE754E40E94710EDC01CB019E01285823
:100B80003F4FF90180839183A283B3838E01045880
:100B90001F4FCE0188589F4FFC0160817181828177
:100BA000938120E030E04AE755E40E94770DDC01B4
:100BB000CB01F80180839183A283B383CE01845853
:100BC0009F4F11E0FC01608171818281938120E05F
:100BD00030E040E85FE30E947F0F88230CF010E0D4
:100BE000112349F0CE0180589F4F21E030E0FC01F5
:100BF0003183208374C0CE0184589F4F11E0FC01E3
:100C0000608171818281938120E03FEF4FE757E45B
:100C10000E941F0F18160CF010E0112309F44DC0AC
:100C2000CE0188589F4FFC01608171818281938140
:100C300020E030E040E251E40E94770DDC01CB017E
:100C40008E0100581F4FBC01CD010E94A30BDC0197
:100C5000CB01F8019183808327C0CE018E579F4F2F
:100C600020E931E0FC0131832083CE018E579F4F74
:100C7000FC01808191818C01C8010197F1F78C0101
:100C8000CE018E579F4FFC0111830083CE01805807
:100C90009F4F9E0120583F4FF90120813181215003
:100CA0003040FC0131832083CE0180589F4FFC01EE
:100CB00080819181009789F658C08E0100581F4F9E
:100CC000CE0184589F4FFC016081718182819381A4
:100CD0000E94A30BDC01CB01F80191838083CE013C
:100CE0008C579F4F9E0120583F4FF9012081318141
:100CF000FC0131832083CE018C579F4FFC01808102
:100D000091818C01C8010197F1F78C01CE018C57BC
:100D10009F4FFC011183008328C08E0109581F4F8B
:100D2000CE018D589F4FFC0160817181828193813A
:100D30000E94A30BDC01CB01F8018083CE018A570E
:100D40009F4F9E0129583F4FF9012081FC012083CC
:100D5000CE018A579F4FFC018081182F1A95F1F719
:100D6000CE018A579F4FFC01108388E390E02BEF60
:100D7000FC0120830BE310E08D819E810E944C0BCF
:100D8000F80180830AC08BE390E02FEFFC01208301
:100D900088E390E02FEFFC0120838B859C85AA27B8
:100DA00097FDA095BA2FBC01CD010E94AF0FDC01C9
:100DB000CB019E0129573F4FF90180839183A28384
:100DC000B3838E0105571F4FCE0189579F4FFC01FA
:100DD00060817181828193812BEA3AEA4AEA50E488
:100DE0000E94770DDC01CB01F80180839183A283FF
:100DF000B383CE0185579F4F11E0FC016081718163
:100E00008281938120E030E040E85FE30E947F0F21
:100E100088230CF010E0112339F0CE0181579F4F49
:100E200021E0FC01208305C1CE0185579F4F11E0D1
:100E3000FC01608171818281938120E030E04FE785
:100E400053E40E941F0F18160CF010E0112309F450
:100E5000DFC0CE0189579F4FFC0160817181828183
:100E6000938120E030E04AE754E40E94710EDC01F7
:100E7000CB019E0120573F4FF90180839183A283CC
:100E8000B3838E010C561F4FCE0180579F4FFC013C
:100E9000608171818281938120E030E04AE755E4EE
:100EA0000E94770DDC01CB01F80180839183A2833E
:100EB000B383CE018C569F4F11E0FC01608171819C
:100EC0008281938120E030E040E85FE30E947F0F61
:100ED00088230CF010E0112349F0CE0188569F4F73
:100EE00021E030E0FC013183208374C0CE018C56B8
:100EF0009F4F11E0FC01608171818281938120E02C
:100F00003FEF4FE757E40E941F0F18160CF010E058
:100F1000112309F44DC0CE0180579F4FFC01608121
:100F200071818281938120E030E040E251E40E94AF
:100F3000770DDC01CB018E0108561F4FBC01CD019E
:100F40000E94A30BDC01CB01F8019183808327C0B1
:100F5000CE0186569F4F20E931E0FC01318320838A
:100F6000CE0186569F4FFC01808191818C01C80182
:100F70000197F1F78C01CE0186569F4FFC0111833A
:100F80000083CE0188569F4F9E0128563F4FF9019E
:100F90002081318121503040FC0131832083CE01FA
:100FA00088569F4FFC0180819181009789F658C037
:100FB0008E0108561F4FCE018C569F4FFC01608159
:100FC0007181828193810E94A30BDC01CB01F80126
:100FD00091838083CE0184569F4F9E0128563F4FB8
:100FE000F90120813181FC0131832083CE018456B7
:100FF0009F4FFC01808191818C01C8010197F1F71D
:101000008C01CE0184569F4FFC011183008328C0C0
:101010008E0101571F4FCE0185579F4FFC01608104
:101020007181828193810E94A30BDC01CB01F801C5
:101030008083CE0182569F4F9E0121573F4FF90179
:101040002081FC012083CE0182569F4FFC018081CC
:10105000182F1A95F1F7CE0182569F4FFC0110838D
:101060008F819885009709F47BC188E390E027EF92
:10107000FC0120838BE390E02FEFFC0120838D8522
:101080009E85AA2797FDA095BA2FBC01CD010E948D
:10109000AF0FDC01CB019E0121563F4FF901808348
:1010A0009183A283B3838E010D551F4FCE018156CC
:1010B0009F4FFC0160817181828193812BEA3AEA22
:1010C0004AEA50E40E94770DDC01CB01F8018083ED
:1010D0009183A283B383CE018D559F4F11E0FC0114
:1010E000608171818281938120E030E040E85FE39C
:1010F0000E947F0F88230CF010E0112339F0CE01FD
:1011000089559F4F21E0FC01208305C1CE018D55FB
:101110009F4F11E0FC01608171818281938120E009
:1011200030E04FE753E40E941F0F18160CF010E058
:10113000112309F4DFC0CE0181569F4FFC0160816D
:1011400071818281938120E030E04AE754E40E947B
:10115000710EDC01CB019E0128553F4FF9018083C0
:101160009183A283B3838E0104551F4FCE0188550E
:101170009F4FFC01608171818281938120E030E08A
:101180004AE755E40E94770DDC01CB01F80180832A
:101190009183A283B383CE0184559F4F11E0FC015C
:1011A000608171818281938120E030E040E85FE3DB
:1011B0000E947F0F88230CF010E0112349F0CE012C
:1011C00080559F4F21E030E0FC013183208374C0C3
:1011D000CE0184559F4F11E0FC01608171818281B5
:1011E000938120E03FEF4FE757E40E941F0F18164E
:1011F0000CF010E0112309F44DC0CE0188559F4F2B
:10120000FC01608171818281938120E030E040E2C5
:1012100051E40E94770DDC01CB018E0100551F4F78
:10122000BC01CD010E94A30BDC01CB01F80191832D
:10123000808327C0CE018E549F4F20E931E0FC010E
:1012400031832083CE018E549F4FFC018081918198
:101250008C01C8010197F1F78C01CE018E549F4F8C
:10126000FC0111830083CE0180559F4F9E012055C4
:101270003F4FF9012081318121503040FC01318301
:101280002083CE0180559F4FFC0180819181009782
:1012900089F658C08E0100551F4FCE0184559F4FCF
:1012A000FC0160817181828193810E94A30BDC012A
:1012B000CB01F80191838083CE018C549F4F9E0116
:1012C00020553F4FF90120813181FC01318320837A
:1012D000CE018C549F4FFC01808191818C01C8010B
:1012E0000197F1F78C01CE018C549F4FFC011183C3
:1012F000008328C08E0109551F4FCE018D559F4F89
:10130000FC0160817181828193810E94A30BDC01C9
:10131000CB01F8018083CE018A549F4F9E0129554D
:101320003F4FF9012081FC012083CE018A549F4F59
:10133000FC018081182F1A95F1F7CE018A549F4F36
:10134000FC01108388E390E027EFFC0120830BE38E
:1013500010E08F8198850E944C0BF80180830AC0B1
:101360008BE390E02FEFFC01208388E390E02FEFE8
:10137000FC0120838B859C85AA2797FDA095BA2F19
:10138000BC01CD010E94AF0FDC01CB019E012954AD
:101390003F4FF90180839183A283B3838E0105546B
:1013A0001F4FCE0189549F4FFC0160817181828162
:1013B00093812BEA3AEA4AEA50E40E94770DDC0175
:1013C000CB01F80180839183A283B383CE0185543E
:1013D0009F4F11E0FC01608171818281938120E047
:1013E00030E040E85FE30E947F0F88230CF010E0BC
:1013F000112339F0CE0181549F4F21E0FC0120835D
:1014000005C1CE0185549F4F11E0FC0160817181BF
:101410008281938120E030E04FE753E40E941F0F68
:1014200018160CF010E0112309F4DFC0CE01895426
:101430009F4FFC01608171818281938120E030E0C7
:101440004AE754E40E94710EDC01CB019E01205456
:101450003F4FF90180839183A283B3838E010C53A4
:101460001F4FCE0180549F4FFC01608171818281AA
:10147000938120E030E04AE755E40E94770DDC01DB
:10148000CB01F80180839183A283B383CE018C5377
:101490009F4F11E0FC01608171818281938120E086
:1014A00030E040E85FE30E947F0F88230CF010E0FB
:1014B000112349F0CE0188539F4F21E030E0FC0119
:1014C0003183208374C0CE018C539F4F11E0FC0107
:1014D000608171818281938120E03FEF4FE757E483
:1014E0000E941F0F18160CF010E0112309F44DC0D4
:1014F000CE0180549F4FFC01608171818281938174
:1015000020E030E040E251E40E94770DDC01CB01A5
:101510008E0108531F4FBC01CD010E94A30BDC01BB
:10152000CB01F8019183808327C0CE0186539F4F62
:1015300020E931E0FC0131832083CE0186539F4FA7
:10154000FC01808191818C01C8010197F1F78C0128
:10155000CE0186539F4FFC0111830083CE01885337
:101560009F4F9E0128533F4FF90120813181215027
:101570003040FC0131832083CE0188539F4FFC0112
:1015800080819181009789F658C08E0108531F4FC2
:10159000CE018C539F4FFC016081718182819381C8
:1015A0000E94A30BDC01CB01F80191838083CE0163
:1015B00084539F4F9E0128533F4FF9012081318171
:1015C000FC0131832083CE0184539F4FFC01808135
:1015D00091818C01C8010197F1F78C01CE018453F0
:1015E0009F4FFC011183008328C08E0101541F4FBF
:1015F000CE0185549F4FFC0160817181828193816E
:101600000E94A30BDC01CB01F8018083CE01825341
:101610009F4F9E0121543F4FF9012081FC012083FF
:10162000CE0182539F4FFC018081182F1A95F1F74C
:10163000CE0182539F4FFC01108389819A818A30A9
:10164000910539F41A8219828B819C8101969C83C1
:101650008B838B819C818A30910539F41C821B829B
:101660008D819E8101969E838D838D819E818A309E
:10167000910539F41E821D828F8198850196988785
:101680008F838F8198858A30910511F00C945001D9
:1016900018861F820C945101DF93CF9300D0CDB7F1
:1016A000DEB79A83898389819A818430910599F183
:1016B0008530910584F48130910521F182309105C6
:1016C0001CF40097E1F039C082309105F1F08330CD
:1016D0009105F1F032C08730910531F188309105E4
:1016E0003CF485309105D1F086309105D1F025C0CC
:1016F00088309105E1F089309105E1F01EC080EC61
:1017000090E01CC089EF90E019C084EA90E016C018
:1017100080EB90E013C089E990E010C082E990E08E
:101720000DC082E890E00AC088EF90E007C080E832
:1017300090E004C080E990E001C000C00F900F90DD
:10174000CF91DF910895EF92FF920F931F937B014A
:101750008C0120E030E040E05FE40E944F0F87FD05
:1017600011C0C801B70120E030E040E05FE40E9412
:10177000460D0E940F109B01AC01205030404040AC
:10178000504806C0C801B7010E940F109B01AC0170
:10179000B901CA011F910F91FF90EF900895A0E049
:1017A000B0E0E5EDFBE00C944F12FC01EA01808112
:1017B000823008F438C1DB019C91923008F430C1CA
:1017C000843059F4943009F02EC1918111968C9196
:1017D0001197981709F021C126C1943009F420C14E
:1017E0009230B1F4823009F01EC1CA01AF0128E085
:1017F000DA010D90AD01DC010D92CD012150C1F750
:10180000DB0111968C9111979181892389830AC1FB
:10181000823009F405C1C280D380DB0112966D903D
:101820007C90139724813581468157811496ED90E1
:10183000FD900D911C911797C601861997095C01BF
:1018400097FF04C0AA24BB24A81AB90AB0E2AB16B9
:10185000B1040CF061C0181619066CF53701480187
:101860000A2C04C096948794779467940A94D2F7CC
:1018700081E090E0A0E0B0E00A2C04C0880F991F3E
:10188000AA1FBB1F0A94D2F70197A109B1098E21A3
:101890009F21A023B123EE24FF248701E394009726
:1018A000A105B10519F4EE24FF248701E628F728E5
:1018B000082919293CC00097D1F1CA0CDB1C390159
:1018C0004A010A2C04C096948794779467940A94EA
:1018D000D2F781E090E0A0E0B0E00A2C04C0880FCD
:1018E000991FAA1FBB1F0A94D2F70197A109B1093A
:1018F00082239323A423B52321E030E040E050E08D
:101900000097A105B10519F420E030E0A9012629CE
:101910003729482959290BC06C147D0424F4EE247E
:10192000FF24870104C0630120E030E0A901818128
:10193000FB019181891709F445C0882349F0D8013A
:10194000C701821B930BA40BB50B9C01AD0104C016
:101950002E193F09400B510B57FD04C01982DB8241
:10196000CA820BC081E08983DB82CA825095409590
:10197000309521953F4F4F4F5F4F2C833D834E83D2
:101980005F830DC0880F991FAA1FBB1F8C839D8387
:10199000AE83BF838A819B8101979B838A838C81DD
:1019A0009D81AE81BF819C01AD01215030404040FE
:1019B00050402F3FEFEF3E07EFEF4E07EFE35E079C
:1019C00008F30BC08983DB82CA822E0D3F1D401FA6
:1019D000511F2C833D834E835F8383E088832C815A
:1019E0003D814E815F8157FF1DC0DA01C9018170C1
:1019F0009070A070B0705695479537952795822BBB
:101A0000932BA42BB52B8C839D83AE83BF838A81BC
:101A10009B8101969B838A8305C0E0E6F0E003C0CA
:101A2000FB0101C0FE01CF01CDB7DEB7EEE00C94A3
:101A30006B12A0E2B0E0EFE1FDE00C945712698375
:101A40007A838B839C832D833E834F83588789E0E1
:101A5000E82EF12CEC0EFD1ECE010196B7010E947E
:101A600089118E010F5E1F4FCE010596B8010E94AD
:101A70008911C701B801AE01475E5F4F0E94CF0BCD
:101A80000E94BB10A096E6E00C947312A0E2B0E0B6
:101A9000ECE4FDE00C94571269837A838B839C837A
:101AA0002D833E834F8358878E01075F1F4FCE01E2
:101AB0000196B8010E94891191E1E92EF12CEC0EFA
:101AC000FD1ECE010596B7010E9489118A8991E019
:101AD00089278A8BC801B701AE01475E5F4F0E941C
:101AE000CF0B0E94BB10A096E6E00C947312A0E20C
:101AF000B0E0EDE7FDE00C944B1269837A838B83B1
:101B00009C832D833E834F835887CE010196BE016F
:101B1000675F7F4F0E948911CE010596BE016F5EFF
:101B20007F4F0E9489119985923078F0898982309F
:101B3000C0F0943019F4823041F4CBC0843019F4F1
:101B4000923079F4C6C0923051F481E02A859A89A6
:101B5000291709F480E08A87CE010996BCC082303B
:101B600051F481E02A859A89291709F480E08A8B4B
:101B7000CE014196B0C06D847E848F849888ED88B4
:101B8000FE880F89188DE0E2F0E080E090E0DC0153
:101B9000AA24BB24650120E030E0A901B3016170F3
:101BA000707061157105D1F02E0D3F1D401F511F42
:101BB00015012601280E391E4A1E5B1E81E090E0A9
:101BC000A0E0B0E02E153F054007510718F080E077
:101BD00090E0DC01820D931DA41DB51DAA0CBB1C59
:101BE000CC1CDD1C17FF09C061E0262E312C412CD6
:101BF000512CA228B328C428D528319749F0EE0CDF
:101C0000FF1C001F111F9694879477946794C6CF8A
:101C10006B897C89EB85FC856E0F7F1F6E5F7F4F24
:101C20007C8F6B8F61E0EA857A89E71709F460E0C1
:101C30006A8F6B8D7C8D10C0FC01E170F070309765
:101C400029F056954795379527955068B695A795ED
:101C5000979587956F5F7F4FB7FDEECF0CC0880FCC
:101C6000991FAA1FBB1F57FD8160220F331F441FFE
:101C7000551F615070408030E0E09E07E0E0AE0705
:101C8000E0E4BE0760F36B8F7C8F6FE7E62EF12CEC
:101C9000012D112DE822F9220A231B2360E4E61608
:101CA000F1040105110561F487FD0AC02115310514
:101CB0004105510529F0805C9F4FAF4FBF4F8078A1
:101CC0008D8F9E8FAF8FB8A383E0898FCE01499609
:101CD00002C080E690E00E94BB10A096E2E10C9466
:101CE0006712A8E1B0E0E7E7FEE00C9453126983C5
:101CF0007A838B839C832D833E834F8358878E0109
:101D0000075F1F4FCE010196B8010E94891181E142
:101D1000E82EF12CEC0EFD1ECE010596B7010E94B7
:101D200089119985923008F483C08989823008F43A
:101D30007BC02A853A8923272A87943011F0923074
:101D400021F4981709F06CC071C0843039F41D86F5
:101D50001E861F86188A1C861B866AC0823019F46C
:101D600084E0898765C08B859C852B893C89821B93
:101D7000930B9C878B872D853E854F855889ED88F1
:101D8000FE880F89188D2E153F054007510738F43E
:101D9000220F331F441F551F01979C878B876FE1CC
:101DA00070E0A12CB12CC12CA0E4DA2E80E090E0F0
:101DB000DC012E153F054007510740F08A299B2979
:101DC000AC29BD292E193F09400B510BD694C7945D
:101DD000B794A794220F331F441F551F61507040C2
:101DE00041F76FE7E62EF12C012D112DE822F922A3
:101DF0000A231B2360E4E616F1040105110561F4D2
:101E000087FD0AC0211531054105510529F0805C87
:101E10009F4FAF4FBF4F80788D879E87AF87B88B1E
:101E20008E01075F1F4F04C0870102C000E610E06B
:101E3000C8010E94BB106896EAE00C946F12A8E1FA
:101E4000B0E0E5E2FFE00C94571269837A838B835C
:101E50009C832D833E834F8358878E01075F1F4FDE
:101E6000CE010196B8010E94891181E1E82EF12C82
:101E7000EC0EFD1ECE010596B7010E9489118985E1
:101E8000823040F08989823028F0C801B7010E9471
:101E9000F21101C08FEF6896E6E00C947312A8E18E
:101EA000B0E0E5E5FFE00C94571269837A838B83F9
:101EB0009C832D833E834F8358878E01075F1F4F7E
:101EC000CE010196B8010E94891181E1E82EF12C22
:101ED000EC0EFD1ECE010596B7010E948911898581
:101EE000823040F08989823028F0C801B7010E9411
:101EF000F21101C08FEF6896E6E00C947312A8E12E
:101F0000B0E0E5E8FFE00C94571269837A838B8395
:101F10009C832D833E834F8358878E01075F1F4F1D
:101F2000CE010196B8010E94891181E1E82EF12CC1
:101F3000EC0EFD1ECE010596B7010E948911898520
:101F4000823040F08989823028F0C801B7010E94B0
:101F5000F21101C081E06896E6E00C947312A8E0EB
:101F6000B0E0E5EBFFE00C9457127B018C0183E0BD
:101F70008983D801C7018827B7FD83959927AA27A8
:101F8000BB27282F8A83E114F1040105110519F4F8
:101F900082E0898337C08EE190E09C838B8322238B
:101FA00089F080E0E81680E0F80680E0080780E825
:101FB000180769F110950095F094E094E11CF11C6C
:101FC000011D111DED82FE820F831887C801B70124
:101FD0000E9461109C01215030401216130694F4A7
:101FE000022E04C0EE0CFF1C001F111F0A94D2F732
:101FF000ED82FE820F8318878EE190E0821B930BA7
:102000009C838B83CE0101960E94BB1004C060E0CC
:1020100070E080E09FEC2896E6E00C947312ACE050
:10202000B0E0E5E1F0E10C945B1269837A838B8385
:102030009C83CE010196BE016B5F7F4F0E94891188
:102040008D81823081F1823070F1843021F48E8173
:10205000882369F10AC02F81388537FD24C06E813D
:102060002F3131053CF0662311F120E030E040E0F3
:1020700050E821C08EE190E0821B930B29853A85C0
:102080004B855C8504C056954795379527958A956D
:10209000D2F7662381F050954095309521953F4FBA
:1020A0004F4F5F4F08C020E030E0A90104C02FEF80
:1020B0003FEF4FEF5FE7B901CA012C96E2E00C94C5
:1020C0007712AF92BF92CF92DF92EF92FF920F936F
:1020D0001F937B018C0180E0E81680E0F80681E028
:1020E000080780E0180758F4EFEFEE16F104010539
:1020F000110509F090F480E090E0DC0117C0F0E0F9
:10210000EF16F0E0FF06F0E00F07F1E01F0750F4D4
:1021100080E190E0A0E0B0E009C088E090E0A0E0BD
:10212000B0E004C088E190E0A0E0B0E020E230E060
:1021300040E050E0281B390B4A0B5B0B570168014C
:1021400004C0D694C794B794A7948A95D2F7D601C1
:10215000C50188599F4FFC018081281B3109410925
:102160005109C9011F910F91FF90EF90DF90CF901F
:10217000BF90AF900895EF92FF920F931F93CF936C
:10218000DF93FC0124813581468157816181808103
:10219000823020F44061EFEFF0E0A3C0843009F416
:1021A0009BC0823009F492C02115310541055105CB
:1021B00009F48FC00280F381E02D8FEFE238F80739
:1021C0000CF05AC0C2E8DFEFCE1BDF0BCA31D105DD
:1021D0006CF579018A010C2E04C016950795F794C9
:1021E000E7940A94D2F781E090E0A0E0B0E00C2EF2
:1021F00004C0880F991FAA1FBB1F0A94D2F701972A
:10220000A109B10982239323A423B52321E030E05F
:1022100040E050E00097A105B10519F420E030E05E
:10222000A9012E293F29402B512B03C020E030E08B
:10223000A901DA01C9018F779070A070B070803465
:102240009105A105B10539F427FF09C0205C3F4F76
:102250004F4F5F4F04C0215C3F4F4F4F5F4FE1E056
:10226000F0E0203080E0380780E0480780E458073D
:1022700028F5E0E0F0E022C0E038F1056CF5E15827
:10228000FF4FDA01C9018F779070A070B070803471
:102290009105A105B10539F427FF09C0205C3F4F26
:1022A0004F4F5F4F04C0215C3F4F4F4F5F4F57FF71
:1022B00005C05695479537952795319687E05695F1
:1022C0004795379527958A95D1F70BC0E0E0F0E068
:1022D00005C0E0E0F0E005C0EFEFF0E020E030E026
:1022E000A9018E2F879588278795942F9F776795CB
:1022F00066276795E695E22EA92FA82BFE2FF62BD1
:10230000622F732F8A2F9F2FCDB7DEB7E6E00C9494
:102310007312DC01FB012C9111963C9111971296DE
:102320008C911297482F4F7750E0982F991F99273B
:10233000991F13966C911397862F880F892B90E025
:10234000661F6627661F6183009739F521153105E1
:102350004105510511F482E029C082E89FEF938383
:10236000828367E0220F331F441F551F6A95D1F700
:1023700083E0808309C0220F331F441F551F8281D1
:102380009381019793838283203080E0380780E037
:10239000480780E4580778F320C08F3F910579F40F
:1023A000211531054105510519F484E08083089514
:1023B00044FF03C081E0808310C010820EC08F579D
:1023C00090409383828383E0808387E0220F331FD2
:1023D000441F551F8A95D1F7506424833583468363
:1023E00057830895FC01DB019081923008F449C0C5
:1023F0008C91823008F445C0943051F4618184306E
:10240000B1F511962C91119730E0261B310941C08E
:10241000843021F0923041F48230B1F111968C91E8
:1024200011978823A1F12DC06181823001F11196AD
:102430008C9111976817D9F42281338112968D916E
:102440009C9113978217930794F028173907BCF0D3
:10245000248135814681578114968D919D910D90EF
:10246000BC91A02D82179307A407B50718F4662323
:1024700041F00DC0281739074A075B0728F4662387
:1024800031F021E030E005C020E030E002C02FEF65
:102490003FEFC90108952F923F924F925F926F9242
:1024A0007F928F929F92AF92BF92CF92DF92EF92E4
:1024B000FF920F931F93CF93DF93CDB7DEB7CA1B65
:1024C000DB0B0FB6F894DEBF0FBECDBF09942A8890
:1024D000398848885F846E847D848C849B84AA8438
:1024E000B984C884DF80EE80FD800C811B81AA81C5
:1024F000B981CE0FD11D0FB6F894DEBF0FBECDBF90
:08250000ED010895F894FFCFEE
:1025080000000000000000000001020203030303B2
:10251800040404040404040405050505050505056B
:10252800050505050505050506060606060606064B
:102538000606060606060606060606060606060633
:10254800060606060606060607070707070707071B
:102558000707070707070707070707070707070703
:1025680007070707070707070707070707070707F3
:1025780007070707070707070707070707070707E3
:1025880007070707070707070808080808080808CB
:1025980008080808080808080808080808080808B3
:1025A80008080808080808080808080808080808A3
:1025B8000808080808080808080808080808080893
:1025C8000808080808080808080808080808080883
:1025D8000808080808080808080808080808080873
:1025E8000808080808080808080808080808080863
:1025F8000808080808080808080808080808080853
:0826080008080808080808088A
:00000001FF
