:100000000C942A000C943F000C943F000C943F0089
:100010000C943F000C943F000C943F000C943F0064
:100020000C943F000C943F000C943F000C943F0054
:100030000C943F000C943F000C943F000C943F0044
:100040000C943F000C943F000C943F000C943F0034
:100050000C943F0011241FBECFE5D8E0DEBFCDBF1A
:1000600011E0A0E6B0E0E4EDF9E102C005900D92E8
:10007000A836B107D9F70E9441000C94E80C0C9403
:1000800000000F931F93DF93CF93CDB7DEB7C45714
:10009000D0400FB6F894DEBF0FBECDBF87E390E02F
:1000A0002FEFFC0120838AE390E02FEFFC012083F7
:1000B00081E090E09A8389831C821B821E821D82CC
:1000C00018861F821A86198684E190E09A8B898BA4
:1000D0001C861B861E861D868EEF90E09C8B8B8B6C
:1000E000188A1F8638C50BE310E08B819C810E9423
:1000F000B205F801808388E390E02EEFFC012083B5
:1001000089899A89AA2797FDA095BA2FBC01CD01AC
:100110000E94150ADC01CB018D8B9E8BAF8BB88FB3
:100120006D897E898F89988D2BEA3AEA4AEA50E4F4
:100130000E94DD07DC01CB01898F9A8FAB8FBC8FCA
:1001400011E0698D7A8D8B8D9C8D20E030E040E848
:100150005FE30E94E50988230CF010E0112319F0F9
:1001600081E08D8FA3C011E0698D7A8D8B8D9C8D80
:1001700020E030E04FE753E40E94850918160CF0A8
:1001800010E0112309F489C06D897E898F89988DCB
:1001900020E030E04AE754E40E94D708DC01CB01BC
:1001A0008E8F9F8FA8A3B9A36E8D7F8D88A199A1F3
:1001B00020E030E04AE755E40E94DD07DC01CB0196
:1001C0008AA39BA3ACA3BDA311E06AA17BA18CA1D0
:1001D0009DA120E030E040E85FE30E94E50988232C
:1001E0000CF010E0112329F081E090E09FA38EA392
:1001F00046C011E06AA17BA18CA19DA120E03FEF48
:100200004FE757E40E94850918160CF010E01123FF
:1002100061F16E8D7F8D88A199A120E030E040E2F0
:1002200051E40E94DD07DC01CB01BC01CD010E943D
:100230000906DC01CB019FA38EA312C080E991E0E7
:1002400099A788A788A599A58C01C8010197F1F7FE
:100250008C0119A708A78EA19FA101979FA38EA328
:100260008EA19FA1009751F728C06AA17BA18CA104
:100270009DA10E940906DC01CB019FA38EA38EA144
:100280009FA19BA78AA78AA59BA58C01F8013197FE
:10029000F1F78F011BA70AA710C0698D7A8D8B8D8E
:1002A0009C8D0E940906DC01CB018D8F8D8D8CA762
:1002B0008CA5182F1A95F1F71CA70BE310E08D8180
:1002C0009E810E94B205F801808388E390E02DEFC3
:1002D000FC01208389899A89AA2797FDA095BA2FC6
:1002E000BC01CD010E94150ADC01CB018DA79EA7A0
:1002F000AFA7B8AB6DA57EA58FA598A92BEA3AEA62
:100300004AEA50E40E94DD07DC01CB0189AB9AABDD
:10031000ABABBCAB11E069A97AA98BA99CA920E081
:1003200030E040E85FE30E94E50988230CF010E02C
:10033000112319F081E08DABBBC011E069A97AA946
:100340008BA99CA920E030E04FE753E40E94850987
:1003500018160CF010E0112309F4A1C06DA57EA5BC
:100360008FA598A920E030E04AE754E40E94D7081E
:10037000DC01CB018EAB9FABA8AFB9AF6EA97FA953
:1003800088AD99AD20E030E04AE755E40E94DD07F2
:10039000DC01CB018AAF9BAFACAFBDAF11E06AAD62
:1003A0007BAD8CAD9DAD20E030E040E85FE30E9486
:1003B000E50988230CF010E0112329F081E090E09A
:1003C0009FAF8EAF52C011E06AAD7BAD8CAD9DADDD
:1003D00020E03FEF4FE757E40E94850918160CF024
:1003E00010E01123C1F16EA97FA988AD99AD20E07D
:1003F00030E040E251E40E94DD07DC01CB01BC01AA
:10040000CD010E940906DC01CB019FAF8EAF1EC05B
:10041000CE01805C9F4F20E931E0FC0131832083D5
:10042000CE01805C9F4FFC01808191818C01C801CD
:100430000197F1F78C01CE01805C9F4FFC01118385
:1004400000838EAD9FAD01979FAF8EAF8EAD9FADF8
:100450000097F1F640C06AAD7BAD8CAD9DAD0E94BA
:100460000906DC01CB019FAF8EAFCE018E5B9F4FA3
:100470002EAD3FADFC0131832083CE018E5B9F4FBB
:10048000FC01808191818C01C8010197F1F78C01F9
:10049000CE018E5B9F4FFC01118300831CC069A9B4
:1004A0007AA98BA99CA90E940906DC01CB018DAB1E
:1004B000CE018C5B9F4F2DA9FC012083CE018C5B6C
:1004C0009F4FFC018081182F1A95F1F7CE018C5BAC
:1004D0009F4FFC0110830BE310E08F8198850E94F1
:1004E000B205F801808388E390E02BEFFC012083C4
:1004F00089899A89AA2797FDA095BA2FBC01CD01B9
:100500000E94150ADC01CB019E012B5B3F4FF901D4
:1005100080839183A283B3838E01075B1F4FCE013B
:100520008B5B9F4FFC0160817181828193812BEAFB
:100530003AEA4AEA50E40E94DD07DC01CB01F80107
:1005400080839183A283B383CE01875B9F4F11E0A9
:10055000FC01608171818281938120E030E040E87C
:100560005FE30E94E50988230CF010E0112339F0C5
:10057000CE01835B9F4F21E0FC01208305C1CE01AA
:10058000875B9F4F11E0FC016081718182819381C3
:1005900020E030E04FE753E40E94850918160CF084
:1005A00010E0112309F4DFC0CE018B5B9F4FFC01EB
:1005B000608171818281938120E030E04AE754E4D8
:1005C0000E94D708DC01CB019E01225B3F4FF9015D
:1005D00080839183A283B3838E010E5A1F4FCE0175
:1005E000825B9F4FFC01608171818281938120E059
:1005F00030E04AE755E40E94DD07DC01CB01F80159
:1006000080839183A283B383CE018E5A9F4F11E0E2
:10061000FC01608171818281938120E030E040E8BB
:100620005FE30E94E50988230CF010E0112349F0F4
:10063000CE018A5A9F4F21E030E0FC0131832083B4
:1006400074C0CE018E5A9F4F11E0FC016081718110
:100650008281938120E03FEF4FE757E40E948509B4
:1006600018160CF010E0112309F44DC0CE01825B86
:100670009F4FFC01608171818281938120E030E095
:1006800040E251E40E94DD07DC01CB018E010A5AF1
:100690001F4FBC01CD010E940906DC01CB01F8010E
:1006A0009183808327C0CE01885A9F4F20E931E093
:1006B000FC0131832083CE01885A9F4FFC01808149
:1006C00091818C01C8010197F1F78C01CE01885A04
:1006D0009F4FFC0111830083CE018A5A9F4F9E01D8
:1006E0002A5A3F4FF9012081318121503040FC01CD
:1006F00031832083CE018A5A9F4FFC0180819181F2
:10070000009789F658C08E010A5A1F4FCE018E5AA3
:100710009F4FFC0160817181828193810E94090653
:10072000DC01CB01F80191838083CE01865A9F4F73
:100730009E012A5A3F4FF90120813181FC0131830A
:100740002083CE01865A9F4FFC01808191818C01CC
:10075000C8010197F1F78C01CE01865A9F4FFC0129
:100760001183008328C08E01035B1F4FCE01875B7E
:100770009F4FFC0160817181828193810E940906F3
:10078000DC01CB01F8018083CE01845A9F4F9E018A
:10079000235B3F4FF9012081FC012083CE01845A65
:1007A0009F4FFC018081182F1A95F1F7CE01845AD2
:1007B0009F4FFC0110830BE310E089859A850E940E
:1007C000B205F801808388E390E027EFFC012083E5
:1007D00089899A89AA2797FDA095BA2FBC01CD01D6
:1007E0000E94150ADC01CB019E01235A3F4FF901FB
:1007F00080839183A283B3838E010F591F4FCE0153
:10080000835A9F4FFC0160817181828193812BEA21
:100810003AEA4AEA50E40E94DD07DC01CB01F80124
:1008200080839183A283B383CE018F599F4F11E0C0
:10083000FC01608171818281938120E030E040E899
:100840005FE30E94E50988230CF010E0112339F0E2
:10085000CE018B599F4F21E0FC01208305C1CE01C1
:100860008F599F4F11E0FC016081718182819381DA
:1008700020E030E04FE753E40E94850918160CF0A1
:1008800010E0112309F4DFC0CE01835A9F4FFC0111
:10089000608171818281938120E030E04AE754E4F5
:1008A0000E94D708DC01CB019E012A593F4FF90174
:1008B00080839183A283B3838E0106591F4FCE019B
:1008C0008A599F4FFC01608171818281938120E070
:1008D00030E04AE755E40E94DD07DC01CB01F80176
:1008E00080839183A283B383CE0186599F4F11E009
:1008F000FC01608171818281938120E030E040E8D9
:100900005FE30E94E50988230CF010E0112349F011
:10091000CE0182599F4F21E030E0FC0131832083DA
:1009200074C0CE0186599F4F11E0FC016081718136
:100930008281938120E03FEF4FE757E40E948509D1
:1009400018160CF010E0112309F44DC0CE018A599D
:100950009F4FFC01608171818281938120E030E0B2
:1009600040E251E40E94DD07DC01CB018E01025917
:100970001F4FBC01CD010E940906DC01CB01F8012B
:100980009183808327C0CE0180599F4F20E931E0B9
:10099000FC0131832083CE0180599F4FFC0180816F
:1009A00091818C01C8010197F1F78C01CE0180592A
:1009B0009F4FFC0111830083CE0182599F4F9E01FE
:1009C00022593F4FF9012081318121503040FC01F3
:1009D00031832083CE0182599F4FFC018081918118
:1009E000009789F658C08E0102591F4FCE018659D3
:1009F0009F4FFC0160817181828193810E94090671
:100A0000DC01CB01F80191838083CE018E589F4F8A
:100A10009E0122593F4FF90120813181FC01318330
:100A20002083CE018E589F4FFC01808191818C01E3
:100A3000C8010197F1F78C01CE018E589F4FFC0140
:100A40001183008328C08E010B591F4FCE018F598F
:100A50009F4FFC0160817181828193810E94090610
:100A6000DC01CB01F8018083CE018C589F4F9E01A1
:100A70002B593F4FF9012081FC012083CE018C5876
:100A80009F4FFC018081182F1A95F1F7CE018C58E9
:100A90009F4FFC0110838B859C8501969C878B87DB
:100AA0008D859E8501969E878D878D859E85823357
:100AB000910551F489819A819C838B831E821D82CA
:100AC00018861F821A8619868D859E858436910523
:100AD00051F41C821B8289819A819E838D831886A2
:100AE0001F821A8619868D859E858639910551F457
:100AF0001C821B821E821D8289819A8198878F8326
:100B00001A8619868D859E85883C910551F41C8234
:100B10001B821E821D8218861F8289819A819A8774
:100B200089878B859C85883C910549F41C861B86AA
:100B30001E861D8689819A8101969A83898389817F
:100B40009A818A30910511F41A8219828F859889C9
:100B50000196988B8F878F859889843091050CF446
:100B6000C2CABECADF93CF9300D0CDB7DEB79A8397
:100B7000898389819A818430910599F18530910525
:100B800084F48130910521F1823091051CF40097A5
:100B9000E1F039C082309105F1F083309105F1F038
:100BA00032C08730910531F1883091053CF48530B1
:100BB0009105D1F086309105D1F025C0883091059E
:100BC000E1F089309105E1F01EC080EC90E01CC09E
:100BD00089EF90E019C084EA90E016C080EB90E0C5
:100BE00013C089E990E010C082E990E00DC082E86E
:100BF00090E00AC088EF90E007C080E890E004C071
:100C000080E990E001C000C00F900F90CF91DF917C
:100C10000895EF92FF920F931F937B018C0120E0C8
:100C200030E040E05FE40E94B50987FD11C0C801D3
:100C3000B70120E030E040E05FE40E94AC070E9492
:100C4000750A9B01AC01205030404040504806C01E
:100C5000C801B7010E94750A9B01AC01B901CA0124
:100C60001F910F91FF90EF900895A0E0B0E0EBE3AB
:100C7000F6E00C94B50CFC01EA018081823008F4A6
:100C800038C1DB019C91923008F430C1843059F4B2
:100C9000943009F02EC1918111968C91119798177B
:100CA00009F021C126C1943009F420C19230B1F479
:100CB000823009F01EC1CA01AF0128E0DA010D90AF
:100CC000AD01DC010D92CD012150C1F7DB01119680
:100CD0008C9111979181892389830AC1823009F40B
:100CE00005C1C280D380DB0112966D907C90139772
:100CF00024813581468157811496ED90FD900D91A8
:100D00001C911797C601861997095C0197FF04C0CB
:100D1000AA24BB24A81AB90AB0E2AB16B1040CF09D
:100D200061C0181619066CF5370148010A2C04C079
:100D300096948794779467940A94D2F781E090E030
:100D4000A0E0B0E00A2C04C0880F991FAA1FBB1FA7
:100D50000A94D2F70197A109B1098E219F21A023FE
:100D6000B123EE24FF248701E3940097A105B10588
:100D700019F4EE24FF248701E628F7280829192909
:100D80003CC00097D1F1CA0CDB1C39014A010A2C86
:100D900004C096948794779467940A94D2F781E07C
:100DA00090E0A0E0B0E00A2C04C0880F991FAA1FB1
:100DB000BB1F0A94D2F70197A109B109822393239B
:100DC000A423B52321E030E040E050E00097A105E6
:100DD000B10519F420E030E0A90126293729482976
:100DE00059290BC06C147D0424F4EE24FF248701E0
:100DF00004C0630120E030E0A9018181FB01918101
:100E0000891709F445C0882349F0D801C701821B1E
:100E1000930BA40BB50B9C01AD0104C02E193F0927
:100E2000400B510B57FD04C01982DB82CA820BC0F4
:100E300081E08983DB82CA82509540953095219567
:100E40003F4F4F4F5F4F2C833D834E835F830DC0D9
:100E5000880F991FAA1FBB1F8C839D83AE83BF83FE
:100E60008A819B8101979B838A838C819D81AE813E
:100E7000BF819C01AD0121503040404050402F3F88
:100E8000EFEF3E07EFEF4E07EFE35E0708F30BC00F
:100E90008983DB82CA822E0D3F1D401F511F2C8388
:100EA0003D834E835F8383E088832C813D814E8127
:100EB0005F8157FF1DC0DA01C90181709070A07079
:100EC000B0705695479537952795822B932BA42B79
:100ED000B52B8C839D83AE83BF838A819B810196D2
:100EE0009B838A8305C0E0E6F0E003C0FB0101C0FC
:100EF000FE01CF01CDB7DEB7EEE00C94D10CA0E23D
:100F0000B0E0E5E8F7E00C94BD0C69837A838B834D
:100F10009C832D833E834F83588789E0E82EF12CF4
:100F2000EC0EFD1ECE010196B7010E94EF0B8E0163
:100F30000F5E1F4FCE010596B8010E94EF0BC7014F
:100F4000B801AE01475E5F4F0E9435060E94210B3B
:100F5000A096E6E00C94D90CA0E2B0E0E2EBF7E05A
:100F60000C94BD0C69837A838B839C832D833E8391
:100F70004F8358878E01075F1F4FCE010196B8013E
:100F80000E94EF0B91E1E92EF12CEC0EFD1ECE013B
:100F90000596B7010E94EF0B8A8991E089278A8B19
:100FA000C801B701AE01475E5F4F0E9435060E943F
:100FB000210BA096E6E00C94D90CA0E2B0E0E3EEA1
:100FC000F7E00C94B10C69837A838B839C832D8327
:100FD0003E834F835887CE010196BE01675F7F4FE6
:100FE0000E94EF0BCE010596BE016F5E7F4F0E94FF
:100FF000EF0B9985923078F089898230C0F0943077
:1010000019F4823041F4CBC0843019F4923079F471
:10101000C6C0923051F481E02A859A89291709F4D3
:1010200080E08A87CE010996BCC0823051F481E00D
:101030002A859A89291709F480E08A8BCE01419686
:10104000B0C06D847E848F849888ED88FE880F8977
:10105000188DE0E2F0E080E090E0DC01AA24BB24FF
:10106000650120E030E0A901B30161707070611585
:101070007105D1F02E0D3F1D401F511F1501260196
:10108000280E391E4A1E5B1E81E090E0A0E0B0E011
:101090002E153F054007510718F080E090E0DC0175
:1010A000820D931DA41DB51DAA0CBB1CCC1CDD1C00
:1010B00017FF09C061E0262E312C412C512CA228AB
:1010C000B328C428D528319749F0EE0CFF1C001F27
:1010D000111F9694879477946794C6CF6B897C8907
:1010E000EB85FC856E0F7F1F6E5F7F4F7C8F6B8F54
:1010F00061E0EA857A89E71709F460E06A8F6B8D11
:101100007C8D10C0FC01E170F070309729F056958D
:101110004795379527955068B695A79597958795E4
:101120006F5F7F4FB7FDEECF0CC0880F991FAA1FCE
:10113000BB1F57FD8160220F331F441F551F615095
:1011400070408030E0E09E07E0E0AE07E0E4BE07DC
:1011500060F36B8F7C8F6FE7E62EF12C012D112D44
:10116000E822F9220A231B2360E4E616F1040105B4
:10117000110561F487FD0AC02115310541055105AE
:1011800029F0805C9F4FAF4FBF4F80788D8F9E8F2F
:10119000AF8FB8A383E0898FCE01499602C080E665
:1011A00090E00E94210BA096E2E10C94CD0CA8E106
:1011B000B0E0EDEDF8E00C94B90C69837A838B8391
:1011C0009C832D833E834F8358878E01075F1F4F7B
:1011D000CE010196B8010E94EF0B81E1E82EF12CBF
:1011E000EC0EFD1ECE010596B7010E94EF0B99850E
:1011F000923008F483C08989823008F47BC02A8544
:101200003A8923272A87943011F0923021F49817D5
:1012100009F06CC071C0843039F41D861E861F86AB
:10122000188A1C861B866AC0823019F484E089877C
:1012300065C08B859C852B893C89821B930B9C8781
:101240008B872D853E854F855889ED88FE880F89CF
:10125000188D2E153F054007510738F4220F331F14
:10126000441F551F01979C878B876FE170E0A12C6D
:10127000B12CC12CA0E4DA2E80E090E0DC012E1528
:101280003F054007510740F08A299B29AC29BD2919
:101290002E193F09400B510BD694C794B794A794CD
:1012A000220F331F441F551F6150704041F76FE7F5
:1012B000E62EF12C012D112DE822F9220A231B2301
:1012C00060E4E616F1040105110561F487FD0AC02A
:1012D000211531054105510529F0805C9F4FAF4F25
:1012E000BF4F80788D879E87AF87B88B8E01075F51
:1012F0001F4F04C0870102C000E610E0C8010E9431
:10130000210B6896EAE00C94D50CA8E1B0E0EBE87C
:10131000F9E00C94BD0C69837A838B839C832D83C5
:101320003E834F8358878E01075F1F4FCE01019682
:10133000B8010E94EF0B81E1E82EF12CEC0EFD1EAE
:10134000CE010596B7010E94EF0B8985823040F0EF
:101350008989823028F0C801B7010E94580C01C069
:101360008FEF6896E6E00C94D90CA8E1B0E0EBEBC7
:10137000F9E00C94BD0C69837A838B839C832D8365
:101380003E834F8358878E01075F1F4FCE01019622
:10139000B8010E94EF0B81E1E82EF12CEC0EFD1E4E
:1013A000CE010596B7010E94EF0B8985823040F08F
:1013B0008989823028F0C801B7010E94580C01C009
:1013C0008FEF6896E6E00C94D90CA8E1B0E0EBEE64
:1013D000F9E00C94BD0C69837A838B839C832D8305
:1013E0003E834F8358878E01075F1F4FCE010196C2
:1013F000B8010E94EF0B81E1E82EF12CEC0EFD1EEE
:10140000CE010596B7010E94EF0B8985823040F02E
:101410008989823028F0C801B7010E94580C01C0A8
:1014200081E06896E6E00C94D90CA8E0B0E0EBE12E
:10143000FAE00C94BD0C7B018C0183E08983D80118
:10144000C7018827B7FD83959927AA27BB27282F8F
:101450008A83E114F1040105110519F482E08983FE
:1014600037C08EE190E09C838B83222389F080E05B
:10147000E81680E0F80680E0080780E8180769F1C0
:1014800010950095F094E094E11CF11C011D111DD4
:10149000ED82FE820F831887C801B7010E94C70A38
:1014A0009C01215030401216130694F4022E04C001
:1014B000EE0CFF1C001F111F0A94D2F7ED82FE8272
:1014C0000F8318878EE190E0821B930B9C838B83A4
:1014D000CE0101960E94210B04C060E070E080E024
:1014E0009FEC2896E6E00C94D90CACE0B0E0EBE77A
:1014F000FAE00C94C10C69837A838B839C83CE01C0
:101500000196BE016B5F7F4F0E94EF0B8D81823091
:1015100081F1823070F1843021F48E81882369F169
:101520000AC02F81388537FD24C06E812F313105E7
:101530003CF0662311F120E030E040E050E821C0AB
:101540008EE190E0821B930B29853A854B855C8563
:1015500004C056954795379527958A95D2F7662307
:1015600081F050954095309521953F4F4F4F5F4FFB
:1015700008C020E030E0A90104C02FEF3FEF4FEF9B
:101580005FE7B901CA012C96E2E00C94DD0CAF9242
:10159000BF92CF92DF92EF92FF920F931F937B0146
:1015A0008C0180E0E81680E0F80681E0080780E022
:1015B000180758F4EFEFEE16F1040105110509F0D4
:1015C00090F480E090E0DC0117C0F0E0EF16F0E06E
:1015D000FF06F0E00F07F1E01F0750F480E190E014
:1015E000A0E0B0E009C088E090E0A0E0B0E004C076
:1015F00088E190E0A0E0B0E020E230E040E050E0A0
:10160000281B390B4A0B5B0B5701680104C0D694A9
:10161000C794B794A7948A95D2F7D601C501885983
:101620009F4FFC018081281B310941095109C901E3
:101630001F910F91FF90EF90DF90CF90BF90AF90F0
:101640000895EF92FF920F931F93CF93DF93FC01C6
:10165000248135814681578161818081823020F4E7
:101660004061EFEFF0E0A3C0843009F49BC082300A
:1016700009F492C0211531054105510509F48FC0C7
:101680000280F381E02D8FEFE238F8070CF05AC0AA
:10169000C2E8DFEFCE1BDF0BCA31D1056CF5790153
:1016A0008A010C2E04C016950795F794E7940A94C6
:1016B000D2F781E090E0A0E0B0E00C2E04C0880FEB
:1016C000991FAA1FBB1F0A94D2F70197A109B1095C
:1016D00082239323A423B52321E030E040E050E0AF
:1016E0000097A105B10519F420E030E0A9012E29E9
:1016F0003F29402B512B03C020E030E0A901DA0143
:10170000C9018F779070A070B07080349105A105E9
:10171000B10539F427FF09C0205C3F4F4F4F5F4FA1
:1017200004C0215C3F4F4F4F5F4FE1E0F0E02030BD
:1017300080E0380780E0480780E4580728F5E0E0BB
:10174000F0E022C0E038F1056CF5E158FF4FDA0116
:10175000C9018F779070A070B07080349105A10599
:10176000B10539F427FF09C0205C3F4F4F4F5F4F51
:1017700004C0215C3F4F4F4F5F4F57FF05C0569548
:10178000479537952795319687E056954795379534
:1017900027958A95D1F70BC0E0E0F0E005C0E0E0C6
:1017A000F0E005C0EFEFF0E020E030E0A9018E2F7F
:1017B000879588278795942F9F77679566276795E4
:1017C000E695E22EA92FA82BFE2FF62B622F732F62
:1017D0008A2F9F2FCDB7DEB7E6E00C94D90CDC0141
:1017E000FB012C9111963C91119712968C911297B6
:1017F000482F4F7750E0982F991F9927991F1396DC
:101800006C911397862F880F892B90E0661F6627AF
:10181000661F6183009739F5211531054105510592
:1018200011F482E029C082E89FEF9383828367E00E
:10183000220F331F441F551F6A95D1F783E0808321
:1018400009C0220F331F441F551F828193810197C6
:1018500093838283203080E0380780E0480780E46B
:10186000580778F320C08F3F910579F42115310591
:101870004105510519F484E08083089544FF03C0B5
:1018800081E0808310C010820EC08F5790409383F8
:10189000828383E0808387E0220F331F441F551F1C
:1018A0008A95D1F7506424833583468357830895FE
:1018B000FC01DB019081923008F449C08C918230A8
:1018C00008F445C0943051F461818430B1F511962B
:1018D0002C91119730E0261B310941C0843021F052
:1018E000923041F48230B1F111968C911197882396
:1018F000A1F12DC06181823001F111968C91119777
:101900006817D9F42281338112968D919C91139797
:101910008217930794F028173907BCF0248135818A
:101920004681578114968D919D910D90BC91A02D6B
:1019300082179307A407B50718F4662341F00DC07A
:10194000281739074A075B0728F4662331F021E09E
:1019500030E005C020E030E002C02FEF3FEFC901CA
:1019600008952F923F924F925F926F927F928F9243
:101970009F92AF92BF92CF92DF92EF92FF920F931E
:101980001F93CF93DF93CDB7DEB7CA1BDB0B0FB628
:10199000F894DEBF0FBECDBF09942A8839884888E5
:1019A0005F846E847D848C849B84AA84B984C8847B
:1019B000DF80EE80FD800C811B81AA81B981CE0F72
:1019C000D11D0FB6F894DEBF0FBECDBFED01089557
:0419D000F894FFCFB9
:1019D40000000000000000000001020203030303F2
:1019E40004040404040404040505050505050505AB
:1019F400050505050505050506060606060606068B
:101A04000606060606060606060606060606060672
:101A1400060606060606060607070707070707075A
:101A24000707070707070707070707070707070742
:101A34000707070707070707070707070707070732
:101A44000707070707070707070707070707070722
:101A5400070707070707070708080808080808080A
:101A640008080808080808080808080808080808F2
:101A740008080808080808080808080808080808E2
:101A840008080808080808080808080808080808D2
:101A940008080808080808080808080808080808C2
:101AA40008080808080808080808080808080808B2
:101AB40008080808080808080808080808080808A2
:101AC4000808080808080808080808080808080892
:081AD4000808080808080808CA
:00000001FF
