:100000000C942A000C943F000C943F000C943F0089
:100010000C943F000C943F000C943F000C943F0064
:100020000C943F000C943F000C943F000C943F0054
:100030000C943F000C943F000C943F000C943F0044
:100040000C943F000C943F000C943F000C943F0034
:100050000C943F0011241FBECFE5D8E0DEBFCDBF1A
:1000600011E0A0E6B0E0E8E9FAE102C005900D92E7
:10007000AC36B107D9F70E9441000C944A0D0C949C
:1000800000000F931F93DF93CF93CDB7DEB7CA560F
:10009000D0400FB6F894DEBF0FBECDBF87E390E02F
:1000A0002FEFFC0120838AE390E02FEFFC012083F7
:1000B0001A8219821C821B8285E090E09A878987C8
:1000C0001E821D8218861F8201C000000BE310E013
:1000D0008D819E810E943D05F801808388E390E038
:1000E0002DEFFC01208389859A85AA2797FDA0958D
:1000F000BA2FBC01CD010E94A009DC01CB018B8786
:100100009C87AD87BE876B857C858D859E852BEA18
:100110003AEA4AEA50E40E946807DC01CB018F8783
:10012000988BA98BBA8B11E06F85788989899A8918
:1001300020E030E040E85FE30E94700988230CF083
:1001400010E0112319F081E08B8BA3C011E06F85C3
:10015000788989899A8920E030E04FE753E40E944A
:10016000100918160CF010E0112309F489C06B85F2
:100170007C858D859E8520E030E04AE754E40E942E
:100180006208DC01CB018C8B9D8BAE8BBF8B6C89A5
:100190007D898E899F8920E030E04AE755E40E94FE
:1001A0006807DC01CB01888F998FAA8FBB8F11E084
:1001B000688D798D8A8D9B8D20E030E040E85FE38B
:1001C0000E94700988230CF010E0112329F081E0CF
:1001D00090E09D8F8C8F46C011E0688D798D8A8D5F
:1001E0009B8D20E03FEF4FE757E40E94100918165F
:1001F0000CF010E0112361F16C897D898E899F8953
:1002000020E030E040E251E40E946807DC01CB01CD
:10021000BC01CD010E949405DC01CB019D8F8C8F28
:1002200012C080E991E09F8F8E8F8E8D9F8D8C0103
:10023000C8010197F1F78C011F8F0E8F8C8D9D8D5A
:1002400001979D8F8C8F8C8D9D8D009751F728C0C5
:10025000688D798D8A8D9B8D0E949405DC01CB0180
:100260009D8F8C8F8C8D9D8D99A388A388A199A13A
:100270008C01F8013197F1F78F0119A308A310C081
:100280006F85788989899A890E949405DC01CB0160
:100290008B8B8B898AA38AA1182F1A95F1F71AA341
:1002A00088E390E02EEFFC0120830BE310E029E0CF
:1002B00030E08D819E81A901481B590BCA010E9423
:1002C0003D05F801808389859A85AA2797FDA09529
:1002D000BA2FBC01CD010E94A009DC01CB018BA388
:1002E0009CA3ADA3BEA36BA17CA18DA19EA12BEA73
:1002F0003AEA4AEA50E40E946807DC01CB018FA386
:1003000098A7A9A7BAA711E06FA178A589A59AA572
:1003100020E030E040E85FE30E94700988230CF0A1
:1003200010E0112319F081E08BA7A3C011E06FA1A9
:1003300078A589A59AA520E030E04FE753E40E9414
:10034000100918160CF010E0112309F489C06BA1F4
:100350007CA18DA19EA120E030E04AE754E40E94F8
:100360006208DC01CB018CA79DA7AEA7BFA76CA537
:100370007DA58EA59FA520E030E04AE755E40E94C8
:100380006807DC01CB0188AB99ABAAABBBAB11E032
:1003900068A979A98AA99BA920E030E040E85FE339
:1003A0000E94700988230CF010E0112329F081E0ED
:1003B00090E09DAB8CAB46C011E068A979A98AA9F1
:1003C0009BA920E03FEF4FE757E40E941009181661
:1003D0000CF010E0112361F16CA57DA58EA59FA501
:1003E00020E030E040E251E40E946807DC01CB01EC
:1003F000BC01CD010E949405DC01CB019DAB8CAB0F
:1004000012C080E991E09FAB8EAB8EA99FA98C01B1
:10041000C8010197F1F78C011FAB0EAB8CA99DA908
:1004200001979DAB8CAB8CA99DA9009751F728C073
:1004300068A979A98AA99BA90E949405DC01CB012E
:100440009DAB8CAB8CA99DA999AF88AF88AD99ADB8
:100450008C01F8013197F1F78F0119AF08AF10C087
:100460006FA178A589A59AA50E949405DC01CB010E
:100470008BA78BA58AAF8AAD182F1A95F1F71AAF03
:1004800088E390E02BEFFC0120830BE310E08981EF
:100490009A810E943D05F801808389859A85AA2763
:1004A00097FDA095BA2FBC01CD010E94A009DC01E7
:1004B000CB018BAF9CAFADAFBEAF8E01015C1F4FC8
:1004C0006BAD7CAD8DAD9EAD2BEA3AEA4AEA50E4C5
:1004D0000E946807DC01CB01F80180839183A2832D
:1004E000B383CE01CF9611E0FC01608171818281DE
:1004F000938120E030E040E85FE30E9470098823A8
:100500000CF010E0112339F0CE018D5B9F4F21E0FC
:10051000FC012083FFC0CE01CF9611E0FC01608179
:1005200071818281938120E030E04FE753E40E94A3
:10053000100918160CF010E0112309F4DBC06BADA4
:100540007CAD8DAD9EAD20E030E04AE754E40E94E2
:100550006208DC01CB019E012C5B3F4FF9018083D7
:100560009183A283B3838E01085B1F4FCE018C5B06
:100570009F4FFC01608171818281938120E030E096
:100580004AE755E40E946807DC01CB01F80180834B
:100590009183A283B383CE01885B9F4F11E0FC015E
:1005A000608171818281938120E030E040E85FE3E7
:1005B0000E94700988230CF010E0112349F0CE014D
:1005C000845B9F4F21E030E0FC013183208374C0C5
:1005D000CE01885B9F4F11E0FC01608171818281B7
:1005E000938120E03FEF4FE757E40E94100918166F
:1005F0000CF010E0112309F44DC0CE018C5B9F4F2D
:10060000FC01608171818281938120E030E040E2D1
:1006100051E40E946807DC01CB018E01045B1F4F8F
:10062000BC01CD010E949405DC01CB01F80191834E
:10063000808327C0CE01825B9F4F20E931E0FC011F
:1006400031832083CE01825B9F4FFC0180819181A9
:100650008C01C8010197F1F78C01CE01825B9F4F9D
:10066000FC0111830083CE01845B9F4F9E01245BBC
:100670003F4FF9012081318121503040FC0131830D
:100680002083CE01845B9F4FFC0180819181009784
:1006900089F657C08E01045B1F4FCE01885B9F4FC8
:1006A000FC0160817181828193810E949405DC014B
:1006B000CB01F80191838083CE01805B9F4F9E0127
:1006C000245B3F4FF90120813181FC01318320837C
:1006D000CE01805B9F4FFC01808191818C01C8011C
:1006E0000197F1F78C01CE01805B9F4FFC011183D4
:1006F000008327C08E010D5B1F4FCE01CF96FC01FA
:1007000060817181828193810E949405DC01CB011B
:10071000F8018083CE018E5A9F4F9E012D5B3F4F83
:10072000F9012081FC012083CE018E5A9F4FFC01EC
:100730008081182F1A95F1F7CE018E5A9F4FFC0138
:10074000108388E390E027EFFC0120830BE310E0A7
:100750008B819C810E943D05F801808389859A8563
:10076000AA2797FDA095BA2FBC01CD010E94A00930
:10077000DC01CB019E012D5A3F4FF901808391830B
:10078000A283B3838E01095A1F4FCE018D5A9F4F0A
:10079000FC0160817181828193812BEA3AEA4AEA05
:1007A00050E40E946807DC01CB01F801808391834B
:1007B000A283B383CE01895A9F4F11E0FC0160816F
:1007C00071818281938120E030E040E85FE30E9404
:1007D000700988230CF010E0112339F0CE01855AFE
:1007E0009F4F21E0FC01208305C1CE01895A9F4F14
:1007F00011E0FC01608171818281938120E030E011
:100800004FE753E40E94100918160CF010E0112372
:1008100009F4DFC0CE018D5A9F4FFC0160817181C8
:100820008281938120E030E04AE754E40E9462082C
:10083000DC01CB019E01245A3F4FF9018083918353
:10084000A283B3838E01005A1F4FCE01845A9F4F5B
:10085000FC01608171818281938120E030E04AE770
:1008600055E40E946807DC01CB01F8018083918385
:10087000A283B383CE01805A9F4F11E0FC016081B7
:1008800071818281938120E030E040E85FE30E9443
:10089000700988230CF010E0112349F0CE018C5927
:1008A0009F4F21E030E0FC013183208374C0CE01F2
:1008B000805A9F4F11E0FC01608171818281938198
:1008C00020E03FEF4FE757E40E94100918160CF0A4
:1008D00010E0112309F44DC0CE01845A9F4FFC0152
:1008E000608171818281938120E030E040E251E4B7
:1008F0000E946807DC01CB018E010C591F4FBC011F
:10090000CD010E949405DC01CB01F8019183808325
:1009100027C0CE018A599F4F20E931E0FC01318385
:100920002083CE018A599F4FFC01808191818C01E7
:10093000C8010197F1F78C01CE018A599F4FFC0144
:1009400011830083CE018C599F4F9E012C593F4F3C
:10095000F9012081318121503040FC013183208315
:10096000CE018C599F4FFC0180819181009789F6BF
:1009700058C08E010C591F4FCE01805A9F4FFC0169
:1009800060817181828193810E949405DC01CB0199
:10099000F80191838083CE0188599F4F9E012C5985
:1009A0003F4FF90120813181FC0131832083CE0149
:1009B00088599F4FFC01808191818C01C80101976A
:1009C000F1F78C01CE0188599F4FFC011183008300
:1009D00028C08E01055A1F4FCE01895A9F4FFC0136
:1009E00060817181828193810E949405DC01CB0139
:1009F000F8018083CE0186599F4F9E01255A3F4FB3
:100A0000F9012081FC012083CE0186599F4FFC0112
:100A10008081182F1A95F1F7CE0186599F4FFC015E
:100A200010838F819885019698878F838F81988511
:100A300082339105C9F48D819E8101969E838D83B9
:100A400018861F820E94DE0C2AE030E0B9010E9465
:100A50003C0C9A8389830E94DE0C2AE030E0B901C5
:100A60000E943C0C9C838B838D819E818A309105F2
:100A700009F02BCB1E821D8229CBDF93CF9300D0B0
:100A8000CDB7DEB79A83898389819A8184309105B5
:100A900099F18530910584F48130910521F18230FE
:100AA00091051CF40097E1F039C082309105F1F016
:100AB00083309105F1F032C08730910531F18830F3
:100AC00091053CF485309105D1F086309105D1F047
:100AD00025C088309105E1F089309105E1F01EC014
:100AE00080EC90E01CC089EF90E019C084EA90E0AF
:100AF00016C080EB90E013C089E990E010C082E955
:100B000090E00DC082E890E00AC088EF90E007C056
:100B100080E890E004C080E990E001C000C00F9040
:100B20000F90CF91DF910895EF92FF920F931F9353
:100B30007B018C0120E030E040E05FE40E9440094E
:100B400087FD11C0C801B70120E030E040E05FE45C
:100B50000E9437070E94000A9B01AC0120503040E0
:100B60004040504806C0C801B7010E94000A9B01DE
:100B7000AC01B901CA011F910F91FF90EF90089548
:100B8000A0E0B0E0E6ECF5E00C94670CFC01EA01B3
:100B90008081823008F438C1DB019C91923008F4E6
:100BA00030C1843059F4943009F02EC191811196EE
:100BB0008C911197981709F021C126C1943009F43E
:100BC00020C19230B1F4823009F01EC1CA01AF01D8
:100BD00028E0DA010D90AD01DC010D92CD0121502C
:100BE000C1F7DB0111968C9111979181892389833B
:100BF0000AC1823009F405C1C280D380DB0112969C
:100C00006D907C901397248135814681578114968D
:100C1000ED90FD900D911C911797C60186199709CB
:100C20005C0197FF04C0AA24BB24A81AB90AB0E249
:100C3000AB16B1040CF061C0181619066CF537013B
:100C400048010A2C04C096948794779467940A9478
:100C5000D2F781E090E0A0E0B0E00A2C04C0880F59
:100C6000991FAA1FBB1F0A94D2F70197A109B109C6
:100C70008E219F21A023B123EE24FF248701E3943A
:100C80000097A105B10519F4EE24FF248701E62899
:100C9000F728082919293CC00097D1F1CA0CDB1CA0
:100CA00039014A010A2C04C096948794779467947A
:100CB0000A94D2F781E090E0A0E0B0E00A2C04C0F2
:100CC000880F991FAA1FBB1F0A94D2F70197A10989
:100CD000B10982239323A423B52321E030E040E02F
:100CE00050E00097A105B10519F420E030E0A9011A
:100CF00026293729482959290BC06C147D0424F46E
:100D0000EE24FF24870104C0630120E030E0A90144
:100D10008181FB019181891709F445C0882349F03D
:100D2000D801C701821B930BA40BB50B9C01AD012D
:100D300004C02E193F09400B510B57FD04C0198206
:100D4000DB82CA820BC081E08983DB82CA82509534
:100D50004095309521953F4F4F4F5F4F2C833D83FA
:100D60004E835F830DC0880F991FAA1FBB1F8C8302
:100D70009D83AE83BF838A819B8101979B838A83F6
:100D80008C819D81AE81BF819C01AD01215030409D
:100D9000404050402F3FEFEF3E07EFEF4E07EFE3AD
:100DA0005E0708F30BC08983DB82CA822E0D3F1DCC
:100DB000401F511F2C833D834E835F8383E08883D4
:100DC0002C813D814E815F8157FF1DC0DA01C90131
:100DD00081709070A070B0705695479537952795A3
:100DE000822B932BA42BB52B8C839D83AE83BF8347
:100DF0008A819B8101969B838A8305C0E0E6F0E0AF
:100E000003C0FB0101C0FE01CF01CDB7DEB7EEE0AC
:100E10000C94830CA0E2B0E0E0E1F7E00C946F0CDE
:100E200069837A838B839C832D833E834F8358878A
:100E300089E0E82EF12CEC0EFD1ECE010196B701E3
:100E40000E947A0B8E010F5E1F4FCE010596B801EE
:100E50000E947A0BC701B801AE01475E5F4F0E9446
:100E6000C0050E94AC0AA096E6E00C948B0CA0E2B0
:100E7000B0E0EDE3F7E00C946F0C69837A838B8329
:100E80009C832D833E834F8358878E01075F1F4FBE
:100E9000CE010196B8010E947A0B91E1E92EF12C66
:100EA000EC0EFD1ECE010596B7010E947A0B8A89D1
:100EB00091E089278A8BC801B701AE01475E5F4F79
:100EC0000E94C0050E94AC0AA096E6E00C948B0C30
:100ED000A0E2B0E0EEE6F7E00C94630C69837A835D
:100EE0008B839C832D833E834F835887CE0101964D
:100EF000BE01675F7F4F0E947A0BCE010596BE014F
:100F00006F5E7F4F0E947A0B9985923078F08989C5
:100F10008230C0F0943019F4823041F4CBC0843078
:100F200019F4923079F4C6C0923051F481E02A85E8
:100F30009A89291709F480E08A87CE010996BCC0F6
:100F4000823051F481E02A859A89291709F480E0DA
:100F50008A8BCE014196B0C06D847E848F84988840
:100F6000ED88FE880F89188DE0E2F0E080E090E0E7
:100F7000DC01AA24BB24650120E030E0A901B30113
:100F80006170707061157105D1F02E0D3F1D401F0D
:100F9000511F15012601280E391E4A1E5B1E81E0D5
:100FA00090E0A0E0B0E02E153F054007510718F093
:100FB00080E090E0DC01820D931DA41DB51DAA0CFC
:100FC000BB1CCC1CDD1C17FF09C061E0262E312C98
:100FD000412C512CA228B328C428D528319749F098
:100FE000EE0CFF1C001F111F969487947794679452
:100FF000C6CF6B897C89EB85FC856E0F7F1F6E5F8A
:101000007F4F7C8F6B8F61E0EA857A89E71709F45F
:1010100060E06A8F6B8D7C8D10C0FC01E170F07018
:10102000309729F056954795379527955068B6958E
:10103000A795979587956F5F7F4FB7FDEECF0CC053
:10104000880F991FAA1FBB1F57FD8160220F331FF6
:10105000441F551F615070408030E0E09E07E0E083
:10106000AE07E0E4BE0760F36B8F7C8F6FE7E62E80
:10107000F12C012D112DE822F9220A231B2360E413
:10108000E616F1040105110561F487FD0AC021157A
:1010900031054105510529F0805C9F4FAF4FBF4F8F
:1010A00080788D8F9E8FAF8FB8A383E0898FCE011C
:1010B000499602C080E690E00E94AC0AA096E2E168
:1010C0000C947F0CA8E1B0E0E8E6F8E00C946B0C1F
:1010D00069837A838B839C832D833E834F835887D8
:1010E0008E01075F1F4FCE010196B8010E947A0B57
:1010F00081E1E82EF12CEC0EFD1ECE010596B70124
:101100000E947A0B9985923008F483C089898230D5
:1011100008F47BC02A853A8923272A87943011F066
:10112000923021F4981709F06CC071C0843039F402
:101130001D861E861F86188A1C861B866AC0823002
:1011400019F484E0898765C08B859C852B893C894F
:10115000821B930B9C878B872D853E854F855889F5
:10116000ED88FE880F89188D2E153F054007510721
:1011700038F4220F331F441F551F01979C878B871C
:101180006FE170E0A12CB12CC12CA0E4DA2E80E03C
:1011900090E0DC012E153F054007510740F08A29F9
:1011A0009B29AC29BD292E193F09400B510BD69420
:1011B000C794B794A794220F331F441F551F615043
:1011C000704041F76FE7E62EF12C012D112DE8223A
:1011D000F9220A231B2360E4E616F1040105110538
:1011E00061F487FD0AC0211531054105510529F03B
:1011F000805C9F4FAF4FBF4F80788D879E87AF87B2
:10120000B88B8E01075F1F4F04C0870102C000E644
:1012100010E0C8010E94AC0A6896EAE00C94870CC2
:10122000A8E1B0E0E6E1F9E00C946F0C69837A8301
:101230008B839C832D833E834F8358878E01075F6A
:101240001F4FCE010196B8010E947A0B81E1E82E72
:10125000F12CEC0EFD1ECE010596B7010E947A0B13
:101260008985823040F08989823028F0C801B70131
:101270000E94E30B01C08FEF6896E6E00C948B0CA4
:10128000A8E1B0E0E6E4F9E00C946F0C69837A839E
:101290008B839C832D833E834F8358878E01075F0A
:1012A0001F4FCE010196B8010E947A0B81E1E82E12
:1012B000F12CEC0EFD1ECE010596B7010E947A0BB3
:1012C0008985823040F08989823028F0C801B701D1
:1012D0000E94E30B01C08FEF6896E6E00C948B0C44
:1012E000A8E1B0E0E6E7F9E00C946F0C69837A833B
:1012F0008B839C832D833E834F8358878E01075FAA
:101300001F4FCE010196B8010E947A0B81E1E82EB1
:10131000F12CEC0EFD1ECE010596B7010E947A0B52
:101320008985823040F08989823028F0C801B70170
:101330000E94E30B01C081E06896E6E00C948B0C00
:10134000A8E0B0E0E6EAF9E00C946F0C7B018C01B8
:1013500083E08983D801C7018827B7FD8395992742
:10136000AA27BB27282F8A83E114F1040105110560
:1013700019F482E0898337C08EE190E09C838B83EF
:10138000222389F080E0E81680E0F80680E0080774
:1013900080E8180769F110950095F094E094E11C3D
:1013A000F11C011D111DED82FE820F831887C801FB
:1013B000B7010E94520A9C012150304012161306B8
:1013C00094F4022E04C0EE0CFF1C001F111F0A949F
:1013D000D2F7ED82FE820F8318878EE190E0821BA8
:1013E000930B9C838B83CE0101960E94AC0A04C0B0
:1013F00060E070E080E09FEC2896E6E00C948B0CB7
:10140000ACE0B0E0E6E0FAE00C94730C69837A8318
:101410008B839C83CE010196BE016B5F7F4F0E9440
:101420007A0B8D81823081F1823070F1843021F429
:101430008E81882369F10AC02F81388537FD24C049
:101440006E812F3131053CF0662311F120E030E050
:1014500040E050E821C08EE190E0821B930B29858B
:101460003A854B855C8504C05695479537952795F9
:101470008A95D2F7662381F0509540953095219555
:101480003F4F4F4F5F4F08C020E030E0A90104C03C
:101490002FEF3FEF4FEF5FE7B901CA012C96E2E073
:1014A0000C948F0CAF92BF92CF92DF92EF92FF928B
:1014B0000F931F937B018C0180E0E81680E0F80613
:1014C00081E0080780E0180758F4EFEFEE16F1040A
:1014D0000105110509F090F480E090E0DC0117C0EF
:1014E000F0E0EF16F0E0FF06F0E00F07F1E01F0775
:1014F00050F480E190E0A0E0B0E009C088E090E026
:10150000A0E0B0E004C088E190E0A0E0B0E020E21C
:1015100030E040E050E0281B390B4A0B5B0B5701D1
:10152000680104C0D694C794B794A7948A95D2F75B
:10153000D601C50188599F4FFC018081281B3109C4
:1015400041095109C9011F910F91FF90EF90DF9060
:10155000CF90BF90AF900895EF92FF920F931F939B
:10156000CF93DF93FC0124813581468157816181CE
:101570008081823020F44061EFEFF0E0A3C084303E
:1015800009F49BC0823009F492C021153105410550
:10159000510509F48FC00280F381E02D8FEFE2380E
:1015A000F8070CF05AC0C2E8DFEFCE1BDF0BCA31E0
:1015B000D1056CF579018A010C2E04C016950795AA
:1015C000F794E7940A94D2F781E090E0A0E0B0E0CD
:1015D0000C2E04C0880F991FAA1FBB1F0A94D2F7B4
:1015E0000197A109B10982239323A423B52321E004
:1015F00030E040E050E00097A105B10519F420E08B
:1016000030E0A9012E293F29402B512B03C020E0B7
:1016100030E0A901DA01C9018F779070A070B07035
:1016200080349105A105B10539F427FF09C0205C7C
:101630003F4F4F4F5F4F04C0215C3F4F4F4F5F4FB5
:10164000E1E0F0E0203080E0380780E0480780E407
:10165000580728F5E0E0F0E022C0E038F1056CF52D
:10166000E158FF4FDA01C9018F779070A070B07018
:1016700080349105A105B10539F427FF09C0205C2C
:101680003F4F4F4F5F4F04C0215C3F4F4F4F5F4F65
:1016900057FF05C05695479537952795319687E0B2
:1016A00056954795379527958A95D1F70BC0E0E079
:1016B000F0E005C0E0E0F0E005C0EFEFF0E020E092
:1016C00030E0A9018E2F879588278795942F9F77E3
:1016D000679566276795E695E22EA92FA82BFE2F22
:1016E000F62B622F732F8A2F9F2FCDB7DEB7E6E040
:1016F0000C948B0CDC01FB012C9111963C91119701
:1017000012968C911297482F4F7750E0982F991F7F
:101710009927991F13966C911397862F880F892B01
:1017200090E0661F6627661F6183009739F52115D3
:1017300031054105510511F482E029C082E89FEF8F
:101740009383828367E0220F331F441F551F6A95DE
:10175000D1F783E0808309C0220F331F441F551F38
:1017600082819381019793838283203080E03807C0
:1017700080E0480780E4580778F320C08F3F910548
:1017800079F4211531054105510519F484E0808370
:10179000089544FF03C081E0808310C010820EC012
:1017A0008F5790409383828383E0808387E0220F6A
:1017B000331F441F551F8A95D1F750642483358306
:1017C000468357830895FC01DB019081923008F431
:1017D00049C08C91823008F445C0943051F4618145
:1017E0008430B1F511962C91119730E0261B310908
:1017F00041C0843021F0923041F48230B1F1119631
:101800008C9111978823A1F12DC06181823001F163
:1018100011968C9111976817D9F422813381129611
:101820008D919C9113978217930794F0281739078D
:10183000BCF0248135814681578114968D919D910C
:101840000D90BC91A02D82179307A407B50718F43B
:10185000662341F00DC0281739074A075B0728F4B3
:10186000662331F021E030E005C020E030E002C026
:101870002FEF3FEFC901089597FB092E07260AD0E5
:1018800077FD04D00CD006D000201AF47095619535
:101890007F4F0895F6F7909581959F4F0895AA1B65
:1018A000BB1B51E107C0AA1FBB1FA617B70710F04B
:1018B000A61BB70B881F991F5A95A9F7809590957D
:1018C000BC01CD0108952F923F924F925F926F928B
:1018D0007F928F929F92AF92BF92CF92DF92EF92C0
:1018E000FF920F931F93CF93DF93CDB7DEB7CA1B41
:1018F000DB0B0FB6F894DEBF0FBECDBF09942A886C
:10190000398848885F846E847D848C849B84AA8413
:10191000B984C884DF80EE80FD800C811B81AA81A0
:10192000B981CE0FD11D0FB6F894DEBF0FBECDBF6B
:10193000ED010895A0E0B0E0E0EAFCE00C946B0C4F
:10194000EC01688179818A819B816115710581052E
:10195000910521F464E279ED8BE597E02DE133EF19
:1019600041E050E00E940D0D79018A0127EA31E43F
:1019700040E050E00E94EE0C5B016C01C801B70131
:101980002CEE34EF4FEF5FEF0E94EE0C6A0D7B1DE3
:101990008C1D9D1D97FF04C0615070408040904891
:1019A000688379838A839B837F77CB01CDB7DEB74A
:1019B000EAE00C94870C0E949A0C089588E691E066
:1019C0000E949A0C0895A0E0B0E080936801909383
:1019D0006901A0936A01B0936B010895629FD001E1
:1019E000739FF001829FE00DF11D649FE00DF11DDA
:1019F000929FF00D839FF00D749FF00D659FF00D89
:101A00009927729FB00DE11DF91F639FB00DE11D75
:101A1000F91FBD01CF011124089597FB092E05265A
:101A20000ED057FD04D014D00AD0001C38F45095C5
:101A30004095309521953F4F4F4F5F4F0895F6F7F2
:101A400090958095709561957F4F8F4F9F4F08952A
:101A5000A1E21A2EAA1BBB1BFD010DC0AA1FBB1FB2
:101A6000EE1FFF1FA217B307E407F50720F0A21B24
:101A7000B30BE40BF50B661F771F881F991F1A9491
:101A800069F760957095809590959B01AC01BD01BB
:081A9000CF010895F894FFCF87
:101A9800000000000000000000010202030303032D
:101AA80004040404040404040505050505050505E6
:101AB80005050505050505050606060606060606C6
:101AC80006060606060606060606060606060606AE
:101AD8000606060606060606070707070707070796
:101AE800070707070707070707070707070707077E
:101AF800070707070707070707070707070707076E
:101B0800070707070707070707070707070707075D
:101B18000707070707070707080808080808080845
:101B2800080808080808080808080808080808082D
:101B3800080808080808080808080808080808081D
:101B4800080808080808080808080808080808080D
:101B580008080808080808080808080808080808FD
:101B680008080808080808080808080808080808ED
:101B780008080808080808080808080808080808DD
:101B880008080808080808080808080808080808CD
:0C1B980008080808080808080100000000
:00000001FF
