:100000000C942A000C94030C0C9447000C944700A9
:100010000C9447000C9447000C9447000C94470044
:100020000C9447000C9447000C9447000C94470034
:100030000C9447000C9447000C9447000C94470024
:100040000C9447000C9447000C9447000C94470014
:100050000C94470011241FBECFE5D8E0DEBFCDBF12
:1000600010E0A0E6B0E0EEE8F9E202C005900D92E3
:10007000AC3BB107D9F710E0ACEBB0E001C01D928A
:10008000AE3DB107E1F70E940C060C94C5140C9428
:100090000000DF93CF930F92CDB7DEB789838981BC
:1000A000882F90E081709070882351F08BE390E06E
:1000B0002BE330E0F90120812061FC01208309C09D
:1000C0008BE390E02BE330E0F90120812F7EFC01EF
:1000D00020838981882F90E082709070009751F082
:1000E0008BE390E02BE330E0F90120812062FC01FA
:1000F000208309C08BE390E02BE330E0F9012081FD
:100100002F7DFC0120838981882F90E0847090707E
:10011000009751F08BE390E02BE330E0F901208170
:100120002064FC01208309C08BE390E02BE330E0E6
:10013000F90120812F7BFC0120838981882F90E0A9
:1001400088709070009751F08BE390E02BE330E0E3
:10015000F90120812068FC01208309C08BE390E035
:100160002BE330E0F90120812F77FC0120830F90F1
:10017000CF91DF9108950F931F93DF93CF93CDB766
:10018000DEB769970FB6F894DEBF0FBECDBF898F7B
:100190008BE390E02BE330E0F90120812260FC0149
:1001A0002083898D82958F700E9449008BE390E0B7
:1001B0002BE330E0F90120812D7FFC0120838BE3CC
:1001C00090E02BE330E0F90120812260FC012083E4
:1001D000898D0E9449008BE390E02BE330E0F90128
:1001E00020812D7FFC01208380E090E0A8E4B2E430
:1001F00089839A83AB83BC8369817A818B819C815B
:100200002BEA3AEA4AEA50E40E947410DC01CB017E
:100210008D839E83AF83B88711E06D817E818F814E
:10022000988520E030E040E85FE30E947C1288235C
:100230000CF010E0112319F081E08987A3C011E0D0
:100240006D817E818F81988520E030E04FE753E417
:100250000E941C1218160CF010E0112309F489C03A
:1002600069817A818B819C8120E030E04AE754E407
:100270000E946E11DC01CB018A879B87AC87BD870A
:100280006A857B858C859D8520E030E04AE755E4D2
:100290000E947410DC01CB018E879F87A88BB98BDD
:1002A00011E06E857F858889998920E030E040E8FB
:1002B0005FE30E947C1288230CF010E0112329F0E8
:1002C00081E090E09B8B8A8B46C011E06E857F8534
:1002D0008889998920E03FEF4FE757E40E941C127C
:1002E00018160CF010E0112361F16A857B858C856E
:1002F0009D8520E030E040E251E40E947410DC0172
:10030000CB01BC01CD010E94A00EDC01CB019B8B77
:100310008A8B12C080E991E09D8B8C8B8C899D89A2
:100320008C01C8010197F1F78C011D8B0C8B8A8918
:100330009B8901979B8B8A8B8A899B89009751F7B0
:1003400028C06E857F85888999890E94A00EDC016E
:10035000CB019B8B8A8B8A899B899F8B8E8B8E8905
:100360009F898C01F8013197F1F78F011F8B0E8B5C
:1003700010C06D817E818F8198850E94A00EDC0166
:10038000CB0189878985888F888D182F1A95F1F779
:10039000188F69960FB6F894DEBF0FBECDBFCF9110
:1003A000DF911F910F910895DF93CF930F92CDB7F7
:1003B000DEB789838BE390E02BE330E0F901208105
:1003C0002B7FFC01208389810E94BB000F90CF917D
:1003D000DF910895DF93CF930F92CDB7DEB7898376
:1003E0008BE390E02BE330E0F90120812460FC01F5
:1003F000208389810E94BB000F90CF91DF910895E7
:10040000DF93CF9300D0CDB7DEB79A8389830DC039
:1004100089819A81FC018081282F89819A810196A6
:100420009A838983822F0E94EA0189819A81FC0143
:100430008081882369F70F900F90CF91DF91089505
:10044000DF93CF9300D0CDB7DEB789836A838A81EB
:10045000982F9295990F990F907C8981890F8068C8
:100460000E94D4010F900F90CF91DF9108950F93C8
:100470001F93DF93CF93CDB7DEB72E970FB6F894C7
:10048000DEBF0FBECDBF81E00E94D40180E090E0CE
:10049000A0E0B0E489839A83AB83BC8369817A81CD
:1004A0008B819C8120E030E04AE755E40E94741083
:1004B000DC01CB018D839E83AF83B88711E06D8112
:1004C0007E818F81988520E030E040E85FE30E94E4
:1004D0007C1288230CF010E0112329F081E090E0D9
:1004E0009A87898746C011E06D817E818F819885CA
:1004F00020E03FEF4FE757E40E941C1218160CF063
:1005000010E0112361F169817A818B819C8120E067
:1005100030E040E251E40E947410DC01CB01BC01E8
:10052000CD010E94A00EDC01CB019A87898712C001
:1005300080E991E09C878B878B859C858C01C80125
:100540000197F1F78C011C870B8789859A850197A4
:100550009A87898789859A85009751F717C06D8199
:100560007E818F8198850E94A00EDC01CB019A8745
:10057000898789859A859E878D878D859E858C0143
:10058000C8010197F1F78C011E870D872E960FB6D3
:10059000F894DEBF0FBECDBFCF91DF911F910F91B9
:1005A00008950F931F93DF93CF93CDB7DEB72E97A8
:1005B0000FB6F894DEBF0FBECDBF82E00E94D4011B
:1005C00080E090E0A0E0B0E489839A83AB83BC83B1
:1005D00069817A818B819C8120E030E04AE755E493
:1005E0000E947410DC01CB018D839E83AF83B8879A
:1005F00011E06D817E818F81988520E030E040E8B8
:100600005FE30E947C1288230CF010E0112329F094
:1006100081E090E09A87898746C011E06D817E81F4
:100620008F81988520E03FEF4FE757E40E941C122E
:1006300018160CF010E0112361F169817A818B8129
:100640009C8120E030E040E251E40E947410DC0123
:10065000CB01BC01CD010E94A00EDC01CB019A8729
:10066000898712C080E991E09C878B878B859C8568
:100670008C01C8010197F1F78C011C870B878985D4
:100680009A8501979A87898789859A85009751F776
:1006900017C06D817E818F8198850E94A00EDC013C
:1006A000CB019A87898789859A859E878D878D85D5
:1006B0009E858C01C8010197F1F78C011E870D877B
:1006C0002E960FB6F894DEBF0FBECDBFCF91DF914F
:1006D0001F910F9108950F931F93DF93CF93CDB781
:1006E000DEB7E9970FB6F894DEBF0FBECDBF8AE341
:1006F00090E02AE330E0F90120812061FC012083B1
:100700008AE390E02AE330E0F90120812062FC01D5
:1007100020838AE390E02AE330E0F901208120641D
:10072000FC0120838AE390E02AE330E0F901208194
:100730002068FC0120838AE390E02AE330E0F9019D
:1007400020812260FC0120838AE390E02AE330E0EC
:10075000F90120812460FC01208380E090E0A0E783
:10076000B1E48A839B83AC83BD836A817B818C8166
:100770009D8120E030E04AE755E40E947410DC01DE
:10078000CB018E839F83A887B98711E06E817F811B
:100790008885998520E030E040E85FE30E947C1284
:1007A00088230CF010E0112329F081E090E09B8772
:1007B0008A8746C011E06E817F818885998520E017
:1007C0003FEF4FE757E40E941C1218160CF010E0A0
:1007D000112361F16A817B818C819D8120E030E071
:1007E00040E251E40E947410DC01CB01BC01CD0158
:1007F0000E94A00EDC01CB019B878A8712C080E992
:1008000091E09D878C878C859D858C01C80101971F
:10081000F1F78C011D870C878A859B8501979B8743
:100820008A878A859B85009751F717C06E817F81E3
:10083000888599850E94A00EDC01CB019B878A8761
:100840008A859B859F878E878E859F858C01F80181
:100850003197F1F78F011F870E878BE390E02BE331
:1008600030E0F90120812B7FFC0120838BE390E0B5
:100870002BE330E0F90120812D7FFC0120831982D8
:1008800098C08BE390E02BE330E0F90120812260F7
:10089000FC01208383E00E9449008BE390E02BE37E
:1008A00030E0F90120812D7FFC01208380E090E081
:1008B000A0EAB0E4888B998BAA8BBB8B6889798975
:1008C0008A899B8920E030E04AE755E40E94741051
:1008D000DC01CB018C8B9D8BAE8BBF8B11E06C89C7
:1008E0007D898E899F8920E030E040E85FE30E94A7
:1008F0007C1288230CF010E0112329F081E090E0B5
:10090000998F888F46C011E06C897D898E899F8977
:1009100020E03FEF4FE757E40E941C1218160CF03E
:1009200010E0112361F1688979898A899B8920E027
:1009300030E040E251E40E947410DC01CB01BC01C4
:10094000CD010E94A00EDC01CB01998F888F12C0CF
:1009500080E991E09B8F8A8F8A8D9B8D8C01C801E5
:100960000197F1F78C011B8F0A8F888D998D019764
:10097000998F888F888D998D009751F717C06C8952
:100980007D898E899F890E94A00EDC01CB01998F01
:10099000888F888D998D9D8F8C8F8C8D9D8D8C01EE
:1009A000F8013197F1F78F011D8F0C8F89818F5FCF
:1009B00089838981833008F464CF8BE390E02BE353
:1009C00030E0F90120812260FC01208382E00E9456
:1009D00049008BE390E02BE330E0F90120812D7F8B
:1009E000FC01208380E090E0A0E8BFE38E8F9F8F22
:1009F000A8A3B9A36E8D7F8D88A199A120E030E0D6
:100A00004AE755E40E947410DC01CB018AA39BA342
:100A1000ACA3BDA311E06AA17BA18CA19DA120E0A4
:100A200030E040E85FE30E947C1288230CF010E085
:100A3000112329F081E090E09FA38EA346C011E02E
:100A40006AA17BA18CA19DA120E03FEF4FE757E475
:100A50000E941C1218160CF010E0112361F16E8D2B
:100A60007F8D88A199A120E030E040E251E40E940E
:100A70007410DC01CB01BC01CD010E94A00EDC0191
:100A8000CB019FA38EA312C080E991E099A788A70C
:100A900088A599A58C01C8010197F1F78C0119A7C8
:100AA00008A78EA19FA101979FA38EA38EA19FA1AE
:100AB000009751F717C06AA17BA18CA19DA10E944C
:100AC000A00EDC01CB019FA38EA38EA19FA19BA7AB
:100AD0008AA78AA59BA58C01F8013197F1F78F01B0
:100AE0001BA70AA788E20E94D40188E00E94D401D3
:100AF00081E00E94D40180E090E0A0E0B0E48CA707
:100B00009DA7AEA7BFA76CA57DA58EA59FA520E03C
:100B100030E04AE755E40E947410DC01CB0188AB59
:100B200099ABAAABBBAB11E068A979A98AA99BA92B
:100B300020E030E040E85FE30E947C1288230CF064
:100B400010E0112329F081E090E09DAB8CAB46C012
:100B500011E068A979A98AA99BA920E03FEF4FE796
:100B600057E40E941C1218160CF010E0112361F1DA
:100B70006CA57DA58EA59FA520E030E040E251E464
:100B80000E947410DC01CB01BC01CD010E94A00EBB
:100B9000DC01CB019DAB8CAB12C080E991E09FAB37
:100BA0008EAB8EA99FA98C01C8010197F1F78C012A
:100BB0001FAB0EAB8CA99DA901979DAB8CAB8CA9EB
:100BC0009DA9009751F717C068A979A98AA99BA97F
:100BD0000E94A00EDC01CB019DAB8CAB8CA99DA922
:100BE00099AF88AF88AD99AD8C01F8013197F1F7D5
:100BF0008F0119AF08AF86E00E94D4018CE00E94FB
:100C0000D401E9960FB6F894DEBF0FBECDBFCF91E9
:100C1000DF911F910F9108950F931F93DF93CF934F
:100C2000CDB7DEB7C257D0400FB6F894DEBF0FBEC7
:100C3000CDBF1A82198207C01092C60089819A819D
:100C400001969A83898389819A8184319105A4F3DD
:100C500087E390E02FEFFC01208388E390E0FC0124
:100C600010828AE390E02FEFFC0120838BE390E079
:100C7000FC01108281E390E0FC01108282E390E0AD
:100C80002FEFFC01208382E390E022E330E0F901C2
:100C900020812460FC01208385E590E025E530E09B
:100CA000F9012081FC01208385E590E025E530E015
:100CB000F9012081FC0120838BE590E02BE530E0F9
:100CC000F90120812064FC01208378948CE78093D3
:100CD000DA0080E28093DC008AE390E02FEFFC01F1
:100CE00020838BE390E0FC0110820E946B030E9442
:100CF000370280E060E00E9420028DE790E00E94D1
:100D0000000280E090E0A6E9B2E48B839C83AD838F
:100D1000BE836B817C818D819E8120E030E04AE73B
:100D200055E40E947410DC01CB018F839887A9875A
:100D3000BA8711E06F81788589859A8520E030E057
:100D400040E85FE30E947C1288230CF010E011233E
:100D500029F081E090E09C878B8746C011E06F818D
:100D6000788589859A8520E03FEF4FE757E40E9418
:100D70001C1218160CF010E0112361F16B817C81BC
:100D80008D819E8120E030E040E251E40E947410A9
:100D9000DC01CB01BC01CD010E94A00EDC01CB0126
:100DA0009C878B8712C080E991E09E878D878D8517
:100DB0009E858C01C8010197F1F78C011E870D8774
:100DC0008B859C8501979C878B878B859C8500975D
:100DD00051F717C06F81788589859A850E94A00E8A
:100DE000DC01CB019C878B878B859C85988B8F87BB
:100DF0008F8598898C01F8013197F1F78F01188B55
:100E00000F8780E061E00E94200289E890E00E9464
:100E1000000280E090E0A6E9B2E4898B9A8BAB8B6C
:100E2000BC8B69897A898B899C8920E030E04AE70C
:100E300055E40E947410DC01CB018D8B9E8BAF8B2F
:100E4000B88F11E06D897E898F89988D20E030E020
:100E500040E85FE30E947C1288230CF010E011232D
:100E600029F081E090E09A8F898F46C011E06D896A
:100E70007E898F89988D20E03FEF4FE757E40E94ED
:100E80001C1218160CF010E0112361F169897A899F
:100E90008B899C8920E030E040E251E40E9474108C
:100EA000DC01CB01BC01CD010E94A00EDC01CB0115
:100EB0009A8F898F12C080E991E09C8F8B8F8B8DE8
:100EC0009C8D8C01C8010197F1F78C011C8F0B8F51
:100ED000898D9A8D01979A8F898F898D9A8D009728
:100EE00051F717C06D897E898F89988D0E94A00E59
:100EF000DC01CB019A8F898F898D9A8D9E8F8D8F82
:100F00008D8D9E8D8C01F8013197F1F78F011E8F29
:100F10000D8F8CE890E00E94000280E090E0A6E94E
:100F2000B2E48F8F98A3A9A3BAA36F8D78A189A1EA
:100F30009AA120E030E04AE755E40E947410DC01F9
:100F4000CB018BA39CA3ADA3BEA311E06BA17CA19D
:100F50008DA19EA120E030E040E85FE30E947C127A
:100F600088230CF010E0112329F081E090E098A78D
:100F70008FA346C011E06BA17CA18DA19EA120E0B2
:100F80003FEF4FE757E40E941C1218160CF010E0D8
:100F9000112361F16F8D78A189A19AA120E030E041
:100FA00040E251E40E947410DC01CB01BC01CD0190
:100FB0000E94A00EDC01CB0198A78FA312C080E98C
:100FC00091E09AA789A789A59AA58C01C8010197E4
:100FD000F1F78C011AA709A78FA198A5019798A7E7
:100FE0008FA38FA198A5009751F717C06BA17CA183
:100FF0008DA19EA10E94A00EDC01CB0198A78FA31A
:101000008FA198A59CA78BA78BA59CA58C01F80107
:101010003197F1F78F011CA70BA78FE890E00E9492
:10102000000280E090E0A6E9B2E48DA79EA7AFA7FA
:10103000B8AB6DA57EA58FA598A920E030E04AE762
:1010400055E40E947410DC01CB0189AB9AABABABC9
:10105000BCAB11E069A97AA98BA99CA920E030E07A
:1010600040E85FE30E947C1288230CF010E011231B
:1010700029F081E090E09EAB8DAB46C011E069A9FC
:101080007AA98BA99CA920E03FEF4FE757E40E9483
:101090001C1218160CF010E0112361F16DA57EA54D
:1010A0008FA598A920E030E040E251E40E9474103E
:1010B000DC01CB01BC01CD010E94A00EDC01CB0103
:1010C0009EAB8DAB12C080E991E098AF8FAB8FA93A
:1010D00098AD8C01C8010197F1F78C0118AF0FABE7
:1010E0008DA99EA901979EAB8DAB8DA99EA9009756
:1010F00051F717C069A97AA98BA99CA90E94A00ED3
:10110000DC01CB019EAB8DAB8DA99EA99AAF89AFB7
:1011100089AD9AAD8C01F8013197F1F78F011AAFC3
:1011200009AF82E990E00E94000280E090E0A6E929
:10113000B2E48BAF9CAFADAFBEAF8E01015C1F4F71
:101140006BAD7CAD8DAD9EAD20E030E04AE755E45F
:101150000E947410DC01CB01F80180839183A2838B
:10116000B383CE01CF9611E0FC0160817181828151
:10117000938120E030E040E85FE30E947C12882306
:101180000CF010E0112349F0CE018D5B9F4F21E060
:1011900030E0FC01318320836EC0CE01CF9611E098
:1011A000FC01608171818281938120E03FEF4FE7F4
:1011B00057E40E941C1218160CF010E0112309F4D9
:1011C00049C06BAD7CAD8DAD9EAD20E030E040E21E
:1011D00051E40E947410DC01CB018E010D5B1F4FA6
:1011E000BC01CD010E94A00EDC01CB01F80191836E
:1011F000808327C0CE018B5B9F4F20E931E0FC014B
:1012000031832083CE018B5B9F4FFC0180819181D4
:101210008C01C8010197F1F78C01CE018B5B9F4FC8
:10122000FC0111830083CE018D5B9F4F9E012D5BDE
:101230003F4FF9012081318121503040FC01318341
:101240002083CE018D5B9F4FFC01808191810097AF
:1012500089F62EC08E010D5B1F4FCE01CF96FC018B
:1012600060817181828193810E94A00EDC01CB019B
:10127000F80191838083CE01895B9F4F9E012D5B96
:101280003F4FF90120813181FC0131832083CE0160
:10129000895B9F4FFC01808191818C01C80101977E
:1012A000F1F78C01CE01895B9F4FFC011183008314
:1012B0000E94370280E060E00E9420029E01275BCE
:1012C0003F4F80E090E0A0E2B1E4F9018083918398
:1012D000A283B3838E01035B1F4FCE01875B9F4FB9
:1012E000FC01608171818281938120E030E04AE7D6
:1012F00055E40E947410DC01CB01F80180839183D6
:10130000A283B383CE01835B9F4F11E0FC01608118
:1013100071818281938120E030E040E85FE30E94A8
:101320007C1288230CF010E0112349F0CE018F5A73
:101330009F4F21E030E0FC013183208374C0CE0157
:10134000835B9F4F11E0FC016081718182819381F9
:1013500020E03FEF4FE757E40E941C1218160CF0F4
:1013600010E0112309F44DC0CE01875B9F4FFC01B3
:10137000608171818281938120E030E040E251E41C
:101380000E947410DC01CB018E010F5A1F4FBC016B
:10139000CD010E94A00EDC01CB01F8019183808376
:1013A00027C0CE018D5A9F4F20E931E0FC013183E7
:1013B0002083CE018D5A9F4FFC01808191818C0149
:1013C000C8010197F1F78C01CE018D5A9F4FFC01A6
:1013D00011830083CE018F5A9F4F9E012F5A3F4F9A
:1013E000F9012081318121503040FC01318320837B
:1013F000CE018F5A9F4FFC0180819181009789F621
:101400002FC08E010F5A1F4FCE01835B9F4FFC01EF
:1014100060817181828193810E94A00EDC01CB01E9
:10142000F80191838083CE018B5A9F4F9E012F5AE2
:101430003F4FF90120813181FC0131832083CE01AE
:101440008B5A9F4FFC01808191818C01C8010197CB
:10145000F1F78C01CE018B5A9F4FFC011183008361
:101460000E94370280E060E00E94200289E990E05B
:101470000E94000280E061E00E9420028091C20090
:101480009091C300805A9F4FFC0180818093DA00C5
:101490008AED90E00E9400028091BC009091BD0016
:1014A00061E00E9420029E01295A3F4F80E090E0B7
:1014B000A0EFB1E4F90180839183A283B3838E010D
:1014C000055A1F4FCE01895A9F4FFC0160817181DF
:1014D0008281938120E030E04AE755E40E94741055
:1014E000DC01CB01F80180839183A283B383CE0119
:1014F000855A9F4F11E0FC01608171818281938147
:1015000020E030E040E85FE30E947C1288230CF08A
:1015100010E0112349F0CE01815A9F4F21E030E0C5
:10152000FC013183208374C0CE01855A9F4F11E0A6
:10153000FC01608171818281938120E03FEF4FE760
:1015400057E40E941C1218160CF010E0112309F445
:101550004DC0CE01895A9F4FFC016081718182810B
:10156000938120E030E040E251E40E947410DC01FD
:10157000CB018E01015A1F4FBC01CD010E94A00E6C
:10158000DC01CB01F8019183808327C0CE018F5904
:101590009F4F20E931E0FC0131832083CE018F5938
:1015A0009F4FFC01808191818C01C8010197F1F767
:1015B0008C01CE018F599F4FFC0111830083CE0116
:1015C000815A9F4F9E01215A3F4FF901208131815D
:1015D00021503040FC0131832083CE01815A9F4F3E
:1015E000FC0180819181009789F62FC08E01015AFC
:1015F0001F4FCE01855A9F4FFC016081718182810E
:1016000093810E94A00EDC01CB01F80191838083BD
:10161000CE018D599F4F9E01215A3F4FF9012081E4
:101620003181FC0131832083CE018D599F4FFC0114
:10163000808191818C01C8010197F1F78C01CE0165
:101640008D599F4FFC01118300838FE990E00E9428
:1016500000028091BC009091BD0061E00E942002D8
:101660009E012B593F4F80E090E0A0EFB1E4F901DB
:1016700080839183A283B3838E0107591F4FCE01CC
:101680008B599F4FFC01608171818281938120E0A1
:1016900030E04AE755E40E947410DC01CB01F80108
:1016A00080839183A283B383CE0187599F4F11E03A
:1016B000FC01608171818281938120E030E040E80B
:1016C0005FE30E947C1288230CF010E0112349F0A4
:1016D000CE0183599F4F21E030E0FC01318320830C
:1016E00074C0CE0187599F4F11E0FC016081718168
:1016F0008281938120E03FEF4FE757E40E941C1264
:1017000018160CF010E0112309F44DC0CE018B59CE
:101710009F4FFC01608171818281938120E030E0E4
:1017200040E251E40E947410DC01CB018E010359A8
:101730001F4FBC01CD010E94A00EDC01CB01F801BE
:101740009183808327C0CE0181599F4F20E931E0EA
:10175000FC0131832083CE0181599F4FFC018081A0
:1017600091818C01C8010197F1F78C01CE0181595B
:101770009F4FFC0111830083CE0183599F4F9E012F
:1017800023593F4FF9012081318121503040FC0124
:1017900031832083CE0183599F4FFC018081918149
:1017A000009789F66BCE8E0103591F4FCE018759E2
:1017B0009F4FFC0160817181828193810E94A00E04
:1017C000DC01CB01F80191838083CE018F589F4FBC
:1017D0009E0123593F4FF90120813181FC01318362
:1017E0002083CE018F589F4FFC01808191818C0115
:1017F000C8010197F1F78C01CE018F589F4FFC0172
:10180000118300833BCE1F920F920FB60F921124CB
:101810000F931F932F933F934F935F936F937F93F8
:101820008F939F93AF93BF93EF93FF93DF93CF93E8
:10183000CDB7DEB7AA97DEBFCDBF8091C000909133
:10184000C1008130910509F425C281E090E09093B8
:10185000C1008093C00080E390E0FC018081882F6C
:1018600090E080719070009709F091C08091C20063
:101870009091C30001969093C3008093C20080E0D2
:1018800090E0A8ECB1E489839A83AB83BC8369813F
:101890007A818B819C8120E030E04AE755E40E9408
:1018A0007410DC01CB018D839E83AF83B88711E078
:1018B0006D817E818F81988520E030E040E85FE394
:1018C0000E947C1288230CF010E0112329F081E0A3
:1018D00090E09A87898746C011E06D817E818F8173
:1018E000988520E03FEF4FE757E40E941C1218163E
:1018F0000CF010E0112361F169817A818B819C8168
:1019000020E030E040E251E40E947410DC01CB01A1
:10191000BC01CD010E94A00EDC01CB019A87898712
:1019200012C080E991E09C878B878B859C858C0118
:10193000C8010197F1F78C011C870B8789859A856F
:1019400001979A87898789859A85009751F717C0EB
:101950006D817E818F8198850E94A00EDC01CB0174
:101960009A87898789859A859E878D878D859E85AB
:101970008C01F8013197F1F78F011E870D8783E6FF
:101980009EE0FC01099584E89EE0FC01099580E356
:1019900090E0FC018081882F90E080729070009729
:1019A00009F091C08091C2009091C300019790937B
:1019B000C3008093C20080E090E0A8ECB1E48F8780
:1019C000988BA98BBA8B6F85788989899A8920E051
:1019D00030E04AE755E40E947410DC01CB018B8BA8
:1019E0009C8BAD8BBE8B11E06B897C898D899E8928
:1019F00020E030E040E85FE30E947C1288230CF096
:101A000010E0112329F081E090E0988F8F8B46C081
:101A100011E06B897C898D899E8920E03FEF4FE73B
:101A200057E40E941C1218160CF010E0112361F10B
:101A30006F85788989899A8920E030E040E251E415
:101A40000E947410DC01CB01BC01CD010E94A00EEC
:101A5000DC01CB01988F8F8B12C080E991E09A8FC7
:101A6000898F898D9A8D8C01C8010197F1F78C01BE
:101A70001A8F098F8F89988D0197988F8F8B8F89F7
:101A8000988D009751F717C06B897C898D899E8945
:101A90000E94A00EDC01CB01988F8F8B8F89988DCF
:101AA0009C8F8B8F8B8D9C8D8C01F8013197F1F77A
:101AB0008F011C8F0B8F83E69EE0FC01099584E863
:101AC0009EE0FC01099580E390E0FC018081882F75
:101AD00090E080749070009709F0BDC084E89EE0AB
:101AE000FC0109958091C2009091C300009779F4A0
:101AF0008091C4009091C5002FE930E08A539F4F38
:101B0000FC0120838FE990E00E9400020EC08091CA
:101B1000C4009091C5002AED30E08A539F4FFC012C
:101B200020838AED90E00E9400028091BC00909199
:101B3000BD0001969093BD008093BC001092C3003D
:101B40001092C2008091C4009091C50001969093BC
:101B5000C5008093C40080E090E0A8ECB1E48D8FD4
:101B60009E8FAF8FB8A36D8D7E8D8F8D98A120E055
:101B700030E04AE755E40E947410DC01CB0189A3F0
:101B80009AA3ABA3BCA311E069A17AA18BA19CA1EC
:101B900020E030E040E85FE30E947C1288230CF0F4
:101BA00010E0112329F081E090E09EA38DA346C0B0
:101BB00011E069A17AA18BA19CA120E03FEF4FE742
:101BC00057E40E941C1218160CF010E0112361F16A
:101BD0006D8D7E8D8F8D98A120E030E040E251E444
:101BE0000E947410DC01CB01BC01CD010E94A00E4B
:101BF000DC01CB019EA38DA312C080E991E098A7E0
:101C00008FA38FA198A58C01C8010197F1F78C01D2
:101C100018A70FA38DA19EA101979EA38DA38DA1AF
:101C20009EA1009751F717C069A17AA18BA19CA131
:101C30000E94A00EDC01CB019EA38DA38DA19EA1CD
:101C40009AA789A789A59AA58C01F8013197F1F780
:101C50008F011AA709A780E390E0FC018081882307
:101C6000A4F00E9437020E94D10281EA90E00E9413
:101C7000000280E061E00E94200287EA90E00E947A
:101C8000000280E090E00E94C5141092C100109202
:101C9000C00001C00000AA96DEBFCDBFCF91DF918A
:101CA000FF91EF91BF91AF919F918F917F916F9134
:101CB0005F914F913F912F911F910F910F900FBE08
:101CC0000F901F901895DF93CF93CDB7DEB780911B
:101CD000C2009091C3001816190634F08AE190E012
:101CE0009093C3008093C2008091C2009091C30082
:101CF0008B31910534F081E090E09093C3008093A4
:101D0000C200CF91DF910895DF93CF93CDB7DEB7B7
:101D10008091C2009091C300805A9F4FFC01808146
:101D20008093DA008AED90E00E9400028091BC006E
:101D30009091BD0061E00E942002CF91DF91089553
:101D4000EF92FF920F931F937B018C0120E030E014
:101D500040E05FE40E944C1287FD11C0C801B7014A
:101D600020E030E040E05FE40E9443100E94AC12AB
:101D70009B01AC01205030404040504806C0C80193
:101D8000B7010E94AC129B01AC01B901CA011F91BD
:101D90000F91FF90EF900895A0E0B0E0E2EDFEE03B
:101DA0000C949214FC01EA018081823008F438C15D
:101DB000DB019C91923008F430C1843059F49430A6
:101DC00009F02EC1918111968C911197981709F005
:101DD00021C126C1943009F420C19230B1F482307F
:101DE00009F01EC1CA01AF0128E0DA010D90AD0172
:101DF000DC010D92CD012150C1F7DB0111968C91D0
:101E000011979181892389830AC1823009F405C120
:101E1000C280D380DB0112966D907C901397248151
:101E20003581468157811496ED90FD900D911C915E
:101E30001797C601861997095C0197FF04C0AA2469
:101E4000BB24A81AB90AB0E2AB16B1040CF061C009
:101E5000181619066CF5370148010A2C04C096942F
:101E60008794779467940A94D2F781E090E0A0E099
:101E7000B0E00A2C04C0880F991FAA1FBB1F0A9448
:101E8000D2F70197A109B1098E219F21A023B12387
:101E9000EE24FF248701E3940097A105B10519F40E
:101EA000EE24FF248701E628F728082919293CC0D9
:101EB0000097D1F1CA0CDB1C39014A010A2C04C07D
:101EC00096948794779467940A94D2F781E090E08F
:101ED000A0E0B0E00A2C04C0880F991FAA1FBB1F06
:101EE0000A94D2F70197A109B10982239323A4236D
:101EF000B52321E030E040E050E00097A105B105B6
:101F000019F420E030E0A901262937294829592968
:101F10000BC06C147D0424F4EE24FF24870104C05C
:101F2000630120E030E0A9018181FB0191818917E3
:101F300009F445C0882349F0D801C701821B930BDF
:101F4000A40BB50B9C01AD0104C02E193F09400B39
:101F5000510B57FD04C01982DB82CA820BC081E09D
:101F60008983DB82CA8250954095309521953F4FF9
:101F70004F4F5F4F2C833D834E835F830DC0880F8F
:101F8000991FAA1FBB1F8C839D83AE83BF838A8149
:101F90009B8101979B838A838C819D81AE81BF81C8
:101FA0009C01AD0121503040404050402F3FEFEFA9
:101FB0003E07EFEF4E07EFE35E0708F30BC08983A0
:101FC000DB82CA822E0D3F1D401F511F2C833D8393
:101FD0004E835F8383E088832C813D814E815F81C6
:101FE00057FF1DC0DA01C90181709070A070B070F8
:101FF0005695479537952795822B932BA42BB52B78
:102000008C839D83AE83BF838A819B8101969B8352
:102010008A8305C0E4EBF0E003C0FB0101C0FE01D0
:10202000CF01CDB7DEB7EEE00C94AE14A0E2B0E085
:10203000ECE1F0E10C949A1469837A838B839C839E
:102040002D833E834F83588789E0E82EF12CEC0ED8
:10205000FD1ECE010196B7010E94CC138E010F5ECA
:102060001F4FCE010596B8010E94CC13C701B801DD
:10207000AE01475E5F4F0E94CC0E0E94FE12A096FA
:10208000E6E00C94B614A0E2B0E0E9E4F0E10C94D0
:102090009A1469837A838B839C832D833E834F8339
:1020A00058878E01075F1F4FCE010196B8010E942D
:1020B000CC1391E1E92EF12CEC0EFD1ECE0105961C
:1020C000B7010E94CC138A8991E089278A8BC801C5
:1020D000B701AE01475E5F4F0E94CC0E0E94FE1218
:1020E000A096E6E00C94B614A0E2B0E0EAE7F0E1D6
:1020F0000C948E1469837A838B839C832D833E8317
:102100004F835887CE010196BE01675F7F4F0E94C3
:10211000CC13CE010596BE016F5E7F4F0E94CC139B
:102120009985923078F089898230C0F0943019F422
:10213000823041F4CBC0843019F4923079F4C6C0B7
:10214000923051F481E02A859A89291709F480E0B8
:102150008A87CE010996BCC0823051F481E02A857D
:102160009A89291709F480E08A8BCE014196B0C084
:102170006D847E848F849888ED88FE880F89188D01
:10218000E0E2F0E080E090E0DC01AA24BB246501FD
:1021900020E030E0A901B301617070706115710534
:1021A000D1F02E0D3F1D401F511F15012601280E95
:1021B000391E4A1E5B1E81E090E0A0E0B0E02E15C3
:1021C0003F054007510718F080E090E0DC01820DE8
:1021D000931DA41DB51DAA0CBB1CCC1CDD1C17FF38
:1021E00009C061E0262E312C412C512CA228B328A5
:1021F000C428D528319749F0EE0CFF1C001F111F91
:102200009694879477946794C6CF6B897C89EB8585
:10221000FC856E0F7F1F6E5F7F4F7C8F6B8F61E041
:10222000EA857A89E71709F460E06A8F6B8D7C8D07
:1022300010C0FC01E170F070309729F05695479579
:10224000379527955068B695A795979587956F5FB1
:102250007F4FB7FDEECF0CC0880F991FAA1FBB1F81
:1022600057FD8160220F331F441F551F615070407E
:102270008030E0E09E07E0E0AE07E0E4BE0760F3F8
:102280006B8F7C8F6FE7E62EF12C012D112DE8224C
:10229000F9220A231B2360E4E616F1040105110567
:1022A00061F487FD0AC0211531054105510529F06A
:1022B000805C9F4FAF4FBF4F80788D8F9E8FAF8FC9
:1022C000B8A383E0898FCE01499602C084EB90E0E9
:1022D0000E94FE12A096E2E10C94AA14A8E1B0E0DC
:1022E000E4E7F1E10C94961469837A838B839C83F1
:1022F0002D833E834F8358878E01075F1F4FCE018A
:102300000196B8010E94CC1381E1E82EF12CEC0E6D
:10231000FD1ECE010596B7010E94CC13998592301F
:1023200008F483C08989823008F47BC02A853A8901
:1023300023272A87943011F0923021F4981709F05E
:102340006CC071C0843039F41D861E861F86188AC1
:102350001C861B866AC0823019F484E0898765C0B8
:102360008B859C852B893C89821B930B9C878B8753
:102370002D853E854F855889ED88FE880F89188DFB
:102380002E153F054007510738F4220F331F441F15
:10239000551F01979C878B876FE170E0A12CB12CB2
:1023A000C12CA0E4DA2E80E090E0DC012E153F0580
:1023B0004007510740F08A299B29AC29BD292E19D5
:1023C0003F09400B510BD694C794B794A794220FA2
:1023D000331F441F551F6150704041F76FE7E62ED1
:1023E000F12C012D112DE822F9220A231B2360E490
:1023F000E616F1040105110561F487FD0AC02115F7
:1024000031054105510529F0805C9F4FAF4FBF4F0B
:1024100080788D879E87AF87B88B8E01075F1F4FAF
:1024200004C0870102C004EB10E0C8010E94FE1244
:102430006896EAE00C94B214A8E1B0E0E2E2F2E1BE
:102440000C949A1469837A838B839C832D833E83B7
:102450004F8358878E01075F1F4FCE010196B80149
:102460000E94CC1381E1E82EF12CEC0EFD1ECE0172
:102470000596B7010E94CC138985823040F0898986
:10248000823028F0C801B7010E94351401C08FEFD7
:102490006896E6E00C94B614A8E1B0E0E2E5F2E15B
:1024A0000C949A1469837A838B839C832D833E8357
:1024B0004F8358878E01075F1F4FCE010196B801E9
:1024C0000E94CC1381E1E82EF12CEC0EFD1ECE0112
:1024D0000596B7010E94CC138985823040F0898926
:1024E000823028F0C801B7010E94351401C08FEF77
:1024F0006896E6E00C94B614A8E1B0E0E2E8F2E1F8
:102500000C949A1469837A838B839C832D833E83F6
:102510004F8358878E01075F1F4FCE010196B80188
:102520000E94CC1381E1E82EF12CEC0EFD1ECE01B1
:102530000596B7010E94CC138985823040F08989C5
:10254000823028F0C801B7010E94351401C081E033
:102550006896E6E00C94B614ACE0B0E0E2EBF2E191
:102560000C949E1469837A838B839C83CE0101969D
:10257000BE016B5F7F4F0E94CC138D81823081F151
:10258000823070F1843021F48E81882369F10AC091
:102590002F81388537FD24C06E812F3131053CF005
:1025A000662311F120E030E040E050E821C08EE1E8
:1025B00090E0821B930B29853A854B855C8504C08E
:1025C00056954795379527958A95D2F7662381F0DA
:1025D00050954095309521953F4F4F4F5F4F08C024
:1025E00020E030E0A90104C02FEF3FEF4FEF5FE79D
:1025F000B901CA012C96E2E00C94BA14EF92FF9252
:102600000F931F93CF93DF93FC0124813581468183
:10261000578161818081823020F44061EFEFF0E0EA
:10262000A3C0843009F49BC0823009F492C0211504
:1026300031054105510509F48FC00280F381E02D79
:102640008FEFE238F8070CF05AC0C2E8DFEFCE1B7C
:10265000DF0BCA31D1056CF579018A010C2E04C05B
:1026600016950795F794E7940A94D2F781E090E0E5
:10267000A0E0B0E00C2E04C0880F991FAA1FBB1F5A
:102680000A94D2F70197A109B10982239323A423C5
:10269000B52321E030E040E050E00097A105B1050E
:1026A00019F420E030E0A9012E293F29402B512BBD
:1026B00003C020E030E0A901DA01C9018F779070F2
:1026C000A070B07080349105A105B10539F427FFE1
:1026D00009C0205C3F4F4F4F5F4F04C0215C3F4F0C
:1026E0004F4F5F4FE1E0F0E0203080E0380780E0BE
:1026F000480780E4580728F5E0E0F0E022C0E03821
:10270000F1056CF5E158FF4FDA01C9018F77907040
:10271000A070B07080349105A105B10539F427FF90
:1027200009C0205C3F4F4F4F5F4F04C0215C3F4FBB
:102730004F4F5F4F57FF05C05695479537952795E3
:10274000319687E056954795379527958A95D1F725
:102750000BC0E0E0F0E005C0E0E0F0E005C0EFEF26
:10276000F0E020E030E0A9018E2F8795882787953B
:10277000942F9F77679566276795E695E22EA92F98
:10278000A82BFE2FF62B622F732F8A2F9F2FCDB7EA
:10279000DEB7E6E00C94B614DC01FB012C91119637
:1027A0003C91119712968C911297482F4F7750E0D9
:1027B000982F991F9927991F13966C911397862F1D
:1027C000880F892B90E0661F6627661F618300973C
:1027D00039F5211531054105510511F482E029C073
:1027E00082E89FEF9383828367E0220F331F441FA9
:1027F000551F6A95D1F783E0808309C0220F331FEC
:10280000441F551F828193810197938382832030D7
:1028100080E0380780E0480780E4580778F320C05C
:102820008F3F910579F4211531054105510519F4C2
:1028300084E08083089544FF03C081E0808310C05A
:1028400010820EC08F5790409383828383E08083F1
:1028500087E0220F331F441F551F8A95D1F750641C
:1028600024833583468357830895FC01DB019081DF
:10287000923008F449C08C91823008F445C09430FD
:1028800051F461818430B1F511962C91119730E0AB
:10289000261B310941C0843021F0923041F482304E
:1028A000B1F111968C9111978823A1F12DC061810E
:1028B000823001F111968C9111976817D9F4228119
:1028C000338112968D919C9113978217930794F000
:1028D00028173907BCF02481358146815781149629
:1028E0008D919D910D90BC91A02D82179307A40707
:1028F000B50718F4662341F00DC0281739074A07B9
:102900005B0728F4662331F021E030E005C020E0C9
:1029100030E002C02FEF3FEFC90108952F923F92A0
:102920004F925F926F927F928F929F92AF92BF92DF
:10293000CF92DF92EF92FF920F931F93CF93DF938B
:10294000CDB7DEB7CA1BDB0B0FB6F894DEBF0FBEE8
:10295000CDBF09942A88398848885F846E847D8435
:102960008C849B84AA84B984C884DF80EE80FD8037
:102970000C811B81AA81B981CE0FD11D0FB6F894AD
:0E298000DEBF0FBECDBFED010895F894FFCF6E
:10298E007C6162636465666768696A6B6C6D6E6FA5
:10299E00707172737475767778797A7C0057706976
:1029AE00737A20696D69653A003320003220003158
:1029BE002000546572617A2000496D69653A0020E5
:1029CE0000437A657363004A616B206C6563693FEF
:0C29DE00203A290000000000000000006A
:00000001FF
