:100000000C942A000C943F000C943F000C943F0089
:100010000C943F000C943F000C943F000C943F0064
:100020000C943F000C943F000C943F000C943F0054
:100030000C943F000C943F000C943F000C943F0044
:100040000C943F000C943F000C943F000C943F0034
:100050000C943F0011241FBECFE5D8E0DEBFCDBF1A
:1000600010E0A0E6B0E0EAE8FBE102C005900D92E6
:10007000A836B107D9F70E9441000C94C30D0C9427
:1000800000000F931F93DF93CF93CDB7DEB7C15915
:10009000D0400FB6F894DEBF0FBECDBF8AE390E02C
:1000A0002FEFFC01208387E390E02FEFFC012083FA
:1000B00081E390E0FC01108282E390E02FEFFC01ED
:1000C00020838BE390E025E5FC01208380E090E035
:1000D000A6E9B3E48E839F83A887B9876E817F8169
:1000E0008885998520E030E04AE753E40E940B0AB6
:1000F000DC01CB018A879B87AC87BD8711E06A85CD
:100100007B858C859D8520E030E040E85FE30E94A0
:10011000650B88230CF010E0112329F081E090E0BA
:100120009F878E8746C011E06A857B858C859D857B
:1001300020E03FEF4FE757E40E94050B18160CF044
:1001400010E0112361F16E817F818885998520E01F
:1001500030E040E251E40E940B0ADC01CB01BC011B
:10016000CD010E943708DC01CB019F878E8712C02A
:1001700089E190E0998B888B888999898C01C801E5
:100180000197F1F78C01198B088B8E859F8501975C
:100190009F878E878E859F85009751F717C06A8548
:1001A0007B858C859D850E943708DC01CB019F876C
:1001B0008E878E859F859B8B8A8B8A899B898C01F4
:1001C000F8013197F1F78F011B8B0A8B8BE390E0DD
:1001D0002AEAFC01208380E090E0A6E9B3E48C8B5E
:1001E0009D8BAE8BBF8B6C897D898E899F8920E02A
:1001F00030E04AE753E40E940B0ADC01CB01888F10
:10020000998FAA8FBB8F11E0688D798D8A8D9B8D18
:1002100020E030E040E85FE30E94650B88230CF0AB
:1002200010E0112329F081E090E09D8F8C8F46C073
:1002300011E0688D798D8A8D9B8D20E03FEF4FE72F
:1002400057E40E94050B18160CF010E0112361F121
:100250006C897D898E899F8920E030E040E251E4FD
:100260000E940B0ADC01CB01BC01CD010E943708C2
:10027000DC01CB019D8F8C8F12C089E190E09F8FB4
:100280008E8F8E8D9F8D8C01C8010197F1F78C01A7
:100290001F8F0E8F8C8D9D8D01979D8F8C8F8C8DD8
:1002A0009D8D009751F717C0688D798D8A8D9B8D34
:1002B0000E943708DC01CB019D8F8C8F8C8D9D8D2A
:1002C00099A388A388A199A18C01F8013197F1F72E
:1002D0008F0119A308A38BE390E0FC0110821A821E
:1002E000198201C0000080E390E0FC0180818095CC
:1002F0008F778D838D81882371F48BE390E02D813E
:10030000FC01208308E310E08D810E94EB07F801D7
:1003100080830000E8CF8BE390E02D81FC012083F7
:1003200008E310E08D810E94EB07F801808389814A
:100330009A816D810E94B60D80E090E0A8ECB3E454
:100340008AA39BA3ACA3BDA36AA17BA18CA19DA101
:1003500020E030E04AE753E40E940B0ADC01CB01C5
:100360008EA39FA3A8A7B9A711E06EA17FA188A51E
:1003700099A520E030E040E85FE30E94650B882308
:100380000CF010E0112329F081E090E09BA78AA7F0
:1003900046C011E06EA17FA188A599A520E03FEF9E
:1003A0004FE757E40E94050B18160CF010E01123DC
:1003B00061F16AA17BA18CA19DA120E030E040E227
:1003C00051E40E940B0ADC01CB01BC01CD010E946B
:1003D0003708DC01CB019BA78AA712C089E190E016
:1003E0009DA78CA78CA59DA58C01C8010197F1F74D
:1003F0008C011DA70CA78AA59BA501979BA78AA77F
:100400008AA59BA5009751F717C06EA17FA188A56B
:1004100099A50E943708DC01CB019BA78AA78AA572
:100420009BA59FA78EA78EA59FA58C01F80131974C
:10043000F1F78F011FA70EA789819A8101969A83F0
:10044000898389819A818A30910509F04BCF1A827C
:10045000198288E390E02FEFFC0120838BE390E08A
:1004600025E5FC01208380E090E0A6E9B3E488ABB9
:1004700099ABAAABBBAB68A979A98AA99BA920E0D3
:1004800030E04AE753E40E940B0ADC01CB018CAB5D
:100490009DABAEABBFAB11E06CA97DA98EA99FA9A6
:1004A00020E030E040E85FE30E94650B88230CF019
:1004B00010E0112329F081E090E099AF88AF46C0A9
:1004C00011E06CA97DA98EA99FA920E03FEF4FE71D
:1004D00057E40E94050B18160CF010E0112361F18F
:1004E00068A979A98AA99BA920E030E040E251E4FB
:1004F0000E940B0ADC01CB01BC01CD010E94370830
:10050000DC01CB0199AF88AF12C089E190E09BAFCD
:100510008AAF8AAD9BAD8C01C8010197F1F78C01C0
:100520001BAF0AAF88AD99AD019799AF88AF88AD81
:1005300099AD009751F717C06CA97DA98EA99FA905
:100540000E943708DC01CB0199AF88AF88AD99AD27
:100550009DAF8CAF8CAD9DAD8C01F8013197F1F75B
:100560008F011DAF0CAF8BE390E02AEAFC012083E2
:100570009E01225C3F4F80E090E0A6E9B3E4F901E0
:1005800080839183A283B3838E010E5B1F4FCE01C4
:10059000CE96FC01608171818281938120E030E000
:1005A0004AE753E40E940B0ADC01CB01F801808387
:1005B0009183A283B383CE018E5B9F4F11E0FC0138
:1005C000608171818281938120E030E040E85FE3C7
:1005D0000E94650B88230CF010E0112349F0CE0136
:1005E0008A5B9F4F21E030E0FC013183208373C0A0
:1005F000CE018E5B9F4F11E0FC0160817181828191
:10060000938120E03FEF4FE757E40E94050B181657
:100610000CF010E0112309F44CC0CE01CE96FC0181
:10062000608171818281938120E030E040E251E479
:100630000E940B0ADC01CB018E010A5B1F4FBC013B
:10064000CD010E943708DC01CB01F8019183808342
:1006500027C0CE01885B9F4F29E130E0FC01318348
:100660002083CE01885B9F4FFC01808191818C01AA
:10067000C8010197F1F78C01CE01885B9F4FFC0107
:1006800011830083CE018A5B9F4F9E012A5B3F4FFF
:10069000F9012081318121503040FC0131832083D8
:1006A000CE018A5B9F4FFC0180819181009789F682
:1006B0002FC08E010A5B1F4FCE018E5B9F4FFC0146
:1006C00060817181828193810E943708DC01CB01B6
:1006D000F80191838083CE01865B9F4F9E012A5B48
:1006E0003F4FF90120813181FC0131832083CE010C
:1006F000865B9F4FFC01808191818C01C80101972D
:10070000F1F78C01CE01865B9F4FFC0111830083C2
:100710008BE390E02FEFFC0120839E01245B3F4F91
:1007200080E090E0A6E9B3E4F90180839183A2839D
:10073000B3838E01005B1F4FCE01845B9F4FFC0192
:10074000608171818281938120E030E04AE753E447
:100750000E940B0ADC01CB01F80180839183A28304
:10076000B383CE01805B9F4F11E0FC0160817181FA
:100770008281938120E030E040E85FE30E94650BD6
:1007800088230CF010E0112349F0CE018C5A9F4FC2
:1007900021E030E0FC013183208374C0CE01805B16
:1007A0009F4F11E0FC01608171818281938120E083
:1007B0003FEF4FE757E40E94050B18160CF010E0CE
:1007C000112309F44DC0CE01845B9F4FFC01608171
:1007D00071818281938120E030E040E251E40E9407
:1007E0000B0ADC01CB018E010C5A1F4FBC01CD015D
:1007F0000E943708DC01CB01F8019183808327C078
:10080000CE018A5A9F4F29E130E0FC0131832083D9
:10081000CE018A5A9F4FFC01808191818C01C801D1
:100820000197F1F78C01CE018A5A9F4FFC01118389
:100830000083CE018C5A9F4F9E012C5A3F4FF901E5
:100840002081318121503040FC0131832083CE0151
:100850008C5A9F4FFC0180819181009789F62FC0AF
:100860008E010C5A1F4FCE01805B9F4FFC016081AF
:100870007181828193810E943708DC01CB01F801EC
:1008800091838083CE01885A9F4F9E012C5A3F4FFF
:10089000F90120813181FC0131832083CE01885A06
:1008A0009F4FFC01808191818C01C8010197F1F774
:1008B0008C01CE01885A9F4FFC01118300838BE38A
:1008C00090E0FC0110829E01265A3F4F80E090E0AC
:1008D000A6E9B3E4F90180839183A283B3838E01F7
:1008E000025A1F4FCE01865A9F4FFC0160817181D1
:1008F0008281938120E030E04AE753E40E940B0AB2
:10090000DC01CB01F80180839183A283B383CE0104
:10091000825A9F4F11E0FC01608171818281938135
:1009200020E030E040E85FE30E94650B88230CF094
:1009300010E0112349F0CE018E599F4F21E030E0A5
:10094000FC013183208374C0CE01825A9F4F11E095
:10095000FC01608171818281938120E03FEF4FE74C
:1009600057E40E94050B18160CF010E0112309F44F
:100970004DC0CE01865A9F4FFC01608171818281FA
:10098000938120E030E040E251E40E940B0ADC0158
:10099000CB018E010E591F4FBC01CD010E943708BB
:1009A000DC01CB01F8019183808327C0CE018C59F3
:1009B0009F4F29E130E0FC0131832083CE018C5927
:1009C0009F4FFC01808191818C01C8010197F1F753
:1009D0008C01CE018C599F4FFC0111830083CE0105
:1009E0008E599F4F9E012E593F4FF9012081318131
:1009F00021503040FC0131832083CE018E599F4F1E
:100A0000FC0180819181009789F62FC08E010E59DB
:100A10001F4FCE01825A9F4FFC01608171818281FC
:100A200093810E943708DC01CB01F8019183808318
:100A3000CE018A599F4F9E012E593F4FF9012081C7
:100A40003181FC0131832083CE018A599F4FFC0103
:100A5000808191818C01C8010197F1F78C01CE0151
:100A60008A599F4FFC01118300831C821B82E8C0BE
:100A70008B819C810E94AE0D8D838BE390E02D8154
:100A8000FC01208308E310E08D810E94EB07F80150
:100A900080839E0128593F4F80E090E0A6E9B3E4AF
:100AA000F90180839183A283B3838E0104591F4F80
:100AB000CE0188599F4FFC016081718182819381B1
:100AC00020E030E04AE753E40E940B0ADC01CB014E
:100AD000F80180839183A283B383CE0184599F4F11
:100AE00011E0FC01608171818281938120E030E01E
:100AF00040E85FE30E94650B88230CF010E01123AF
:100B000049F0CE0180599F4F21E030E0FC01318354
:100B1000208374C0CE0184599F4F11E0FC01608195
:100B200071818281938120E03FEF4FE757E40E947B
:100B3000050B18160CF010E0112309F44DC0CE017E
:100B400088599F4FFC01608171818281938120E0EF
:100B500030E040E251E40E940B0ADC01CB018E013F
:100B600000591F4FBC01CD010E943708DC01CB01A9
:100B7000F8019183808327C0CE018E589F4F29E1D1
:100B800030E0FC0131832083CE018E589F4FFC0161
:100B9000808191818C01C8010197F1F78C01CE0110
:100BA0008E589F4FFC0111830083CE0180599F4FC7
:100BB0009E0120593F4FF901208131812150304061
:100BC000FC0131832083CE0180599F4FFC0180813D
:100BD0009181009789F62FC08E0100591F4FCE01D9
:100BE00084599F4FFC0160817181828193810E94B1
:100BF0003708DC01CB01F80191838083CE018C584A
:100C00009F4F9E0120593F4FF90120813181FC0106
:100C100031832083CE018C589F4FFC0180819181CC
:100C20008C01C8010197F1F78C01CE018C589F4FC0
:100C3000FC01118300838B819C8101969C838B83B3
:100C40008B819C818A3091050CF412CF8BE390E06C
:100C500025E5FC0120839E012A583F4F80E090E06B
:100C6000A6E9B3E4F90180839183A283B3838E0163
:100C700006581F4FCE018A589F4FFC016081718139
:100C80008281938120E030E04AE753E40E940B0A1E
:100C9000DC01CB01F80180839183A283B383CE0171
:100CA00086589F4F11E0FC016081718182819381A0
:100CB00020E030E040E85FE30E94650B88230CF001
:100CC00010E0112349F0CE0182589F4F21E030E01F
:100CD000FC013183208374C0CE0186589F4F11E000
:100CE000FC01608171818281938120E03FEF4FE7B9
:100CF00057E40E94050B18160CF010E0112309F4BC
:100D00004DC0CE018A589F4FFC0160817181828164
:100D1000938120E030E040E251E40E940B0ADC01C4
:100D2000CB018E0102581F4FBC01CD010E94370834
:100D3000DC01CB01F8019183808327C0CE0180586C
:100D40009F4F29E130E0FC0131832083CE018058A0
:100D50009F4FFC01808191818C01C8010197F1F7BF
:100D60008C01CE0180589F4FFC0111830083CE017E
:100D700082589F4F9E0122583F4FF90120813181B7
:100D800021503040FC0131832083CE0182589F4F97
:100D9000FC0180819181009789F62FC08E01025855
:100DA0001F4FCE0186589F4FFC0160817181828167
:100DB00093810E943708DC01CB01F8019183808385
:100DC000CE018E579F4F9E0122583F4FF90120813F
:100DD0003181FC0131832083CE018E579F4FFC016E
:100DE000808191818C01C8010197F1F78C01CE01BE
:100DF0008E579F4FFC01118300838BE390E02AEA1A
:100E0000FC0120839E012C573F4F80E090E0A6E933
:100E1000B3E4F90180839183A283B3838E010857E1
:100E20001F4FCE018C579F4FFC01608171818281E1
:100E3000938120E030E04AE753E40E940B0ADC0192
:100E4000CB01F80180839183A283B383CE018857BD
:100E50009F4F11E0FC01608171818281938120E0CC
:100E600030E040E85FE30E94650B88230CF010E05F
:100E7000112349F0CE0184579F4F21E030E0FC015F
:100E80003183208374C0CE0188579F4F11E0FC014D
:100E9000608171818281938120E03FEF4FE757E4C9
:100EA0000E94050B18160CF010E0112309F44DC038
:100EB000CE018C579F4FFC016081718182819381AB
:100EC00020E030E040E251E40E940B0ADC01CB015B
:100ED0008E0104571F4FBC01CD010E943708DC0171
:100EE000CB01F8019183808327C0CE0182579F4FA9
:100EF00029E130E0FC0131832083CE0182579F4FEE
:100F0000FC01808191818C01C8010197F1F78C016E
:100F1000CE0182579F4FFC0111830083CE0184577D
:100F20009F4F9E0124573F4FF9012081318121506D
:100F30003040FC0131832083CE0184579F4FFC0158
:100F400080819181009789F62FC08E0104571F4F31
:100F5000CE0188579F4FFC0160817181828193810E
:100F60000E943708DC01CB01F80191838083CE0118
:100F700080579F4F9E0124573F4FF90120813181B7
:100F8000FC0131832083CE0180579F4FFC0180817B
:100F900091818C01C8010197F1F78C01CE01805736
:100FA0009F4FFC01118300838BE390E0FC011082D2
:100FB00088E390E02FEFFC01208380E090E0CF56A3
:100FC000DF4F0FB6F894DEBF0FBECDBFCF91DF91DC
:100FD0001F910F910895DF93CF930F92CDB7DEB796
:100FE00089838981882F90E08430910579F185305B
:100FF000910584F48130910519F1823091051CF43A
:101000000097E1F02FC082309105E1F08330910527
:10101000D9F028C087309105F9F0883091053CF46B
:1010200085309105A9F086309105A1F01BC088306C
:101030009105A1F08930910599F014C080EC13C09E
:1010400089EF11C084EA0FC080EB0DC089E90BC0A5
:1010500082E909C082E807C088EF05C080E803C0C4
:1010600080E901C08AEA0F90CF91DF910895EF9255
:10107000FF920F931F937B018C0120E030E040E052
:101080005FE40E94350B87FD11C0C801B70120E065
:1010900030E040E05FE40E94DA090E94950B9B017A
:1010A000AC01205030404040504806C0C801B70154
:1010B0000E94950B9B01AC01B901CA011F910F91D0
:1010C000FF90EF900895A0E0B0E0E9E6F8E00C941E
:1010D0007B0DFC01EA018081823008F438C1DB011C
:1010E0009C91923008F430C1843059F4943009F066
:1010F0002EC1918111968C911197981709F021C1F9
:1011000026C1943009F420C19230B1F4823009F044
:101110001EC1CA01AF0128E0DA010D90AD01DC016A
:101120000D92CD012150C1F7DB0111968C911197E1
:101130009181892389830AC1823009F405C1C28063
:10114000D380DB0112966D907C90139724813581BA
:10115000468157811496ED90FD900D911C91179743
:10116000C601861997095C0197FF04C0AA24BB2415
:10117000A81AB90AB0E2AB16B1040CF061C0181697
:1011800019066CF5370148010A2C04C0969487941F
:10119000779467940A94D2F781E090E0A0E0B0E001
:1011A0000A2C04C0880F991FAA1FBB1F0A94D2F7EC
:1011B0000197A109B1098E219F21A023B123EE241B
:1011C000FF248701E3940097A105B10519F4EE24EB
:1011D000FF248701E628F728082919293CC0009731
:1011E000D1F1CA0CDB1C39014A010A2C04C09694C7
:1011F0008794779467940A94D2F781E090E0A0E016
:10120000B0E00A2C04C0880F991FAA1FBB1F0A94C4
:10121000D2F70197A109B10982239323A423B5230F
:1012200021E030E040E050E00097A105B10519F45D
:1012300020E030E0A90126293729482959290BC087
:101240006C147D0424F4EE24FF24870104C06301A0
:1012500020E030E0A9018181FB019181891709F427
:1012600045C0882349F0D801C701821B930BA40B0A
:10127000B50B9C01AD0104C02E193F09400B510B69
:1012800057FD04C01982DB82CA820BC081E08983CA
:10129000DB82CA8250954095309521953F4F4F4F44
:1012A0005F4F2C833D834E835F830DC0880F991F52
:1012B000AA1FBB1F8C839D83AE83BF838A819B81C2
:1012C00001979B838A838C819D81AE81BF819C0124
:1012D000AD0121503040404050402F3FEFEF3E07DE
:1012E000EFEF4E07EFE35E0708F30BC08983DB8265
:1012F000CA822E0D3F1D401F511F2C833D834E83FC
:101300005F8383E088832C813D814E815F8157FF1D
:101310001DC0DA01C90181709070A070B07056953F
:10132000479537952795822B932BA42BB52B8C8330
:101330009D83AE83BF838A819B8101969B838A8331
:1013400005C0E0E6F0E003C0FB0101C0FE01CF01F3
:10135000CDB7DEB7EEE00C94970DA0E2B0E0E3EB82
:10136000F9E00C94830D69837A838B839C832D83AE
:101370003E834F83588789E0E82EF12CEC0EFD1E4A
:10138000CE010196B7010E94B50C8E010F5E1F4F72
:10139000CE010596B8010E94B50CC701B801AE0197
:1013A000475E5F4F0E9463080E94E70BA096E6E04D
:1013B0000C949F0DA0E2B0E0E0EEF9E00C94830DF8
:1013C00069837A838B839C832D833E834F835887E5
:1013D0008E01075F1F4FCE010196B8010E94B50C28
:1013E00091E1E92EF12CEC0EFD1ECE010596B70120
:1013F0000E94B50C8A8991E089278A8BC801B701C0
:10140000AE01475E5F4F0E9463080E94E70BA09603
:10141000E6E00C949F0DA0E2B0E0E1E1FAE00C946C
:10142000770D69837A838B839C832D833E834F83DF
:101430005887CE010196BE01675F7F4F0E94B50CB1
:10144000CE010596BE016F5E7F4F0E94B50C998557
:10145000923078F089898230C0F0943019F482306B
:1014600041F4CBC0843019F4923079F4C6C0923084
:1014700051F481E02A859A89291709F480E08A8746
:10148000CE010996BCC0823051F481E02A859A8948
:10149000291709F480E08A8BCE014196B0C06D8493
:1014A0007E848F849888ED88FE880F89188DE0E20D
:1014B000F0E080E090E0DC01AA24BB24650120E09C
:1014C00030E0A901B3016170707061157105D1F050
:1014D0002E0D3F1D401F511F15012601280E391EDC
:1014E0004A1E5B1E81E090E0A0E0B0E02E153F05B3
:1014F0004007510718F080E090E0DC01820D931D59
:10150000A41DB51DAA0CBB1CCC1CDD1C17FF09C0FB
:1015100061E0262E312C412C512CA228B328C4285E
:10152000D528319749F0EE0CFF1C001F111F96942F
:10153000879477946794C6CF6B897C89EB85FC850B
:101540006E0F7F1F6E5F7F4F7C8F6B8F61E0EA8530
:101550007A89E71709F460E06A8F6B8D7C8D10C083
:10156000FC01E170F070309729F05695479537955A
:1015700027955068B695A795979587956F5F7F4F8C
:10158000B7FDEECF0CC0880F991FAA1FBB1F57FDD8
:101590008160220F331F441F551F615070408030FF
:1015A000E0E09E07E0E0AE07E0E4BE0760F36B8F8B
:1015B0007C8F6FE7E62EF12C012D112DE822F92208
:1015C0000A231B2360E4E616F1040105110561F40A
:1015D00087FD0AC0211531054105510529F0805CC0
:1015E0009F4FAF4FBF4F80788D8F9E8FAF8FB8A327
:1015F00083E0898FCE01499602C080E690E00E9488
:10160000E70BA096E2E10C94930DA8E1B0E0EBE0CB
:10161000FBE00C94830D69837A838B839C832D83F9
:101620003E834F8358878E01075F1F4FCE0101967F
:10163000B8010E94B50C81E1E82EF12CEC0EFD1EE4
:10164000CE010596B7010E94B50C8985823040F025
:101650008989823028F0C801B7010E941E0D01C09F
:101660008FEF6896E6E00C949F0DA8E1B0E0EBE305
:10167000FBE00C94830D69837A838B839C832D8399
:101680003E834F8358878E01075F1F4FCE0101961F
:10169000B8010E94B50C81E1E82EF12CEC0EFD1E84
:1016A000CE010596B7010E94B50C8985823040F0C5
:1016B0008989823028F0C801B7010E941E0D01C03F
:1016C0008FEF6896E6E00C949F0DA8E1B0E0EBE6A2
:1016D000FBE00C94830D69837A838B839C832D8339
:1016E0003E834F8358878E01075F1F4FCE010196BF
:1016F000B8010E94B50C81E1E82EF12CEC0EFD1E24
:10170000CE010596B7010E94B50C8985823040F064
:101710008989823028F0C801B7010E941E0D01C0DE
:1017200081E06896E6E00C949F0DACE0B0E0EBE958
:10173000FBE00C94870D69837A838B839C83CE01B5
:101740000196BE016B5F7F4F0E94B50C8D81823088
:1017500081F1823070F1843021F48E81882369F127
:101760000AC02F81388537FD24C06E812F313105A5
:101770003CF0662311F120E030E040E050E821C069
:101780008EE190E0821B930B29853A854B855C8521
:1017900004C056954795379527958A95D2F76623C5
:1017A00081F050954095309521953F4F4F4F5F4FB9
:1017B00008C020E030E0A90104C02FEF3FEF4FEF59
:1017C0005FE7B901CA012C96E2E00C94A30DEF92F9
:1017D000FF920F931F93CF93DF93FC0124813581F8
:1017E0004681578161818081823020F44061EFEF32
:1017F000F0E0A3C0843009F49BC0823009F492C0A9
:10180000211531054105510509F48FC00280F3818E
:10181000E02D8FEFE238F8070CF05AC0C2E8DFEF96
:10182000CE1BDF0BCA31D1056CF579018A010C2E74
:1018300004C016950795F794E7940A94D2F781E0CF
:1018400090E0A0E0B0E00C2E04C0880F991FAA1F02
:10185000BB1F0A94D2F70197A109B10982239323F0
:10186000A423B52321E030E040E050E00097A1053B
:10187000B10519F420E030E0A9012E293F29402BC1
:10188000512B03C020E030E0A901DA01C9018F77B4
:101890009070A070B07080349105A105B10539F445
:1018A00027FF09C0205C3F4F4F4F5F4F04C0215CB2
:1018B0003F4F4F4F5F4FE1E0F0E0203080E03807CE
:1018C00080E0480780E4580728F5E0E0F0E022C017
:1018D000E038F1056CF5E158FF4FDA01C9018F7767
:1018E0009070A070B07080349105A105B10539F4F5
:1018F00027FF09C0205C3F4F4F4F5F4F04C0215C62
:101900003F4F4F4F5F4F57FF05C05695479537954F
:101910002795319687E056954795379527958A956F
:10192000D1F70BC0E0E0F0E005C0E0E0F0E005C07A
:10193000EFEFF0E020E030E0A9018E2F87958827B7
:101940008795942F9F77679566276795E695E22E92
:10195000A92FA82BFE2FF62B622F732F8A2F9F2FD4
:10196000CDB7DEB7E6E00C949F0DDC01FB012C91B6
:1019700011963C91119712968C911297482F4F77A0
:1019800050E0982F991F9927991F13966C911397E0
:10199000862F880F892B90E0661F6627661F61835C
:1019A000009739F5211531054105510511F482E003
:1019B00029C082E89FEF9383828367E0220F331F61
:1019C000441F551F6A95D1F783E0808309C0220F19
:1019D000331F441F551F8281938101979383828314
:1019E000203080E0380780E0480780E4580778F32B
:1019F00020C08F3F910579F421153105410551052E
:101A000019F484E08083089544FF03C081E080835B
:101A100010C010820EC08F5790409383828383E062
:101A2000808387E0220F331F441F551F8A95D1F70B
:101A3000506424833583468357830895FC01DB017A
:101A40009081923008F449C08C91823008F445C0EE
:101A5000943051F461818430B1F511962C91119735
:101A600030E0261B310941C0843021F0923041F42E
:101A70008230B1F111968C9111978823A1F12DC07C
:101A80006181823001F111968C9111976817D9F418
:101A90002281338112968D919C911397821793071F
:101AA00094F028173907BCF024813581468157818D
:101AB00014968D919D910D90BC91A02D8217930746
:101AC000A407B50718F4662341F00DC0281739079D
:101AD0004A075B0728F4662331F021E030E005C0B7
:101AE00020E030E002C02FEF3FEFC90108952F92B0
:101AF0003F924F925F926F927F928F929F92AF929E
:101B0000BF92CF92DF92EF92FF920F931F93CF93EA
:101B1000DF93CDB7DEB7CA1BDB0B0FB6F894DEBF81
:101B20000FBECDBF09942A88398848885F846E84A7
:101B30007D848C849B84AA84B984C884DF80EE80F1
:101B4000FD800C811B81AA81B981CE0FD11D0FB6FA
:101B5000F894DEBF0FBECDBFED010895E199FECF31
:101B60009FBB8EBBE09A99278DB30895262FE199EC
:101B7000FECF9FBB8EBB2DBB0FB6F894E29AE19AC5
:0A1B80000FBE01960895F894FFCF00
:081B8A00000000000000000053
:00000001FF
